:020000040800F2
:10000000FF4F0020792C0008C12C0008C12C0008EB
:10001000C12C0008C12C0008C12C00080000000001
:10002000000000000000000000000000C12C0008DB
:10003000C12C000800000000C12C0008C12C0008E1
:10004000C12C0008C12C0008C12C0008C12C0008DC
:10005000C12C0008C12C0008C12C0008C12C0008CC
:10006000C12C0008C12C0008C12C0008C12C0008BC
:10007000C12C0008C12C0008C12C0008C12C0008AC
:10008000C12C0008C12C0008C12C0008C12C00089C
:10009000C12C0008C12C0008C12C0008C12C00088C
:1000A000C12C0008C12C0008C12C0008C12C00087C
:1000B000592A0008C12C0008C12C0008C12C0008D6
:1000C000C12C0008C12C0008C12C0008C12C00085C
:1000D000C12C0008C12C0008C12C0008C12C00084C
:1000E000C12C0008C12C0008C12C00080000000031
:1000F0000000000000000000000000000000000000
:0C01000000000000000000005FF808F1A3
:10010C0010B5054C237833B9044B13B10448AFF345
:10011C0000800123237010BD50040020000000005B
:10012C00C42C0008084B10B51BB108490848AFF3A4
:10013C0000800848036803B910BD074B002BFBD0A7
:10014C00BDE81040184700BF000000005404002018
:10015C00C42C0008500400200000000080B588B0BA
:10016C0000AFF860084611461A4603467B810B46E1
:10017C003B811346FB807B89BB823B89FB82FB88DE
:10018C003B833B8D7B8307F114031946F86800F021
:10019C006DFA00BF2037BD4680BD00BF80B483B070
:1001AC0000AF78600B46FB70FB78002B08D07B68A7
:1001BC001B889BB243F001039AB27B681A8007E05C
:1001CC007B681B889BB223F001039AB27B681A8070
:1001DC0000BF0C37BD4680BC704700BF80B483B0F5
:1001EC0000AF78607B689B8C9BB218460C37BD4681
:1001FC0080BC704780B500AF154A154B1B6843F0A7
:10020C00010313601249124B5A68124B13404B6096
:10021C000F4A0F4B1B6823F0847323F48033136055
:10022C000B4A0B4B1B6823F480231360084A084BC2
:10023C005B6823F4FE035360054B4FF41F029A6076
:10024C0000F078F8044B4FF000629A6000BF80BD5C
:10025C00001002400000FFF800ED00E080B485B013
:10026C0000AF0023FB600023BB6000237B602C4BA2
:10027C005B6803F00C03FB60FB68042B07D0082BB6
:10028C0009D0002B33D1274B274A1A6033E0254B7A
:10029C00254A1A602FE0224B5B6803F47013BB6095
:1002AC001F4B5B6803F480337B60BB689B0C023391
:1002BC00BB607B68002B06D1BB681C4A02FB03F3B6
:1002CC00184A136017E0164B5B6803F40033002BDD
:1002DC0006D0BB68154A02FB03F3124A13600AE00E
:1002EC00BB68114A02FB03F30E4A136003E00D4B8B
:1002FC000D4A1A6000BF0A4B5B6803F0F0031B0940
:10030C000B4AD35CDBB2FB60064B1A68FB6822FA23
:10031C0003F3044A136000BF1437BD4680BC70471A
:10032C00001002400000002000127A0000093D007D
:10033C000400002080B500AF00F002F800BF80BDC3
:10034C0080B483B000AF00237B6000233B603A4A4B
:10035C00394B1B6843F480331360374B1B6803F431
:10036C0000333B607B6801337B603B68002B03D11F
:10037C007B68B3F5A06FF0D12F4B1B6803F40033EF
:10038C00002B02D001233B6001E000233B603B6863
:10039C00012B4BD1294A294B1B6843F010031360E6
:1003AC00264A264B1B6823F007031360234A234B72
:1003BC001B6843F0020313601F4A1F4B5B685360BA
:1003CC001D4A1D4B5B6853601B4A1B4B5B6843F417
:1003DC0080635360184A184B5B6823F47C1353609A
:1003EC00154A154B5B6843F4E8135360124A124BE1
:1003FC001B6843F08073136000BF0F4B1B6803F046
:10040C000073002BF9D00C4A0B4B5B6823F00303F1
:10041C005360094A084B5B6843F00203536000BF0A
:10042C00054B5B6803F00C03082BF9D100BF0C37AC
:10043C00BD4680BC704700BF001002400020024047
:10044C0080B582B000AF78607B68784A93420AD15D
:10045C0001214FF4006002F003FA00214FF4006018
:10046C0002F0FEF9DEE07B68B3F1804F08D1012188
:10047C00012002F013FA0021012002F00FFAD1E062
:10048C007B686B4A934208D10121022002F006FAE4
:10049C000021022002F002FAC4E07B68654A934214
:1004AC0008D10121042002F0F9F90021042002F006
:1004BC00F5F9B7E07B68604A934208D10121082026
:1004CC0002F0ECF90021082002F0E8F9AAE07B68C0
:1004DC005A4A934208D10121102002F0DFF9002181
:1004EC00102002F0DBF99DE07B68554A934208D15D
:1004FC000121202002F0D2F90021202002F0CEF9B7
:10050C0090E07B684F4A93420AD101214FF400508E
:10051C0002F0A6F900214FF4005002F0A1F981E09D
:10052C007B68494A93420AD101214FF4002002F022
:10053C0097F900214FF4002002F092F972E07B68E9
:10054C00424A93420AD101214FF4801002F088F9FB
:10055C0000214FF4801002F083F963E07B683C4A81
:10056C0093420AD101214FF4001002F079F90021D5
:10057C004FF4001002F074F954E07B68354A934252
:10058C0008D10121402002F089F90021402002F01D
:10059C0085F947E07B68304A934208D101218020DD
:1005AC0002F07CF90021802002F078F93AE07B68B7
:1005BC002A4A93420AD101214FF4807002F06EF95D
:1005CC0000214FF4807002F069F92BE07B68244A1B
:1005DC0093420AD101214FF4803002F041F90021FD
:1005EC004FF4803002F03CF91CE07B681D4A9342CA
:1005FC000AD101214FF4003002F032F900214FF4FE
:10060C00003002F02DF90DE07B68174A934209D1B6
:10061C0001214FF4802002F023F900214FF48020B7
:10062C0002F01EF900BF0837BD4680BD002C01400A
:10063C000004004000080040000C00400010004086
:10064C000014004000340140004C014000500140B7
:10065C000054014000180040001C004000200040E5
:10066C0000400140004401400048014080B485B086
:10067C0000AF786039600023FB817B681B88FB81AD
:10068C007B682E4A934213D07B682D4A93420FD03D
:10069C007B68B3F1804F0BD07B682A4A934207D01A
:1006AC007B68294A934203D07B68284A934208D13D
:1006BC00FB8923F07003FB813B685A88FB89134349
:1006CC00FB817B68224A93420CD07B68214A93427F
:1006DC0008D0FB8923F44073FB813B68DA88FB89E3
:1006EC001343FB817B68FA891A803B689A887B6884
:1006FC009A853B681A887B681A857B680F4A9342F7
:10070C000FD07B680E4A93420BD07B68124A9342FF
:10071C0007D07B68114A934203D07B68104A9342FE
:10072C0004D13B681B7A9AB27B681A867B680122DB
:10073C009A8200BF1437BD4680BC7047002C014024
:10074C00003401400004004000080040000C004050
:10075C0000100040001400400040014000440140E3
:10076C000048014080B485B000AF78603960002348
:10077C007B810023FB810023BB817B681B8C9BB29C
:10078C0023F001039AB27B681A847B681B8CFB8173
:10079C007B689B88BB817B681B8B7B817B8923F06F
:1007AC0070037B817B8923F003037B813B681A8870
:1007BC007B8913437B81FB8923F00203FB813B681C
:1007CC001A89FB891343FB813B685A88FB891343C5
:1007DC00FB817B68244A93420FD07B68234A934267
:1007EC000BD07B68224A934207D07B68214A934204
:1007FC0003D07B68204A934223D1FB8923F0080362
:10080C00FB813B685A89FB891343FB81FB8923F0ED
:10081C000403FB813B689A88FB891343FB81BB89EA
:10082C0023F48073BB81BB8923F40073BB813B68C9
:10083C009A89BB891343BB813B68DA89BB89134313
:10084C00BB817B68BA899A807B687A891A833B68FA
:10085C00DA887B689A867B68FA891A8400BF143719
:10086C00BD4680BC704700BF002C014000340140E5
:10087C0000400140004401400048014080B485B074
:10088C0000AF7860396000237B810023FB8100235B
:10089C00BB817B681B8C9BB223F010039AB27B68E4
:1008AC001A847B681B8CFB817B689B88BB817B6873
:1008BC001B8B7B817B8923F4E0437B817B8923F435
:1008CC0040737B813B681B881B029AB27B89134364
:1008DC007B81FB8923F02003FB813B681B891B0177
:1008EC009AB2FB891343FB813B685B881B019AB26C
:1008FC00FB891343FB817B68224A934203D07B68BC
:10090C00214A93422BD1FB8923F08003FB813B6866
:10091C005B891B019AB2FB891343FB81FB8923F092
:10092C004003FB813B689B881B019AB2FB891343F4
:10093C00FB81BB8923F48063BB81BB8923F40063F7
:10094C00BB813B689B899B009AB2BB891343BB81DB
:10095C003B68DB899B009AB2BB891343BB817B68E4
:10096C00BA899A807B687A891A833B68DA887B68B3
:10097C001A877B68FA891A8400BF1437BD4680BC7D
:10098C00704700BF002C01400034014080B485B09A
:10099C0000AF7860396000237B810023FB8100234A
:1009AC00BB817B681B8C9BB223F480739AB27B68EF
:1009BC001A847B681B8CFB817B689B88BB817B6862
:1009CC009B8B7B817B8923F070037B817B8923F05C
:1009DC0003037B813B681A887B8913437B81FB89EA
:1009EC0023F40073FB813B681B891B029AB2FB89C1
:1009FC001343FB813B685B881B029AB2FB89134350
:100A0C00FB817B68224A934203D07B68214A934244
:100A1C002BD1FB8923F40063FB813B685B891B02B0
:100A2C009AB2FB891343FB81FB8923F48063FB811E
:100A3C003B689B881B029AB2FB891343FB81BB89E1
:100A4C0023F48053BB81BB8923F40053BB813B68E7
:100A5C009B891B019AB2BB891343BB813B68DB8921
:100A6C001B019AB2BB891343BB817B68BA899A80FC
:100A7C007B687A899A833B68DA887B689A877B687B
:100A8C00FA891A8400BF1437BD4680BC704700BF7A
:100A9C00002C01400034014080B485B000AF786078
:100AAC0039600023BB8100237B810023FB817B68A1
:100ABC001B8C9BB223F480539AB27B681A847B689C
:100ACC001B8C7B817B689B88FB817B689B8BBB81B0
:100ADC00BB8923F4E043BB81BB8923F44073BB8106
:100AEC003B681B881B029AB2BB891343BB817B8971
:100AFC0023F400537B813B681B891B039AB27B89CF
:100B0C0013437B813B685B881B039AB27B8913433D
:100B1C007B817B68124A934203D07B68114A9342D3
:100B2C000AD1FB8923F48043FB813B689B899B01A1
:100B3C009AB2FB891343FB817B68FA899A807B68A4
:100B4C00BA899A833B68DA887B68A3F840207B6873
:100B5C007A891A8400BF1437BD4680BC704700BF29
:100B6C00002C01400034014080B582B000AF7860A9
:100B7C0039603B681B88002B0FD13B6859883B6858
:100B8C009A883B681B89786801F084F93B68DB889C
:100B9C001946786801F03EF836E03B681B88042B58
:100BAC000FD13B6859883B689A883B681B897868E9
:100BBC0001F0E0F93B68DB881946786801F046F8EB
:100BCC0022E03B681B88082B0FD13B6859883B6897
:100BDC009A883B681B89786801F046FA3B68DB8889
:100BEC001946786801F050F80EE03B6859883B686C
:100BFC009A883B681B89786801F0ACFA3B68DB8803
:100C0C001946786801F05CF800BF0837BD4680BD16
:100C1C0080B584B000AF786039600023FB8101237C
:100C2C00BB813B685B88002B02D10223FB8101E076
:100C3C000023FB813B689B88012B02D10223BB81E3
:100C4C0001E00123BB813B681B88002B1CD13B6856
:100C5C0059883B689A883B681B89786801F01AF9B7
:100C6C003B68DB881946786800F0D4FF3B681B8929
:100C7C00BA89F989786801F07DF93B68DB881946F7
:100C8C00786800F0E3FF1BE03B6859883B689A8862
:100C9C003B681B89786801F06DF93B68DB88194665
:100CAC00786800F0D3FF3B681B89BA89F9897868AA
:100CBC0001F0F0F83B68DB881946786800F0AAFF71
:100CCC0000BF1037BD4680BD80B483B000AF7860E4
:100CDC0039603B681A883B685B8813439AB23B685F
:100CEC009B8813439AB23B68DB8813439AB23B68E8
:100CFC001B8913439AB23B685B8913439AB23B68D6
:100D0C009B8913439AB27B68A3F8442000BF0C372D
:100D1C00BD4680BC704700BF80B483B000AF786024
:100D2C007B684FF6FF729A807B6800221A807B6882
:100D3C000022DA807B6800225A807B6800221A72BB
:100D4C0000BF0C37BD4680BC704700BF80B483B079
:100D5C0000AF78607B6800221A807B6800225A8082
:100D6C007B6800229A807B680022DA807B680022F4
:100D7C001A817B6800225A817B6800229A817B68E9
:100D8C000022DA8100BF0C37BD4680BC704700BF23
:100D9C0080B483B000AF78607B6800221A807B68D7
:100DAC0000225A807B6801229A807B680022DA80BC
:100DBC007B6800221A8100BF0C37BD4680BC70478F
:100DCC0080B483B000AF78607B6800221A807B68A7
:100DDC0000225A807B6800229A807B680022DA808D
:100DEC007B6800221A817B6800225A817B68002272
:100DFC009A8100BF0C37BD4680BC704780B483B06D
:100E0C0000AF78600B46FB70FB78002B08D07B683A
:100E1C001B889BB243F001039AB27B681A8007E0EF
:100E2C007B681B889BB223F001039AB27B681A8003
:100E3C0000BF0C37BD4680BC704700BF80B483B088
:100E4C0000AF78600B46FB70FB78002B0CD07B68F6
:100E5C00B3F844309BB26FEA43436FEA53439AB200
:100E6C007B68A3F8442009E07B68B3F844309BB25C
:100E7C00C3F30E039AB27B68A3F8442000BF0C376F
:100E8C00BD4680BC704700BF80B483B000AF7860B3
:100E9C000B467B8013467B707B78002B08D07B68DD
:100EAC009B899AB27B8813439AB27B689A8109E03A
:100EBC007B689B899AB27B88DB439BB213409AB2C6
:100ECC007B689A8100BF0C37BD4680BC704700BF61
:100EDC0080B483B000AF78600B467B807B687A88E7
:100EEC009A8200BF0C37BD4680BC704780B483B07B
:100EFC0000AF78600B467B8013463B807A883B883A
:100F0C0013439AB27B68A3F8482000BF0C37BD4648
:100F1C0080BC704780B483B000AF78600B467B8098
:100F2C0013467B707B78002B08D07B689B899AB228
:100F3C007B8813439AB27B689A8109E07B689B8912
:100F4C009AB27B88DB439BB213409AB27B689A813E
:100F5C0000BF0C37BD4680BC704700BF80B483B067
:100F6C0000AF78607B681B899BB223F007039AB2B1
:100F7C007B681A8100BF0C37BD4680BC704700BF30
:100F8C0080B582B000AF78600B467B807B881946B9
:100F9C00786800F0E5F87B681B899BB243F0070387
:100FAC009AB27B681A8100BF0837BD4680BD00BF6E
:100FBC0080B584B000AFF860084611461A46034667
:100FCC007B810B463B811346FB807B89602B06D1D2
:100FDC00FB8839890122F86800F0CCFF05E0FB881A
:100FEC0039890122F86800F055FF7B891946F868A9
:100FFC0000F0B6F8FB681B899BB243F007039AB26A
:10100C00FB681A8100BF1037BD4680BD80B586B025
:10101C0000AFF860084611461A4603467B810B4622
:10102C003B811346FB800023FB82FB883A8979893C
:10103C00F86800F03BF8FB681B89FB82FB8A23F005
:10104C000703FB82FB8A43F00703FB82FB8A23F036
:10105C007003FB82FB8A43F07003FB82FB68FA8A05
:10106C001A8100BF1837BD4680BD00BF80B584B063
:10107C0000AFF860084611461A4603467B810B46C2
:10108C003B811346FB80FB883A897989F86800F02C
:10109C000DF8FB681B899BB243F480439AB2FB6842
:1010AC001A8100BF1037BD4680BD00BF80B487B029
:1010BC0000AFF860084611461A4603467B810B4682
:1010CC003B811346FB800023FB82FB681B89FB8260
:1010DC00FB8ADBB2FB82FB881B029AB23B8913436F
:1010EC009AB27B8913439AB2FB8A1343FB82FB6847
:1010FC00FA8A1A8100BF1C37BD4680BC704700BFFE
:10110C0080B483B000AF78600B467B8013463B8085
:10111C007B687A881A857B683A889A8200BF0C377C
:10112C00BD4680BC704700BF80B485B000AF78600E
:10113C000B467B800023FB817B681B88FB81FB8932
:10114C0023F07003FB81FA897B881343FB817B6856
:10115C00FA891A8000BF1437BD4680BC704700BFA7
:10116C0080B485B000AF78600B467B800023FB8198
:10117C007B681B89FB81FB8923F07003FB81FA8957
:10118C007B881343FB817B68FA891A8100BF143773
:10119C00BD4680BC704700BF80B487B000AFF8601C
:1011AC00084611461A4603467B810B463B81134683
:1011BC00FB800023FB820023BB8200237B82FB6825
:1011CC001B89FB82FB681B8BBB82FB681B8C7B82A5
:1011DC00FB8A23F00703FB82FA8A7B891343FB8289
:1011EC00BB8A23F4407323F00303BB82BB8A43F412
:1011FC00807343F00103BB827B8A23F022037B8242
:10120C00FB881B019AB23B8913439AB27B8A134326
:10121C007B82FB68FA8A1A81FB68BA8A1A83FB689C
:10122C007A8A1A8400BF1C37BD4680BC704700BF49
:10123C0080B485B000AF78600B467B800023FB81C7
:10124C007B681B8BFB81FB8923F07003FB81FA8984
:10125C007B881343FB817B68FA891A8300BF1437A0
:10126C00BD4680BC704700BF80B485B000AF7860CD
:10127C000B467B800023FB817B681B8BFB81FB89EE
:10128C0023F4E043FB817B881B029AB2FB89134356
:10129C00FB817B68FA891A8300BF1437BD4680BC7A
:1012AC00704700BF80B485B000AF78600B467B8080
:1012BC000023FB817B689B8BFB81FB8923F07003F4
:1012CC00FB81FA897B881343FB817B68FA899A83BB
:1012DC0000BF1437BD4680BC704700BF80B485B0DA
:1012EC0000AF78600B467B800023FB817B689B8B77
:1012FC00FB81FB8923F4E043FB817B881B029AB2C0
:10130C00FB891343FB817B68FA899A8300BF1437EE
:10131C00BD4680BC704700BF80B483B000AF78601E
:10132C000B46FB70FB78002B08D07B681B889BB2AC
:10133C0043F080039AB27B681A8007E07B681B88B5
:10134C009BB223F080039AB27B681A8000BF0C37E3
:10135C00BD4680BC704700BF80B483B000AF7860DE
:10136C000B46FB70FB78002B08D07B689B889BB2EC
:10137C0043F004039AB27B689A8007E07B689B88F1
:10138C009BB223F004039AB27B689A8000BF0C379F
:10139C00BD4680BC704700BF80B483B000AF78609E
:1013AC000B46FB70FB78002B08D07B689B889BB2AC
:1013BC0043F008039AB27B689A8007E07B689B88AD
:1013CC009BB223F008039AB27B689A8000BF0C375B
:1013DC00BD4680BC704700BF80B483B000AF78605E
:1013EC000B46FB70FB78002B08D07B689B889BB26C
:1013FC0043F001039AB27B689A8007E07B689B8874
:10140C009BB223F001039AB27B689A8000BF0C3721
:10141C00BD4680BC704700BF80B485B000AF78601B
:10142C000B467B800023FB817B681B8BFB81FB893C
:10143C0023F00803FB81FA897B881343FB817B68CB
:10144C00FA891A8300BF1437BD4680BC704700BFB1
:10145C0080B485B000AF78600B467B800023FB81A5
:10146C007B681B8BFB81FB8923F40063FB817B88EE
:10147C001B029AB2FB891343FB817B68FA891A839E
:10148C0000BF1437BD4680BC704700BF80B485B028
:10149C0000AF78600B467B800023FB817B689B8BC5
:1014AC00FB81FB8923F00803FB81FA897B881343BA
:1014BC00FB817B68FA899A8300BF1437BD4680BCD8
:1014CC00704700BF80B485B000AF78600B467B805E
:1014DC000023FB817B689B8BFB81FB8923F40063DE
:1014EC00FB817B881B029AB2FB891343FB817B68CF
:1014FC00FA899A8300BF1437BD4680BC704700BF81
:10150C0080B485B000AF78600B467B800023FB81F4
:10151C007B681B8BFB81FB8923F00403FB81FA891D
:10152C007B881343FB817B68FA891A8300BF1437CD
:10153C00BD4680BC704700BF80B485B000AF7860FA
:10154C000B467B800023FB817B681B8BFB81FB891B
:10155C0023F48063FB817B881B029AB2FB891343C3
:10156C00FB817B68FA891A8300BF1437BD4680BCA7
:10157C00704700BF80B485B000AF78600B467B80AD
:10158C000023FB817B689B8BFB81FB8923F004038D
:10159C00FB81FA897B881343FB817B68FA899A83E8
:1015AC0000BF1437BD4680BC704700BF80B485B007
:1015BC0000AF78600B467B800023FB817B689B8BA4
:1015CC00FB81FB8923F48063FB817B881B029AB22D
:1015DC00FB891343FB817B68FA899A8300BF14371C
:1015EC00BD4680BC704700BF80B485B000AF78604A
:1015FC000B467B800023FB817B681B8BFB81FB896B
:10160C0023F08003FB81FA897B881343FB817B6881
:10161C00FA891A8300BF1437BD4680BC704700BFDF
:10162C0080B485B000AF78600B467B800023FB81D3
:10163C007B681B8BFB81FB89C3F30E03FB817B88CF
:10164C001B029AB2FB891343FB817B68FA891A83CC
:10165C0000BF1437BD4680BC704700BF80B485B056
:10166C0000AF78600B467B800023FB817B689B8BF3
:10167C00FB81FB8923F08003FB81FA897B88134370
:10168C00FB817B68FA899A8300BF1437BD4680BC06
:10169C00704700BF80B485B000AF78600B467B808C
:1016AC000023FB817B689B8BFB81FB89C3F30E03BF
:1016BC00FB817B881B029AB2FB891343FB817B68FD
:1016CC00FA899A8300BF1437BD4680BC704700BFAF
:1016DC0080B485B000AF78600B467B800023FB8123
:1016EC007B681B8CFB81FB8923F00203FB81FA894D
:1016FC007B881343FB817B68FA891A8400BF1437FB
:10170C00BD4680BC704700BF80B485B000AF786028
:10171C000B467B800023FB817B681B8CFB81FB8948
:10172C0023F00803FB81FA897B881343FB817B68D8
:10173C00FA891A8400BF1437BD4680BC704700BFBD
:10174C0080B485B000AF78600B467B800023FB81B2
:10175C007B681B8CFB81FB8923F02003FB817B883E
:10176C001B019AB2FB891343FB817B68FA891A84AB
:10177C0000BF1437BD4680BC704700BF80B485B035
:10178C0000AF78600B467B800023FB817B681B8C51
:10179C00FB81FB8923F08003FB817B881B019AB2C0
:1017AC00FB891343FB817B68FA891A8400BF1437C9
:1017BC00BD4680BC704700BF80B485B000AF786078
:1017CC000B467B800023FB817B681B8CFB81FB8998
:1017DC0023F40073FB817B881B029AB2FB891343B1
:1017EC00FB817B68FA891A8400BF1437BD4680BC24
:1017FC00704700BF80B485B000AF78600B467B802B
:10180C000023FB817B681B8CFB81FB8923F4006329
:10181C00FB817B881B029AB2FB891343FB817B689B
:10182C00FA891A8400BF1437BD4680BC704700BFCC
:10183C0080B485B000AF78600B467B800023FB81C1
:10184C007B681B8CFB81FB8923F40053FB817B8819
:10185C001B039AB2FB891343FB817B68FA891A84B8
:10186C0000BF1437BD4680BC704700BF80B485B044
:10187C0000AF78600B467B8013463B800023FB81D6
:10188C007B88012202FA03F3FB817B681B8C9AB2E2
:10189C00FB89DB439BB213409AB27B681A847B684A
:1018AC001B8C9BB21AB239887B8801FA03F31BB2EA
:1018BC0013431BB29AB27B681A8400BF1437BD461F
:1018CC0080BC704780B485B000AF78600B467B80DD
:1018DC0013463B800023FB817B88042202FA03F32E
:1018EC00FB817B681B8C9AB2FB89DB439BB2134058
:1018FC009AB27B681A847B681B8C9BB21AB23988AB
:10190C007B8801FA03F31BB213431BB29AB27B68B8
:10191C001A8400BF1437BD4680BC704780B485B0B4
:10192C0000AF78600B467B8013463B800023FB6046
:10193C0000237B817B68FB60FB681833FB607B8832
:10194C00012202FA03F37B817B681B8C9AB27B89A0
:10195C00DB439BB213409AB27B681A847B88002BC2
:10196C0002D07B88082B13D17B885B089BB21A466C
:10197C00FB681344FB60FB68FA68126822F0700283
:10198C001A60FB68FA6811683A880A431A6016E014
:10199C007B88043B9BB25B089BB21A46FB681344E2
:1019AC00FB60FB68FA68126822F4E0421A60FB687C
:1019BC00FA6812683988090289B20A431A6000BFB2
:1019CC001437BD4680BC704780B483B000AF7860DC
:1019DC000B46FB70FB78002B08D07B681B889BB2F6
:1019EC0043F002039AB27B681A8007E07B681B887D
:1019FC009BB223F002039AB27B681A8000BF0C37AB
:101A0C00BD4680BC704700BF80B483B000AF786027
:101A1C000B467B807B88002B08D07B681B889BB295
:101A2C0043F004039AB27B681A8007E07B681B883A
:101A3C009BB223F004039AB27B681A8000BF0C3768
:101A4C00BD4680BC704700BF80B483B000AF7860E7
:101A5C000B46FB70FB78002B08D07B689B889BB2F5
:101A6C0043F080039AB27B689A8007E07B689B887E
:101A7C009BB223F080039AB27B689A8000BF0C372C
:101A8C00BD4680BC704700BF80B483B000AF7860A7
:101A9C000B467B807B681B889BB223F008039AB2B1
:101AAC007B681A807B681B889AB27B8813439AB236
:101ABC007B681A8000BF0C37BD4680BC704700BFE6
:101ACC0080B483B000AF78600B467B807B689B88CA
:101ADC009BB223F070039AB27B689A807B689B88D8
:101AEC009AB27B8813439AB27B689A8000BF0C37FA
:101AFC00BD4680BC704700BF80B483B000AF786037
:101B0C000B467B807B681B899BB223F007039AB240
:101B1C007B681A817B681B899AB27B8813439AB2C3
:101B2C007B681A8100BF0C37BD4680BC704700BF74
:101B3C0080B483B000AF78600B467B807B681B89D8
:101B4C009BB223F080039AB27B681A817B681B8955
:101B5C009AB27B8813439AB27B681A8100BF0C3708
:101B6C00BD4680BC704700BF80B483B000AF7860C6
:101B7C000B467B807B687A889A8400BF0C37BD4605
:101B8C0080BC704780B483B000AF78600B467B801C
:101B9C007B687A889A8500BF0C37BD4680BC70473D
:101BAC0080B483B000AF78600B467B807B687A880A
:101BBC009A8600BF0C37BD4680BC704780B483B09A
:101BCC0000AF78600B467B807B687A881A8700BFF1
:101BDC000C37BD4680BC704780B483B000AF7860D2
:101BEC000B467B807B687A889A8700BF0C37BD4692
:101BFC0080BC704780B483B000AF78600B467B80AC
:101C0C007B687A88A3F8402000BF0C37BD4680BCA7
:101C1C00704700BF80B483B000AF78600B467B8008
:101C2C007B681B8B9BB223F00C039AB27B681A83E4
:101C3C007B681B8B9AB27B8813439AB27B681A839E
:101C4C0000BF0C37BD4680BC704700BF80B483B06A
:101C5C0000AF78600B467B807B681B8B9BB223F4B8
:101C6C0040639AB27B681A837B681B8B9AB27B8821
:101C7C001B029BB213439AB27B681A8300BF0C37CA
:101C8C00BD4680BC704700BF80B483B000AF7860A5
:101C9C000B467B807B689B8B9BB223F00C039AB228
:101CAC007B689A837B689B8B9AB27B8813439AB22E
:101CBC007B689A8300BF0C37BD4680BC704700BF61
:101CCC0080B483B000AF78600B467B807B689B8BC5
:101CDC009BB223F440639AB27B689A837B689B8B9C
:101CEC009AB27B881B029BB213439AB27B689A838D
:101CFC0000BF0C37BD4680BC704700BF80B483B0BA
:101D0C0000AF78600B467B807B681B889BB223F40A
:101D1C0040739AB27B681A807B681B889AB27B8866
:101D2C0013439AB27B681A8000BF0C37BD4680BC47
:101D3C00704700BF80B483B000AF78607B689B8E27
:101D4C009BB218460C37BD4680BC704780B483B03C
:101D5C0000AF78607B681B8F9BB218460C37BD4672
:101D6C0080BC704780B483B000AF78607B689B8F79
:101D7C009BB218460C37BD4680BC704780B483B00C
:101D8C0000AF78607B68B3F840309BB218460C37D4
:101D9C00BD4680BC704700BF80B483B000AF786094
:101DAC007B689B8C9BB218460C37BD4680BC704739
:101DBC0080B483B000AF78607B681B8D9BB21846F3
:101DCC000C37BD4680BC704780B485B000AF7860DE
:101DDC000B467B800023FB737B681B8A9AB27B8843
:101DEC0013409BB2002B02D00123FB7301E00023B4
:101DFC00FB73FB7B18461437BD4680BC704700BF95
:101E0C0080B483B000AF78600B467B807B88DB436B
:101E1C009AB27B681A8200BF0C37BD4680BC7047F3
:101E2C0080B485B000AF78600B467B800023FB73D9
:101E3C000023BB8100237B817B681B8A9AB27B8841
:101E4C001340BB817B689B899AB27B8813407B8152
:101E5C00BB89002B05D07B89002B02D00123FB739F
:101E6C0001E00023FB73FB7B18461437BD4680BC96
:101E7C00704700BF80B483B000AF78600B467B80A6
:101E8C007B88DB439AB27B681A8200BF0C37BD4655
:101E9C0080BC704780B487B000AFF860084611462C
:101EAC001A4603467B810B463B811346FB8000237D
:101EBC00BB820023FB82FB681B8C9BB223F00103CB
:101ECC009AB2FB681A84FB681B8BBB82FB681B8C69
:101EDC00FB82BB8A23F0F303BB82FB881B019AB203
:101EEC003B8913439AB2BB8A1343BB82FB681C4ADF
:101EFC00934213D0FB681B4A93420FD0FB68B3F19B
:101F0C00804F0BD0FB68184A934207D0FB68174AE6
:101F1C00934203D0FB68164A93420BD1FB8A23F001
:101F2C000203FB827A89FB8A13439BB243F00103C1
:101F3C00FB820AE0FB8A23F00A03FB827A89FB8A84
:101F4C0013439BB243F00103FB82FB68BA8A1A83EA
:101F5C00FB68FA8A1A8400BF1C37BD4680BC7047E8
:101F6C00002C0140003401400004004000080040F7
:101F7C00000C004080B487B000AFF86008461146F2
:101F8C001A4603467B810B463B811346FB8000239C
:101F9C00BB820023FB8200237B82FB681B8C9BB2E1
:101FAC0023F010039AB2FB681A84FB681B8BBB826C
:101FBC00FB681B8CFB827B891B017B82BB8A23F415
:101FCC0040731B051B0DBB82FB881B039AB2BB8A9B
:101FDC001343BB823B891B029AB2BB8A1343BB825D
:101FEC00FB681C4A934213D0FB681B4A93420FD0E8
:101FFC00FB68B3F1804F0BD0FB68184A934207D0B3
:10200C00FB68174A934203D0FB68164A93420BD1E4
:10201C00FB8A23F02003FB827A8AFB8A13439BB250
:10202C0043F01003FB820AE0FB8A23F0A003FB823F
:10203C007A89FB8A13439BB243F01003FB82FB6843
:10204C00BA8A1A83FB68FA8A1A8400BF1C37BD4609
:10205C0080BC7047002C014000340140000400405B
:10206C0000080040000C004080B487B000AFF8605E
:10207C00084611461A4603467B810B463B811346A4
:10208C00FB800023BB820023FB8200237B82FB6846
:10209C001B8C9BB223F480739AB2FB681A84FB6886
:1020AC009B8BBB82FB681B8CFB827B891B027B821C
:1020BC00BB8A23F0F303BB82FB881B019AB23B89DA
:1020CC0013439AB2BB8A1343BB82FB681C4A9342EC
:1020DC0013D0FB681B4A93420FD0FB68B3F1804FBF
:1020EC000BD0FB68184A934207D0FB68174A9342FF
:1020FC0003D0FB68164A93420BD1FB8A23F400737E
:10210C00FB827A8AFB8A13439BB243F48073FB8273
:10211C000AE0FB8A23F42063FB827A89FB8A13434F
:10212C009BB243F48073FB82FB68BA8A9A83FB6888
:10213C00FA8A1A8400BF1C37BD4680BC704700BFAA
:10214C00002C014000340140000400400008004015
:10215C00000C004080B487B000AFF8600846114610
:10216C001A4603467B810B463B811346FB800023BA
:10217C00BB820023FB8200237B82FB681B8C9BB2FF
:10218C0023F480539AB2FB681A84FB689B8BBB8246
:10219C00FB681B8CFB827B891B037B82BB8A23F431
:1021AC0040731B051B0DBB823B891B029AB2BB8A79
:1021BC001343BB82FB881B039AB2BB8A1343BB82BB
:1021CC00FB681D4A934213D0FB681C4A93420FD004
:1021DC00FB68B3F1804F0BD0FB68194A934207D0D0
:1021EC00FB68184A934203D0FB68174A93420BD101
:1021FC00FB8A23F40053FB827A8AFB8A13439BB23B
:10220C0043F48053FB820CE0FB8A23F400735B04E1
:10221C005B0CFB827A89FB8A13439BB243F4805399
:10222C00FB82FB68BA8A9A83FB68FA8A1A8400BF1D
:10223C001C37BD4680BC7047002C01400034014067
:10224C000004004000080040000C004080B400AFC7
:10225C00134A134B1B6843F0010313601049104BD6
:10226C005A68104B13404B600D4A0D4B1B6823F002
:10227C00847323F480331360094A094B1B6823F4DD
:10228C0080231360064A064B5B6823F4FE035360FD
:10229C00034B4FF41F029A6000BFBD4680BC7047D1
:1022AC00001002400000FFF880B483B000AF7860EB
:1022BC00134A134B1B6823F480331360104A104BE2
:1022CC001B6823F4802313607B68B3F5803F03D035
:1022DC00B3F5802F07D00DE0094A094B1B6843F476
:1022EC008033136006E0064A054B1B6843F4A023B9
:1022FC00136000BF00BF0C37BD4680BC704700BFE9
:10230C000010024080B582B000AF00233B60002378
:10231C00FB710023BB71312000F00EFB0346BB7137
:10232C003B6801333B603B68B3F5A06F02D0BB79CF
:10233C00002BF0D0312000F0FFFA0346002B02D026
:10234C000123FB7101E00023FB71FB791846083770
:10235C00BD4680BD80B485B000AF0346FB71002341
:10236C00FB600A4B1B68FB60FB6823F0F803FB6007
:10237C00FB79DB00FA681343FB60044AFB681360CB
:10238C0000BF1437BD4680BC704700BF0010024030
:10239C0080B483B000AF0346FB71044AFB79136031
:1023AC0000BF0C37BD4680BC704700BF00004242E6
:1023BC0080B485B000AF786039600023FB600A4BB5
:1023CC005B68FB60FB6823F47C13FB607A683B68FA
:1023DC001343FA681343FB60034AFB68536000BF66
:1023EC001437BD4680BC70470010024080B483B0E7
:1023FC0000AF0346FB71044AFB79136000BF0C3736
:10240C00BD4680BC704700BF6000424280B485B0BE
:10241C0000AF78600023FB60094B5B68FB60FB68D6
:10242C0023F00303FB60FA687B681343FB60044AE8
:10243C00FB68536000BF1437BD4680BC704700BFBB
:10244C000010024080B400AF044B5B68DBB203F0B9
:10245C000C03DBB21846BD4680BC7047001002402E
:10246C0080B485B000AF78600023FB60094B5B68DB
:10247C00FB60FB6823F0F003FB60FA687B68134396
:10248C00FB60044AFB68536000BF1437BD4680BC38
:10249C00704700BF0010024080B485B000AF786078
:1024AC000023FB60094B5B68FB60FB6823F4E06373
:1024BC00FB60FA687B681343FB60044AFB6853605B
:1024CC0000BF1437BD4680BC704700BF00100240EF
:1024DC0080B485B000AF78600023FB60094B5B686B
:1024EC00FB60FB6823F46053FB607B68DB00FA68DD
:1024FC001343FB60034AFB68536000BF1437BD46AF
:10250C0080BC70470010024080B483B000AF03461B
:10251C000A46FB711346BB71BB79002B08D00C49E2
:10252C000B4B1B78DAB2FB791343DBB20B7009E06F
:10253C000749074B1B78DAB2FB79DB43DBB213405C
:10254C00DBB20B7000BF0C37BD4680BC704700BFC0
:10255C000910024080B483B000AF7860034A7B68F6
:10256C00136000BF0C37BD4680BC7047D800424298
:10257C0080B485B000AF78600023FB60094B5B68CA
:10258C00FB60FB6823F44043FB60FA687B681343F1
:10259C00FB60044AFB68536000BF1437BD4680BC27
:1025AC00704700BF0010024080B483B000AF0346F8
:1025BC00FB710C4B00221A700A4B00221A70FB792B
:1025CC00012B02D0042B04D007E0064B01221A7019
:1025DC0003E0044B05221A7000BF00BF0C37BD4648
:1025EC0080BC70472010024080B483B000AF03461B
:1025FC00FB71044AFB79136000BF0C37BD4680BCED
:10260C00704700BF8004424280B483B000AF786052
:10261C000549054B1A6A7B6813430B6200BF0C37E4
:10262C00BD4680BC704700BF0010024080B483B030
:10263C0000AF0346FB71044AFB79136000BF0C37F3
:10264C00BD4680BC704700BF3C04424280B487B09A
:10265C0000AF786000237B6100233B610023FB60AB
:10266C000023BB604C4B5B6803F00C037B617B6904
:10267C00042B07D0082B09D0002B33D17B68474A99
:10268C001A6033E07B68454A1A602FE0424B5B6866
:10269C0003F470133B61404B5B6803F48033FB60C5
:1026AC003B699B0C02333B61FB68002B06D13B69F9
:1026BC003B4A02FB03F27B681A6017E0364B5B68FF
:1026CC0003F40033002B06D03B69354A02FB03F2BE
:1026DC007B681A600AE03B69304A02FB03F27B68B4
:1026EC001A6003E07B682D4A1A6000BF2A4B5B68B6
:1026FC0003F0F0037B617B691B097B61294A7B69D1
:10270C0013441B78DBB2BB607B681A68BB68DA4089
:10271C007B685A60204B5B6803F4E0637B617B69E8
:10272C001B0A7B611F4A7B6913441B78DBB2BB60BD
:10273C007B685A68BB68DA407B689A60164B5B68AA
:10274C0003F460537B617B69DB0A7B61154A7B690F
:10275C0013441B78DBB2BB607B685A68BB68DA40F9
:10276C007B68DA600C4B5B6803F440437B617B69EC
:10277C009B0B7B610C4A7B6913441B78DBB2BB60FF
:10278C007B68DA68BB68B2FBF3F27B681A6100BF46
:10279C001C37BD4680BC70470010024000127A0006
:1027AC0000093D00140000202400002080B483B0F8
:1027BC0000AF78600B46FB70FB78002B06D0094904
:1027CC00084B5A697B6813434B6106E00549054B7E
:1027DC005A697B68DB4313404B6100BF0C37BD4625
:1027EC0080BC70470010024080B483B000AF7860AA
:1027FC000B46FB70FB78002B06D00949084B9A69F5
:10280C007B6813438B6106E00549054B9A697B682D
:10281C00DB4313408B6100BF0C37BD4680BC704757
:10282C000010024080B483B000AF78600B46FB70A0
:10283C00FB78002B06D00949084BDA697B681343F7
:10284C00CB6106E00549054BDA697B68DB43134035
:10285C00CB6100BF0C37BD4680BC704700100240F6
:10286C0080B483B000AF78600B46FB70FB78002B14
:10287C0006D00949084BDA687B681343CB6006E045
:10288C000549054BDA687B68DB431340CB6000BF1E
:10289C000C37BD4680BC70470010024080B483B03A
:1028AC0000AF78600B46FB70FB78002B06D0094913
:1028BC00084B1A697B6813430B6106E00549054B0D
:1028CC001A697B68DB4313400B6100BF0C37BD46B4
:1028DC0080BC70470010024080B483B000AF034648
:1028EC00FB71044AFB79136000BF0C37BD4680BCFA
:1028FC00704700BF4004424280B483B000AF03462F
:10290C00FB71044AFB79136000BF0C37BD4680BCD9
:10291C00704700BF4C00424280B483B000AF034606
:10292C00FB71044AFB79137000BF0C37BD4680BCA9
:10293C00704700BF0710024080B487B000AF034659
:10294C00FB710023FB6000237B610023FB74FB798C
:10295C005B09DBB2FB60FB68012B03D1124B1B68DC
:10296C007B6109E0FB68022B03D10F4B1B6A7B6177
:10297C0002E00D4B5B6A7B61FB7903F01F03FB608C
:10298C007A69FB6822FA03F303F00103002B02D0EF
:10299C000123FB7401E00023FB74FB7C18461C37FD
:1029AC00BD4680BC704700BF0010024080B400AF31
:1029BC00044A044B5B6A43F08073536200BFBD460C
:1029CC0080BC70470010024080B485B000AF034655
:1029DC00FB710023FB73084B9A68FB791340002BA7
:1029EC0002D00123FB7301E00023FB73FB7B184631
:1029FC001437BD4680BC70470010024080B483B0D1
:102A0C0000AF0346FB71044AFB79137000BF0C370F
:102A1C00BD4680BC704700BF0A10024080B483B032
:102A2C0000AF0346FB71084997F907305B09FA7947
:102A3C0002F01F02012000FA02F241F8232000BF2D
:102A4C000C37BD4680BC704700E100E080B582B019
:102A5C0000AF4FF080439B8C9BB27B6001214FF009
:102A6C008040FFF707FA00BF0837BD4680BD00BFA6
:102A7C0080B485B000AF78600023FB6002E0FB6897
:102A8C000133FB607B68642202FB03F2FB689A4211
:102A9C00F5DC00BF1437BD4680BC704780B588B0EC
:102AAC0002AF1C20FFF7BAFF01210120FFF7BAFE8D
:102ABC0000210120FFF7F2FE002300934FF6FF7375
:102ACC00102200214FF08040FDF748FB012201212C
:102ADC004FF08040FEF7D8F901214FF08040FDF710
:102AEC005DFB4FF080431B889BB27B614FF08043B2
:102AFC009B889BB23B614FF080439B8C9BB2FB60ED
:102B0C004FF080431B8D9BB2BB604FF080439B8D7D
:102B1C009BB27B604FF08040FDF760FB03467B80EF
:102B2C004FF08040FDF75AFB03467B80F2E700BF75
:102B3C0070B50F4E0F4D761BB61018BF002405D084
:102B4C00013455F8043B9847A642F9D10A4E0B4D77
:102B5C0000F0B2F8761BB61018BF002406D0013472
:102B6C0055F8043B9847A642F9D170BD70BD00BF23
:102B7C00E42C0008E42C0008EC2C0008E42C0008E1
:102B8C00024B13B1024800F005B87047000000007A
:102B9C00AD2B0008002301461A46184600F014B865
:102BAC0038B5074D074C2C1BA41005D0013C55F82B
:102BBC00043D9847002CF9D1BDE8384000F082B8AC
:102BCC00F02C0008EC2C00082DE9F047254C0646AB
:102BDC0025688846D5F8484192469946C4B3606842
:102BEC001F2817DC411C76B104EB8003C3F888A0C6
:102BFC00D4F88851012282401543022EC4F8885122
:102C0C00C3F808911ED0831C6160002044F8238017
:102C1C00BDE8F087144B03B34FF4C870AFF30080DA
:102C2C000446D0B1D5F84831002784E888003846EE
:102C3C00C5F848410121C4F88871C4F88C71002E84
:102C4C00E1D0D1E7D4F88C311A43C4F88C21DAE7FF
:102C5C0005F5A674C5F84841C1E74FF0FF30BDE853
:102C6C00F08700BFE02C000800000000002103E00A
:102C7C000B4B5B58435004310A480B4B42189A4299
:102C8C00F6D30A4A02E0002342F8043B084B9A426E
:102C9C00F9D3FDF7AFFAFFF74BFFFFF7FFFE7047D5
:102CAC00F02C0008000000205004002050040020EC
:102CBC006C040020FEE70000F8B500BFF8BC08BCAF
:102CCC009E467047F8B500BFF8BC08BC9E467047DE
:082CDC00430000002800002065
:082CE4008D2B000831010008EE
:042CEC000D010008CE
:102CF00000A24A04000000000000000001020304DA
:102D00000607080900000000010203040102030491
:102D1000060708090204060800000000140300204A
:102D20007C030020E40300200000000000000000FD
:102D30000000000000000000000000000000000093
:102D4000000000000000000000000000DC2C000873
:102D50000000000000000000000000000000000073
:102D60000000000000000000000000000000000063
:102D70000000000000000000000000000000000053
:102D80000000000000000000000000000000000043
:102D90000000000000000000000000000000000033
:102DA0000000000000000000000000000000000023
:102DB0000000000000000000000000000000000013
:102DC00001000000000000000E33CDAB34126DE6B0
:102DD000ECDE05000B000000000000000000000019
:102DE00000000000000000000000000000000000E3
:102DF00000000000000000000000000000000000D3
:102E000000000000000000000000000000000000C2
:102E100000000000000000000000000000000000B2
:0400000508002C794A
:00000001FF
