:020000040800F2
:10000000FF4F0020C54B00080D4C00080D4C0008A8
:100010000D4C00080D4C00080D4C000800000000BD
:100020000000000000000000000000000D4C00086F
:100030000D4C0008000000000D4C00080D4C00089D
:100040000D4C00080D4C00080D4C00080D4C00082C
:100050000D4C00080D4C00080D4C00080D4C00081C
:100060000D4C00080D4C00080D4C00080D4C00080C
:100070000D4C0008610500080D4C00080D4C0008EF
:100080000D4C00080D4C00080D4C00080D4C0008EC
:100090000D4C00080D4C00080D4C00080D4C0008DC
:1000A0000D4C00080D4C00080D4C00080D4C0008CC
:1000B000FD1200080D4C00080D4C00080D4C000806
:1000C0000D4C00080D4C00080D4C00080D4C0008AC
:1000D0000D4C00080D4C00080D4C00080D4C00089C
:1000E0000D4C00080D4C00080D4C000800000000ED
:1000F0000000000000000000000000000000000000
:0C01000000000000000000005FF808F1A3
:10010C0010B5054C237833B9044B13B10448AFF345
:10011C0000800123237010BD640800200000000043
:10012C001C540008084B10B51BB108490848AFF324
:10013C0000800848036803B910BD074B002BFBD0A7
:10014C00BDE81040184700BF000000006808002000
:10015C001C540008640800200000000080B483B028
:10016C0000AF78607B681A684FF6FE7313407A68AC
:10017C0013607B6800221A607B6800225A607B68DF
:10018C0000229A607B680022DA607B68434A9342C3
:10019C0006D1434A424B5B6843F00F03536077E050
:1001AC007B68404A934206D13D4A3D4B5B6843F025
:1001BC00F00353606CE07B683B4A934206D1384AAB
:1001CC00374B5B6843F47063536061E07B68374A7C
:1001DC00934206D1324A324B5B6843F4704353600E
:1001EC0056E07B68324A934206D12D4A2C4B5B6811
:1001FC0043F4702353604BE07B682E4A934206D144
:10020C00274A274B5B6843F47003536040E07B68DC
:10021C00294A934206D1224A214B5B6843F0706312
:10022C00536035E07B68254A934206D1244A244B1F
:10023C005B6843F00F0353602AE07B68214A9342CA
:10024C0006D11F4A1E4B5B6843F0F00353601FE05E
:10025C007B681D4A934206D1194A194B5B6843F4DB
:10026C007063536014E07B68184A934206D1144AB9
:10027C00134B5B6843F47043536009E07B68144A8A
:10028C00934205D10E4A0E4B5B6843F470235360C6
:10029C0000BF0C37BD4680BC704700BF0800024051
:1002AC00000002401C0002403000024044000240AA
:1002BC00580002406C0002408000024008040240DA
:1002CC00000402401C04024030040240440402407A
:1002DC005804024080B485B000AF786039600023C8
:1002EC00FB607B681B68FB60FB6823F4FF4323F017
:1002FC007003FB603B689A683B681B6A1A433B6857
:10030C001B691A433B685B691A433B689B691A4338
:10031C003B68DB691A433B685B6A1A433B689B6A20
:10032C001343FA681343FB607B68FA681A603B68F6
:10033C00DA687B685A603B681A687B689A603B682D
:10034C005A687B68DA6000BF1437BD4680BC7047C2
:10035C0080B483B000AF78607B6800221A607B6841
:10036C0000225A607B6800229A607B680022DA6067
:10037C007B6800221A617B6800225A617B6800222C
:10038C009A617B680022DA617B6800221A627B68C2
:10039C0000225A627B6800229A6200BF0C37BD466D
:1003AC0080BC704780B483B000AF78600B46FB70A4
:1003BC00FB78002B06D07B681B6843F001027B683E
:1003CC001A6006E07B681A684FF6FE7313407A6871
:1003DC00136000BF0C37BD4680BC704780B485B03D
:1003EC0000AFF860B9601346FB71FB79002B06D0A7
:1003FC00FB681A68BB681A43FB681A6006E0FB6866
:10040C001A68BB68DB431A40FB681A6000BF1437DC
:10041C00BD4680BC704700BF80B483B000AF78602D
:10042C000B467B807A887B685A6000BF0C37BD46D0
:10043C0080BC704780B483B000AF78607B685B6829
:10044C009BB218460C37BD4680BC704780B485B053
:10045C0000AF78600023FB730023BB607B6803F064
:10046C008053002B03D00B4B1B68BB6002E00A4B84
:10047C001B68BB60BA687B681340002B02D0012359
:10048C00FB7301E00023FB73FB7B18461437BD465E
:10049C0080BC7047000402400000024080B483B06E
:1004AC0000AF78607B6803F08053002B03D0064AC2
:1004BC007B68536002E0054A7B68536000BF0C37D1
:1004CC00BD4680BC704700BF0004024000000240E3
:1004DC0080B485B000AF78600023FB730023BB6051
:1004EC007B6803F08053002B03D00B4B1B68BB6065
:1004FC0002E00A4B1B68BB60BA687B681340002B98
:10050C0002D00123FB7301E00023FB73FB7B184635
:10051C001437BD4680BC7047000402400000024006
:10052C0080B483B000AF78607B6803F08053002BFD
:10053C0003D0064A7B68536002E0054A7B6853602F
:10054C0000BF0C37BD4680BC704700BF00040240A2
:10055C000000024080B500AF00211048FFF722FFD9
:10056C0000F0E8FB4FF40070FFF7DAFF0B4BDB6891
:10057C000B4A934210D00A4B1946084800F072FE01
:10058C000749084800F042F80321044800F05CFEDB
:10059C0001210248FFF706FF00BF80BD300002407A
:1005AC00C0080020BC08002080B483B000AF034614
:1005BC00FB71FB79012B0DD0022B02D0002B12D03A
:1005CC001AE0104B5A78104B5A700E4B1A780E4B8F
:1005DC001A7011E00B4B9A780B4B9A70094B1A78E6
:1005EC00094B1A7008E0074B9A78074B9A70054B29
:1005FC005A78054B5A7000BF00BF0C37BD4680BC03
:10060C00704700BFBC080020C008002080B485B033
:10061C0000AF786039600023FB600AE0FB687A6801
:10062C001344FA6839680A4412781A70FB6801336B
:10063C00FB60FB68022BF1DD00BF1437BD4680BCAC
:10064C00704700BF80B586B000AFF8607A603B6041
:10065C000B467B817B89BB827B68DBB2BB753B68BD
:10066C00DBB2FB7507F114031946F86802F00EFEB5
:10067C0000BF1837BD4680BD80B588B000AFF860AC
:10068C00084611461A4603467B810B463B811346AE
:10069C00FB807B89BB823B89FB82FB883B830023ED
:1006AC007B8307F114031946F86800F081FF00BF43
:1006BC002037BD4680BD00BF80B483B000AF7860EA
:1006CC000B46FB70FB78002B08D07B681B889BB219
:1006DC0043F001039AB27B681A8007E07B681B88A1
:1006EC009BB223F001039AB27B681A8000BF0C37CF
:1006FC00BD4680BC704700BF80B483B000AF78604B
:10070C000B467B807B687A889A8500BF0C37BD4688
:10071C0080BC704780B483B000AF78607B689B8CE2
:10072C009BB218460C37BD4680BC704780B400AFF6
:10073C0000BFBD4680BC704780B400AF0123184693
:10074C00BD4680BC704700BF80B582B000AF7860FA
:10075C00396004F057FA0246162313604FF0FF334A
:10076C0018460837BD4680BD80B582B000AF7860B2
:10077C004FF0FF317868FFF7E7FFFEE790B587B0E1
:10078C0000AFF860B9607A6000237B610AE0BC6856
:10079C00631CBB60AFF300800346DBB223707B6944
:1007AC0001337B617A697B689A42F0DB7B6818467F
:1007BC001C37BD4690BD00BF80B586B000AFF86059
:1007CC00B9607A6000237B6109E0BB685A1CBA608F
:1007DC001B781846AFF300807B6901337B617A6923
:1007EC007B689A42F1DB7B6818461837BD4680BDA2
:1007FC0080B584B000AF7860114B1B68002B02D120
:10080C000F4B104A1A600E4B1B68FB600C4B1A689E
:10081C007B6813446A46934207D904F0F3F9024605
:10082C000C2313604FF0FF3306E0054B1A687B680E
:10083C001344034A1360FB6818461037BD4680BD4D
:10084C0084080020CC08002080B483B000AF78600E
:10085C004FF0FF3318460C37BD4680BC704700BFC5
:10086C0080B483B000AF786039603B684FF40052BD
:10087C005A60002318460C37BD4680BC704700BF39
:10088C0080B483B000AF7860012318460C37BD46A6
:10089C0080BC704780B485B000AFF860B9607A60F6
:1008AC00002318461437BD4680BC70470EB480B484
:1008BC0082B000AF78604FF0FF3318460837BD4662
:1008CC0080BC03B0704700BF80B582B000AF7860C9
:1008DC0004F098F902460A2313604FF0FF331846D0
:1008EC000837BD4680BD00BF80B582B000AF7860D0
:1008FC0004F088F90246022313604FF0FF331846C8
:10090C000837BD4680BD00BF80B483B000AF7860AF
:10091C004FF0FF3318460C37BD4680BC704700BF04
:10092C0080B483B000AF786039603B684FF40052FC
:10093C005A60002318460C37BD4680BC704700BF78
:10094C0080B582B000AF7860396004F05BF9024684
:10095C001F2313604FF0FF3318460837BD4680BD88
:10096C0080B500AF04F04EF902460B2313604FF034
:10097C00FF33184680BD00BF80B584B000AFF8606F
:10098C00B9607A6004F03EF902460C2313604FF014
:10099C00FF3318461037BD4680BD00BF80B500AF91
:1009AC00154A154B1B6843F0010313601249124B97
:1009BC005A68124B13404B600F4A0F4B1B6823F0C5
:1009CC00847323F4803313600B4A0B4B1B6823F4A2
:1009DC0080231360084A084B5B6823F4FE035360C2
:1009EC00054B4FF41F029A6000F078F8044B4FF05F
:1009FC0000629A6000BF80BD001002400000FFF84A
:100A0C0000ED00E080B485B000AF0023FB60002354
:100A1C00BB6000237B602C4B5B6803F00C03FB601A
:100A2C00FB68042B07D0082B09D0002B33D1274BA4
:100A3C00274A1A6033E0254B254A1A602FE0224BD7
:100A4C005B6803F47013BB601F4B5B6803F480336B
:100A5C007B60BB689B0C0233BB607B68002B06D1B0
:100A6C00BB681C4A02FB03F3184A136017E0164BD1
:100A7C005B6803F40033002B06D0BB68154A02FBFD
:100A8C0003F3124A13600AE0BB68114A02FB03F33A
:100A9C000E4A136003E00D4B0D4A1A6000BF0A4B5F
:100AAC005B6803F0F0031B090B4AD35CDBB2FB6001
:100ABC00064B1A68FB6822FA03F3044A136000BF62
:100ACC001437BD4680BC7047001002400000002067
:100ADC0000127A0000093D000400002080B500AF30
:100AEC0000F002F800BF80BD80B483B000AF0023DB
:100AFC007B6000233B603A4A394B1B6843F48033DC
:100B0C001360374B1B6803F400333B607B68013385
:100B1C007B603B68002B03D17B68B3F5A06FF0D1F1
:100B2C002F4B1B6803F40033002B02D001233B60D6
:100B3C0001E000233B603B68012B4BD1294A294B38
:100B4C001B6843F010031360264A264B1B6823F0E6
:100B5C0007031360234A234B1B6843F00203136003
:100B6C001F4A1F4B5B6853601D4A1D4B5B685360EB
:100B7C001B4A1B4B5B6843F4E0635360184A184BE9
:100B8C005B6823F47C135360154A154B5B6843F484
:100B9C00E8135360124A124B1B6843F080731360C6
:100BAC0000BF0F4B1B6803F00073002BF9D00C4AED
:100BBC000B4B5B6823F003035360094A084B5B68DB
:100BCC0043F00203536000BF054B5B6803F00C035A
:100BDC00082BF9D100BF0C37BD4680BC704700BF55
:100BEC00001002400020024080B582B000AF786057
:100BFC007B681B68002B02D0142B0CD100BF7B68C8
:100C0C001A1D7B689B691946104600F039FB7B68FE
:100C1C0014221A6000BF0837BD4680BD80B586B06F
:100C2C0000AFF860B9607A60442003F0F1FF03462E
:100C3C007B617B6980221A777B6900225A777B69FA
:100C4C0020229A777B690022DA77BA687B699A61ED
:100C5C007B6900221A607B68DAB27B6983F82020FA
:100C6C007B6900225A607B6900229A607B690022B2
:100C7C00DA60FA687B691A617B697A695A617B6907
:100C8C0018461837BD4680BD80B483B000AF78607D
:100C9C007B687A685A6100BF0C37BD4680BC7047D0
:100CAC0080B483B000AF786039603A687B68DA60F2
:100CBC0000BF0C37BD4680BC704700BF80B483B00A
:100CCC0000AF786039603A687B689A6100BF0C3776
:100CDC00BD4680BC704700BF80B483B000AF0346F4
:100CEC00FB710B46BB7113467B71FA79BB791343CD
:100CFC00DAB27B791343DBB243F01003DBB2184654
:100D0C000C37BD4680BC704780B582B000AF7860B0
:100D1C000B467B800221064803F004FD0346002BA2
:100D2C0002D07B687A889A8100BF0837BD4680BDA7
:100D3C000030014080B500AF1021044802F0D0FB18
:100D4C001021024802F0BEFB00BF80BD000801402C
:100D5C0080B483B000AF78607B681A7F7B689B7F20
:100D6C001343DAB27B68DB7F1343DBB243F010032F
:100D7C00DBB218460C37BD4680BC704780B582B0DC
:100D8C0000AFA023FB71FB799BB21946084803F016
:100D9C00DBFB00BF0221064803F0C4FC0346002B1A
:100DAC00F8D0FFF7C7FF00BF0837BD4680BD00BFB6
:100DBC000030014080B483B000AF786039607B684C
:100DCC003A689A6000BF0C37BD4680BC704700BFC4
:100DDC0080B483B000AF786039607B683A68DA60C1
:100DEC0000BF0C37BD4680BC704700BF80B485B0D7
:100DFC0000AFF860B9607A6011E0BB681A68FB68F4
:100E0C001B689B681A44BB681A60BB681A687B68CD
:100E1C009A4204D2FB681B681A68FB681A60BB68AC
:100E2C001A687B689A42E8D304E0FB681B681A686E
:100E3C00FB681A60FB681B681B689B68002BF4D06E
:100E4C0000BF1437BD4680BC704700BF80B485B06E
:100E5C0000AF78600023FB607B681B68BB60BB68DD
:100E6C009B68FA681344FB60BB681B68BB607B68BB
:100E7C001A68BB689A42F2D1FB6818461437BD4613
:100E8C0080BC704780B483B000AF786039607B68F9
:100E9C003A689A6000BF0C37BD4680BC704700BFF3
:100EAC0080B483B000AF786039607B681A683B68A7
:100EBC001A607B683A681A6000BF0C37BD4680BC6C
:100ECC00704700BF80B58AB000AF786039600023EE
:100EDC007B6200233B620023FB610023BB61002388
:100EEC00FB607B681B68002B09D13B68184603F03C
:100EFC00AFF803461946786803F0F0F880E078689C
:100F0C00FFF7A4FF78627B689A687B68DB68D31A6A
:100F1C003B627A6A3B6AD31AFB613A68FB699A4274
:100F2C000DD93A68FB69D31ABB61BB69184603F04B
:100F3C008FF803461946786803F0D0F860E03A68F9
:100F4C00FB699A4235D27B681B68BB603A683B6A86
:100F5C001A4407F10C0107F108031846FFF746FF86
:100F6C00FA6839683B6A0B44D31ABB61BB68BA6830
:100F7C009168BA698A1A9A60BB681A687B681B68A0
:100F8C009A4209D1BB69184603F062F80346194628
:100F9C00786803F0A3F833E0BB69184603F058F8FF
:100FAC007861BB681A687B691A60BB687A691A60D9
:100FBC0026E07B681B68BB603A683B6A1A4407F101
:100FCC000C0107F108031846FFF710FFBB681A68FD
:100FDC007B681B689A4208D1002003F039F803465D
:100FEC001946786803F07AF80AE0002003F030F82C
:100FFC003861BB681A683B691A60BB683A691A6049
:10100C0000BF2837BD4680BD80B588B000AF786082
:10101C0039600023FB610023BB6100237B6100234B
:10102C003B610023FB60434B1B681B68002B0AD100
:10103C0039687868FFF726FF3E4B1B6879681846BD
:10104C0003F04CF872E03B4B1B681846FFF7FEFEB2
:10105C00F861384B1B689A68364B1B68DB68D31AEF
:10106C00BB61FA69BB69D31A7B613A687B699A42A6
:10107C000ED93A687B69D31A3B6139697868FFF7F6
:10108C0001FF2C4B1B687968184603F027F84DE0DC
:10109C003A687B699A4231D2264B1B681B68BB604D
:1010AC003A68BB691A4407F10C0107F108031846AA
:1010BC00FFF79CFEFA683968BB690B44D31A3B6195
:1010CC00BB68BA6891683A698A1A9A603969786813
:1010DC00FFF7D8FEBB681A68164B1B681B689A4250
:1010EC0006D1144B1B687968184602F0F7FF1DE017
:1010FC00BB6879681846FFF7D3FE17E00D4B1B68E9
:10110C001B68BB603A68BB691A4407F10C0107F114
:10111C0008031846FFF76AFE00217868FFF7B2FE55
:10112C00044B1B687968184602F0D8FF00BF2037C3
:10113C00BD4680BDC408002080B582B000AF054B11
:10114C001B681B687B6000F007F87B681846083743
:10115C00BD4680BDC408002080B483B000AF184BDE
:10116C001B681B687B60164B1B681B681A68144B4A
:10117C001B681B689A4204D1114B1B6800221A6031
:10118C0012E00F4B1B680E4A1268126812681A6044
:10119C000B4B1B681B687A6852685A607B685B68EB
:1011AC00074A126812681A607B6800221A607B6812
:1011BC0000225A6000BF0C37BD4680BC704700BF90
:1011CC00C408002080B483B000AF78607B685B6893
:1011DC007A6812681A607B681B687A6852685A6071
:1011EC007B6800221A607B6800225A6000BF0C37B3
:1011FC00BD4680BC704700BF80B590B000AFF860B2
:10120C00B9607A603B60BB687B617B68BB613B68A3
:10121C00FB61BB6C3B62FB6CFB623B6D3B638023F5
:10122C00BB6200237B627B6D7B634FF40053BB631B
:10123C000023FB6307F114031946F868FFF74AF81B
:10124C0000BF4037BD4680BD80B483B000AF78602E
:10125C0039607B683A685A6000BF0C37BD4680BC69
:10126C00704700BF80B483B000AF786039607B6892
:10127C003A68DA6000BF0C37BD4680BC704700BFCF
:10128C00B0B582B000AF786039600E4B1C680D4B66
:10129C001B68DD684FF08040FFF73CFA03462B4497
:1012AC00A360084B1B681B68002B02D1386800F048
:1012BC000BF839687868FFF7A7FE00BF0837BD4602
:1012CC00B0BD00BFC408002080B582B000AF78600C
:1012DC007B689BB219464FF0804001F0F5FB012171
:1012EC004FF0804000F02CFD00BF0837BD4680BD9C
:1012FC0080B582B000AF00214FF0804000F020FD9F
:10130C0000214FF0804001F0D1FB1D4B1B681C4AA3
:10131C001268D1681A4A1268126892680A44DA6034
:10132C00FFF70AFF78607B68DB687A681269104601
:10133C009847134B1B681B68002B05D0104B1B6880
:10134C001B689B68002BE0D001214FF0804001F01E
:10135C0033FD0B4B1B681B68002B07D0084B1B681D
:10136C001B689B681846FFF7AFFF04E000214FF0A5
:10137C00804000F0E5FC00BF0837BD4680BD00BFD3
:10138C00C408002080B582B000AF78607B68784AD2
:10139C0093420AD101214FF4006002F061FD00215B
:1013AC004FF4006002F05CFDDEE07B68B3F1804F2F
:1013BC0008D10121012002F071FD0021012002F071
:1013CC006DFDD1E07B686B4A934208D1012102206C
:1013DC0002F064FD0021022002F060FDC4E07B6895
:1013EC00654A934208D10121042002F057FD0021E7
:1013FC00042002F053FDB7E07B68604A934208D1A9
:10140C000121082002F04AFD0021082002F046FDCF
:10141C00AAE07B685A4A934208D10121102002F0BD
:10142C003DFD0021102002F039FD9DE07B68554AFE
:10143C00934208D10121202002F030FD0021202010
:10144C0002F02CFD90E07B684F4A93420AD10121B7
:10145C004FF4005002F004FD00214FF4005002F054
:10146C00FFFC81E07B68494A93420AD101214FF489
:10147C00002002F0F5FC00214FF4002002F0F0FCFB
:10148C0072E07B68424A93420AD101214FF48010EA
:10149C0002F0E6FC00214FF4801002F0E1FC63E066
:1014AC007B683C4A93420AD101214FF4001002F0B0
:1014BC00D7FC00214FF4001002F0D2FC54E07B6802
:1014CC00354A934208D10121402002F0E7FC00216B
:1014DC00402002F0E3FC47E07B68304A934208D19D
:1014EC000121802002F0DAFC0021802002F0D6FCE1
:1014FC003AE07B682A4A93420AD101214FF480706A
:10150C0002F0CCFC00214FF4807002F0C7FC2BE001
:10151C007B68244A93420AD101214FF4803002F0B7
:10152C009FFC00214FF4803002F09AFC1CE07B6899
:10153C001D4A93420AD101214FF4003002F090FC75
:10154C0000214FF4003002F08BFC0DE07B68174A51
:10155C00934209D101214FF4802002F081FC00213B
:10156C004FF4802002F07CFC00BF0837BD4680BDE4
:10157C00002C01400004004000080040000C00401A
:10158C00001000400014004000340140004C0140A9
:10159C00005001400054014000180040001C004065
:1015AC000020004000400140004401400048014040
:1015BC0080B485B000AF786039600023FB817B6814
:1015CC001B88FB817B682E4A934213D07B682D4A83
:1015DC0093420FD07B68B3F1804F0BD07B682A4AC3
:1015EC00934207D07B68294A934203D07B68284AF0
:1015FC00934208D1FB8923F07003FB813B685A8826
:10160C00FB891343FB817B68224A93420CD07B6895
:10161C00214A934208D0FB8923F44073FB813B6839
:10162C00DA88FB891343FB817B68FA891A803B6853
:10163C009A887B689A853B681A887B681A857B68D0
:10164C000F4A93420FD07B680E4A93420BD07B68B3
:10165C00124A934207D07B68114A934203D07B68AD
:10166C00104A934204D13B681B7A9AB27B681A8663
:10167C007B6801229A8200BF1437BD4680BC70473C
:10168C00002C0140003401400004004000080040E0
:10169C00000C0040001000400014004000400140CD
:1016AC00004401400048014080B485B000AF786030
:1016BC00396000237B810023FB810023BB817B6885
:1016CC001B8C9BB223F001039AB27B681A847B6853
:1016DC001B8CFB817B689B88BB817B681B8B7B8114
:1016EC007B8923F070037B817B8923F003037B814F
:1016FC003B681A887B8913437B81FB8923F00203A7
:10170C00FB813B681A89FB891343FB813B685A8830
:10171C00FB891343FB817B68244A93420FD07B687F
:10172C00234A93420BD07B68224A934207D07B68B2
:10173C00214A934203D07B68204A934223D1FB89F0
:10174C0023F00803FB813B685A89FB891343FB8117
:10175C00FB8923F00403FB813B689A88FB891343C4
:10176C00FB81BB8923F48073BB81BB8923F4007399
:10177C00BB813B689A89BB891343BB813B68DA897F
:10178C00BB891343BB817B68BA899A807B687A8951
:10179C001A833B68DA887B689A867B68FA891A8494
:1017AC0000BF1437BD4680BC704700BF002C014001
:1017BC000034014000400140004401400048014019
:1017CC0080B485B000AF7860396000237B81002342
:1017DC00FB810023BB817B681B8C9BB223F0100325
:1017EC009AB27B681A847B681B8CFB817B689B8814
:1017FC00BB817B681B8B7B817B8923F4E0437B81E2
:10180C007B8923F440737B813B681B881B029AB253
:10181C007B8913437B81FB8923F02003FB813B688D
:10182C001B891B019AB2FB891343FB813B685B88C4
:10183C001B019AB2FB891343FB817B68224A9342BA
:10184C0003D07B68214A93422BD1FB8923F0800380
:10185C00FB813B685B891B019AB2FB891343FB81BB
:10186C00FB8923F04003FB813B689B881B019AB2E8
:10187C00FB891343FB81BB8923F48063BB81BB8948
:10188C0023F40063BB813B689B899B009AB2BB89A4
:10189C001343BB813B68DB899B009AB2BB89134322
:1018AC00BB817B68BA899A807B687A891A833B688A
:1018BC00DA887B681A877B68FA891A8400BF143728
:1018CC00BD4680BC704700BF002C01400034014075
:1018DC0080B485B000AF7860396000237B81002331
:1018EC00FB810023BB817B681B8C9BB223F4807330
:1018FC009AB27B681A847B681B8CFB817B689B8803
:10190C00BB817B689B8B7B817B8923F070037B8104
:10191C007B8923F003037B813B681A887B89134303
:10192C007B81FB8923F40073FB813B681B891B02C1
:10193C009AB2FB891343FB813B685B881B029AB20A
:10194C00FB891343FB817B68224A934203D07B685B
:10195C00214A93422BD1FB8923F40063FB813B6822
:10196C005B891B029AB2FB891343FB81FB8923F42D
:10197C008063FB813B689B881B029AB2FB891343F3
:10198C00FB81BB8923F48053BB81BB8923F40053B7
:10199C00BB813B689B891B019AB2BB891343BB81FA
:1019AC003B68DB891B019AB2BB891343BB817B6803
:1019BC00BA899A807B687A899A833B68DA887B68D3
:1019CC009A877B68FA891A8400BF1437BD4680BC9D
:1019DC00704700BF002C01400034014080B485B03A
:1019EC0000AF786039600023BB8100237B8100232A
:1019FC00FB817B681B8C9BB223F480539AB27B686F
:101A0C001A847B681B8C7B817B689B88FB817B6841
:101A1C009B8BBB81BB8923F4E043BB81BB8923F443
:101A2C004073BB813B681B881B029AB2BB89134372
:101A3C00BB817B8923F400537B813B681B891B038F
:101A4C009AB27B8913437B813B685B881B039AB2F8
:101A5C007B8913437B817B68124A934203D07B685A
:101A6C00114A93420AD1FB8923F48043FB813B68E2
:101A7C009B899B019AB2FB891343FB817B68FA8992
:101A8C009A807B68BA899A833B68DA887B68A3F86A
:101A9C0040207B687A891A8400BF1437BD4680BC0D
:101AAC00704700BF002C01400034014080B582B06B
:101ABC0000AF786039603B681B88002B0FD13B6806
:101ACC0059883B689A883B681B89786801F084F9CF
:101ADC003B68DB881946786801F03EF836E03B68D5
:101AEC001B88042B0FD13B6859883B689A883B684C
:101AFC001B89786801F0E0F93B68DB881946786847
:101B0C0001F046F822E03B681B88082B0FD13B689C
:101B1C0059883B689A883B681B89786801F046FABB
:101B2C003B68DB881946786801F050F80EE03B689A
:101B3C0059883B689A883B681B89786801F0ACFA35
:101B4C003B68DB881946786801F05CF800BF083701
:101B5C00BD4680BD80B584B000AF7860396000238D
:101B6C00FB810123BB813B685B88002B02D10223E4
:101B7C00FB8101E00023FB813B689B88012B02D198
:101B8C000223BB8101E00123BB813B681B88002B36
:101B9C001CD13B6859883B689A883B681B897868DC
:101BAC0001F01AF93B68DB881946786800F0D4FF1D
:101BBC003B681B89BA89F989786801F07DF93B6823
:101BCC00DB881946786800F0E3FF1BE03B68598816
:101BDC003B689A883B681B89786801F06DF93B6813
:101BEC00DB881946786800F0D3FF3B681B89BA89FB
:101BFC00F989786801F0F0F83B68DB881946786859
:101C0C0000F0AAFF00BF1037BD4680BD80B483B082
:101C1C0000AF786039603B681A883B685B88134377
:101C2C009AB23B689B8813439AB23B68DB88134398
:101C3C009AB23B681B8913439AB23B685B89134386
:101C4C009AB23B689B8913439AB27B68A3F84420F1
:101C5C0000BF0C37BD4680BC704700BF80B483B05A
:101C6C0000AF78607B684FF6FF729A807B68002229
:101C7C001A807B680022DA807B6800225A807B689D
:101C8C0000221A7200BF0C37BD4680BC704700BFE3
:101C9C0080B483B000AF78607B6800221A807B68C8
:101CAC0000225A807B6800229A807B680022DA80AE
:101CBC007B6800221A817B6800225A817B68002293
:101CCC009A817B680022DA8100BF0C37BD4680BC4C
:101CDC00704700BF80B483B000AF78607B6800228F
:101CEC001A807B6800225A807B6801229A807B686C
:101CFC000022DA807B6800221A8100BF0C37BD46B7
:101D0C0080BC704780B483B000AF78607B680022E1
:101D1C001A807B6800225A807B6800229A807B683C
:101D2C000022DA807B6800221A817B6800225A81AB
:101D3C007B6800229A8100BF0C37BD4680BC70477F
:101D4C0080B483B000AF78600B46FB70FB78002B3F
:101D5C0008D07B681B889BB243F001039AB27B6866
:101D6C001A8007E07B681B889BB223F001039AB2B0
:101D7C007B681A8000BF0C37BD4680BC704700BF23
:101D8C0080B483B000AF78600B46FB70FB78002BFF
:101D9C000CD07B68B3F844309BB26FEA43436FEAD4
:101DAC0053439AB27B68A3F8442009E07B68B3F8EC
:101DBC0044309BB2C3F30E039AB27B68A3F8442061
:101DCC0000BF0C37BD4680BC704700BF80B483B0E9
:101DDC0000AF78600B467B8013467B707B78002BC2
:101DEC0008D07B689B899AB27B8813439AB27B6834
:101DFC009A8109E07B689B899AB27B88DB439BB212
:101E0C0013409AB27B689A8100BF0C37BD4680BCE8
:101E1C00704700BF80B483B000AF78600B467B8006
:101E2C007B687A889A8200BF0C37BD4680BC7047AD
:101E3C0080B483B000AF78600B467B8013463B8048
:101E4C007A883B8813439AB27B68A3F8482000BF7A
:101E5C000C37BD4680BC704780B483B000AF78604F
:101E6C000B467B8013467B707B78002B08D07B68FD
:101E7C009B899AB27B8813439AB27B689A8109E05A
:101E8C007B689B899AB27B88DB439BB213409AB2E6
:101E9C007B689A8100BF0C37BD4680BC704700BF81
:101EAC0080B483B000AF78607B681B899BB223F051
:101EBC0007039AB27B681A8100BF0C37BD4680BC01
:101ECC00704700BF80B582B000AF78600B467B8056
:101EDC007B881946786800F0E5F87B681B899BB213
:101EEC0043F007039AB27B681A8100BF0837BD46DE
:101EFC0080BD00BF80B584B000AFF86008461146C5
:101F0C001A4603467B810B463B811346FB807B893B
:101F1C00602B06D1FB8839890122F86800F0CCFFD0
:101F2C0005E0FB8839890122F86800F055FF7B89B0
:101F3C001946F86800F0B6F8FB681B899BB243F0B1
:101F4C0007039AB2FB681A8100BF1037BD4680BDEB
:101F5C0080B586B000AFF860084611461A460346B5
:101F6C007B810B463B811346FB800023FB82FB8865
:101F7C003A897989F86800F03BF8FB681B89FB8289
:101F8C00FB8A23F00703FB82FB8A43F00703FB82E7
:101F9C00FB8A23F07003FB82FB8A43F07003FB8205
:101FAC00FB68FA8A1A8100BF1837BD4680BD00BF96
:101FBC0080B584B000AFF860084611461A46034657
:101FCC007B810B463B811346FB80FB883A897989E0
:101FDC00F86800F00DF8FB681B899BB243F4804352
:101FEC009AB2FB681A8100BF1037BD4680BD00BF96
:101FFC0080B487B000AFF860084611461A46034615
:10200C007B810B463B811346FB800023FB82FB68E4
:10201C001B89FB82FB8ADBB2FB82FB881B029AB218
:10202C003B8913439AB27B8913439AB2FB8A1343BD
:10203C00FB82FB68FA8A1A8100BF1C37BD4680BC44
:10204C00704700BF80B483B000AF78600B467B80D4
:10205C0013463B807B687A881A857B683A889A821B
:10206C0000BF0C37BD4680BC704700BF80B485B044
:10207C0000AF78600B467B800023FB817B681B885C
:10208C00FB81FB8923F07003FB81FA897B88134366
:10209C00FB817B68FA891A8000BF1437BD4680BC6F
:1020AC00704700BF80B485B000AF78600B467B8072
:1020BC000023FB817B681B89FB81FB8923F0700368
:1020CC00FB81FA897B881343FB817B68FA891A812F
:1020DC0000BF1437BD4680BC704700BF80B487B0CA
:1020EC0000AFF860084611461A4603467B810B4642
:1020FC003B811346FB800023FB820023BB82002321
:10210C007B82FB681B89FB82FB681B8BBB82FB6899
:10211C001B8C7B82FB8A23F00703FB82FA8A7B8968
:10212C001343FB82BB8A23F4407323F00303BB826B
:10213C00BB8A43F4807343F00103BB827B8A23F098
:10214C0022037B82FB881B019AB23B8913439AB210
:10215C007B8A13437B82FB68FA8A1A81FB68BA8AF2
:10216C001A83FB687A8A1A8400BF1C37BD4680BC70
:10217C00704700BF80B485B000AF78600B467B80A1
:10218C000023FB817B681B8BFB81FB8923F0700395
:10219C00FB81FA897B881343FB817B68FA891A835C
:1021AC0000BF1437BD4680BC704700BF80B485B0FB
:1021BC0000AF78600B467B800023FB817B681B8B18
:1021CC00FB81FB8923F4E043FB817B881B029AB2E1
:1021DC00FB891343FB817B68FA891A8300BF143790
:1021EC00BD4680BC704700BF80B485B000AF78603E
:1021FC000B467B800023FB817B689B8BFB81FB89DF
:10220C0023F07003FB81FA897B881343FB817B6885
:10221C00FA899A8300BF1437BD4680BC704700BF53
:10222C0080B485B000AF78600B467B800023FB81C7
:10223C007B689B8BFB81FB8923F4E043FB817B88D0
:10224C001B029AB2FB891343FB817B68FA899A8340
:10225C0000BF1437BD4680BC704700BF80B483B04C
:10226C0000AF78600B46FB70FB78002B08D07B68C6
:10227C001B889BB243F080039AB27B681A8007E0FC
:10228C007B681B889BB223F080039AB27B681A8010
:10229C0000BF0C37BD4680BC704700BF80B483B014
:1022AC0000AF78600B46FB70FB78002B08D07B6886
:1022BC009B889BB243F004039AB27B689A8007E038
:1022CC007B689B889BB223F004039AB27B689A804C
:1022DC0000BF0C37BD4680BC704700BF80B483B0D4
:1022EC0000AF78600B46FB70FB78002B08D07B6846
:1022FC009B889BB243F008039AB27B689A8007E0F4
:10230C007B689B889BB223F008039AB27B689A8007
:10231C0000BF0C37BD4680BC704700BF80B483B093
:10232C0000AF78600B46FB70FB78002B08D07B6805
:10233C009B889BB243F001039AB27B689A8007E0BA
:10234C007B689B889BB223F001039AB27B689A80CE
:10235C0000BF0C37BD4680BC704700BF80B485B051
:10236C0000AF78600B467B800023FB817B681B8B66
:10237C00FB81FB8923F00803FB81FA897B881343DB
:10238C00FB817B68FA891A8300BF1437BD4680BC79
:10239C00704700BF80B485B000AF78600B467B807F
:1023AC000023FB817B681B8BFB81FB8923F400637F
:1023BC00FB817B881B029AB2FB891343FB817B68F0
:1023CC00FA891A8300BF1437BD4680BC704700BF22
:1023DC0080B485B000AF78600B467B800023FB8116
:1023EC007B689B8BFB81FB8923F00803FB81FA89BB
:1023FC007B881343FB817B68FA899A8300BF14376F
:10240C00BD4680BC704700BF80B485B000AF78601B
:10241C000B467B800023FB817B689B8BFB81FB89BC
:10242C0023F40063FB817B881B029AB2FB89134364
:10243C00FB817B68FA899A8300BF1437BD4680BC48
:10244C00704700BF80B485B000AF78600B467B80CE
:10245C000023FB817B681B8BFB81FB8923F004032E
:10246C00FB81FA897B881343FB817B68FA891A8389
:10247C0000BF1437BD4680BC704700BF80B485B028
:10248C0000AF78600B467B800023FB817B681B8B45
:10249C00FB81FB8923F48063FB817B881B029AB24E
:1024AC00FB891343FB817B68FA891A8300BF1437BD
:1024BC00BD4680BC704700BF80B485B000AF78606B
:1024CC000B467B800023FB817B689B8BFB81FB890C
:1024DC0023F00403FB81FA897B881343FB817B681F
:1024EC00FA899A8300BF1437BD4680BC704700BF81
:1024FC0080B485B000AF78600B467B800023FB81F5
:10250C007B689B8BFB81FB8923F48063FB817B883D
:10251C001B029AB2FB891343FB817B68FA899A836D
:10252C0000BF1437BD4680BC704700BF80B485B077
:10253C0000AF78600B467B800023FB817B681B8B94
:10254C00FB81FB8923F08003FB81FA897B88134391
:10255C00FB817B68FA891A8300BF1437BD4680BCA7
:10256C00704700BF80B485B000AF78600B467B80AD
:10257C000023FB817B681B8BFB81FB89C3F30E0360
:10258C00FB817B881B029AB2FB891343FB817B681E
:10259C00FA891A8300BF1437BD4680BC704700BF50
:1025AC0080B485B000AF78600B467B800023FB8144
:1025BC007B689B8BFB81FB8923F08003FB81FA8971
:1025CC007B881343FB817B68FA899A8300BF14379D
:1025DC00BD4680BC704700BF80B485B000AF78604A
:1025EC000B467B800023FB817B689B8BFB81FB89EB
:1025FC00C3F30E03FB817B881B029AB2FB89134346
:10260C00FB817B68FA899A8300BF1437BD4680BC76
:10261C00704700BF80B485B000AF78600B467B80FC
:10262C000023FB817B681B8CFB81FB8923F002035D
:10263C00FB81FA897B881343FB817B68FA891A84B6
:10264C0000BF1437BD4680BC704700BF80B485B056
:10265C0000AF78600B467B800023FB817B681B8C72
:10266C00FB81FB8923F00803FB81FA897B881343E8
:10267C00FB817B68FA891A8400BF1437BD4680BC85
:10268C00704700BF80B485B000AF78600B467B808C
:10269C000023FB817B681B8CFB81FB8923F02003CF
:1026AC00FB817B881B019AB2FB891343FB817B68FE
:1026BC00FA891A8400BF1437BD4680BC704700BF2E
:1026CC0080B485B000AF78600B467B800023FB8123
:1026DC007B681B8CFB81FB8923F08003FB817B884F
:1026EC001B019AB2FB891343FB817B68FA891A841C
:1026FC0000BF1437BD4680BC704700BF80B485B0A6
:10270C0000AF78600B467B800023FB817B681B8CC1
:10271C00FB81FB8923F40073FB817B881B029AB23B
:10272C00FB891343FB817B68FA891A8400BF143739
:10273C00BD4680BC704700BF80B485B000AF7860E8
:10274C000B467B800023FB817B681B8CFB81FB8908
:10275C0023F40063FB817B881B029AB2FB89134331
:10276C00FB817B68FA891A8400BF1437BD4680BC94
:10277C00704700BF80B485B000AF78600B467B809B
:10278C000023FB817B681B8CFB81FB8923F40053AA
:10279C00FB817B881B039AB2FB891343FB817B680B
:1027AC00FA891A8400BF1437BD4680BC704700BF3D
:1027BC0080B485B000AF78600B467B8013463B80BD
:1027CC000023FB817B88012202FA03F3FB817B68E7
:1027DC001B8C9AB2FB89DB439BB213409AB27B6889
:1027EC001A847B681B8C9BB21AB239887B8801FADD
:1027FC0003F31BB213431BB29AB27B681A8400BF5B
:10280C001437BD4680BC704780B485B000AF78608B
:10281C000B467B8013463B800023FB817B88042284
:10282C0002FA03F3FB817B681B8C9AB2FB89DB43B6
:10283C009BB213409AB27B681A847B681B8C9BB248
:10284C001AB239887B8801FA03F31BB213431BB20B
:10285C009AB27B681A8400BF1437BD4680BC70479F
:10286C0080B485B000AF78600B467B8013463B800C
:10287C000023FB6000237B817B68FB60FB681833C3
:10288C00FB607B88012202FA03F37B817B681B8C43
:10289C009AB27B89DB439BB213409AB27B681A8451
:1028AC007B88002B02D07B88082B13D17B885B089C
:1028BC009BB21A46FB681344FB60FB68FA6812680B
:1028CC0022F070021A60FB68FA6811683A880A43B1
:1028DC001A6016E07B88043B9BB25B089BB21A46DD
:1028EC00FB681344FB60FB68FA68126822F4E04250
:1028FC001A60FB68FA6812683988090289B20A43BF
:10290C001A6000BF1437BD4680BC704780B483B0DA
:10291C0000AF78600B46FB70FB78002B08D07B680F
:10292C001B889BB243F002039AB27B681A8007E0C3
:10293C007B681B889BB223F002039AB27B681A80D7
:10294C0000BF0C37BD4680BC704700BF80B483B05D
:10295C0000AF78600B467B807B88002B08D07B68AF
:10296C001B889BB243F004039AB27B681A8007E081
:10297C007B681B889BB223F004039AB27B681A8095
:10298C0000BF0C37BD4680BC704700BF80B483B01D
:10299C0000AF78600B46FB70FB78002B08D07B688F
:1029AC009B889BB243F080039AB27B689A8007E0C5
:1029BC007B689B889BB223F080039AB27B689A80D9
:1029CC0000BF0C37BD4680BC704700BF80B483B0DD
:1029DC0000AF78600B467B807B681B889BB223F032
:1029EC0008039AB27B681A807B681B889AB27B8832
:1029FC0013439AB27B681A8000BF0C37BD4680BC6B
:102A0C00704700BF80B483B000AF78600B467B800A
:102A1C007B689B889BB223F070039AB27B689A8088
:102A2C007B689B889AB27B8813439AB27B689A80A6
:102A3C0000BF0C37BD4680BC704700BF80B483B06C
:102A4C0000AF78600B467B807B681B899BB223F0C0
:102A5C0007039AB27B681A817B681B899AB27B88C0
:102A6C0013439AB27B681A8100BF0C37BD4680BCF9
:102A7C00704700BF80B483B000AF78600B467B809A
:102A8C007B681B899BB223F080039AB27B681A8106
:102A9C007B681B899AB27B8813439AB27B681A8134
:102AAC0000BF0C37BD4680BC704700BF80B483B0FC
:102ABC0000AF78600B467B807B687A889A8400BF75
:102ACC000C37BD4680BC704780B483B000AF7860D3
:102ADC000B467B807B687A889A8500BF0C37BD4695
:102AEC0080BC704780B483B000AF78600B467B80AD
:102AFC007B687A889A8600BF0C37BD4680BC7047CD
:102B0C0080B483B000AF78600B467B807B687A889A
:102B1C001A8700BF0C37BD4680BC704780B483B0A9
:102B2C0000AF78600B467B807B687A889A8700BF01
:102B3C000C37BD4680BC704780B483B000AF786062
:102B4C000B467B807B687A88A3F8402000BF0C374B
:102B5C00BD4680BC704700BF80B483B000AF7860C6
:102B6C000B467B807B681B8B9BB223F00C039AB2C9
:102B7C007B681A837B681B8B9AB27B8813439AB24F
:102B8C007B681A8300BF0C37BD4680BC704700BF02
:102B9C0080B483B000AF78600B467B807B681B8B66
:102BAC009BB223F440639AB27B681A837B681B8BBD
:102BBC009AB27B881B029BB213439AB27B681A832E
:102BCC0000BF0C37BD4680BC704700BF80B483B0DB
:102BDC0000AF78600B467B807B689B8B9BB223F0AD
:102BEC000C039AB27B689A837B689B8B9AB27B8826
:102BFC0013439AB27B689A8300BF0C37BD4680BCE6
:102C0C00704700BF80B483B000AF78600B467B8008
:102C1C007B689B8B9BB223F440639AB27B689A834C
:102C2C007B689B8B9AB27B881B029BB213439AB234
:102C3C007B689A8300BF0C37BD4680BC704700BFD1
:102C4C0080B483B000AF78600B467B807B681B88B8
:102C5C009BB223F440739AB27B681A807B681B8802
:102C6C009AB27B8813439AB27B681A8000BF0C37E8
:102C7C00BD4680BC704700BF80B483B000AF7860A5
:102C8C007B689B8E9BB218460C37BD4680BC704748
:102C9C0080B483B000AF78607B681B8F9BB2184602
:102CAC000C37BD4680BC704780B483B000AF7860F1
:102CBC007B689B8F9BB218460C37BD4680BC704717
:102CCC0080B483B000AF78607B68B3F840309BB2BF
:102CDC0018460C37BD4680BC704700BF80B483B02B
:102CEC0000AF78607B689B8C9BB218460C37BD4656
:102CFC0080BC704780B483B000AF78607B681B8D5C
:102D0C009BB218460C37BD4680BC704780B485B06A
:102D1C0000AF78600B467B800023FB737B681B8ABB
:102D2C009AB27B8813409BB2002B02D00123FB7319
:102D3C0001E00023FB73FB7B18461437BD4680BCB7
:102D4C00704700BF80B483B000AF78600B467B80C7
:102D5C007B88DB439AB27B681A8200BF0C37BD4676
:102D6C0080BC704780B485B000AF78600B467B8028
:102D7C000023FB730023BB8100237B817B681B8AB0
:102D8C009AB27B881340BB817B689B899AB27B8803
:102D9C0013407B81BB89002B05D07B89002B02D093
:102DAC000123FB7301E00023FB73FB7B18461437F4
:102DBC00BD4680BC704700BF80B483B000AF786064
:102DCC000B467B807B88DB439AB27B681A8200BF00
:102DDC000C37BD4680BC704780B487B000AFF8603C
:102DEC00084611461A4603467B810B463B81134627
:102DFC00FB800023BB820023FB82FB681B8C9BB2F5
:102E0C0023F001039AB2FB681A84FB681B8BBB820C
:102E1C00FB681B8CFB82BB8A23F0F303BB82FB8811
:102E2C001B019AB23B8913439AB2BB8A1343BB82F0
:102E3C00FB681C4A934213D0FB681B4A93420FD089
:102E4C00FB68B3F1804F0BD0FB68184A934207D054
:102E5C00FB68174A934203D0FB68164A93420BD186
:102E6C00FB8A23F00203FB827A89FB8A13439BB211
:102E7C0043F00103FB820AE0FB8A23F00A03FB8286
:102E8C007A89FB8A13439BB243F00103FB82FB68F4
:102E9C00BA8A1A83FB68FA8A1A8400BF1C37BD46AB
:102EAC0080BC7047002C01400034014000040040FD
:102EBC0000080040000C004080B487B000AFF86000
:102ECC00084611461A4603467B810B463B81134646
:102EDC00FB800023BB820023FB8200237B82FB68E8
:102EEC001B8C9BB223F010039AB2FB681A84FB680C
:102EFC001B8BBB82FB681B8CFB827B891B017B823F
:102F0C00BB8A23F440731B051B0DBB82FB881B0380
:102F1C009AB2BB8A1343BB823B891B029AB2BB8A0F
:102F2C001343BB82FB681C4A934213D0FB681B4AB9
:102F3C0093420FD0FB68B3F1804F0BD0FB68184A5B
:102F4C00934207D0FB68174A934203D0FB68164A9A
:102F5C0093420BD1FB8A23F02003FB827A8AFB8AF3
:102F6C0013439BB243F01003FB820AE0FB8A23F06D
:102F7C00A003FB827A89FB8A13439BB243F01003B4
:102F8C00FB82FB68BA8A1A83FB68FA8A1A8400BF30
:102F9C001C37BD4680BC7047002C014000340140FA
:102FAC000004004000080040000C004080B487B0D2
:102FBC0000AFF860084611461A4603467B810B4663
:102FCC003B811346FB800023BB820023FB82002342
:102FDC007B82FB681B8C9BB223F480739AB2FB68D8
:102FEC001A84FB689B8BBB82FB681B8CFB827B89E6
:102FFC001B027B82BB8A23F0F303BB82FB881B0181
:10300C009AB23B8913439AB2BB8A1343BB82FB68C7
:10301C001C4A934213D0FB681B4A93420FD0FB68A7
:10302C00B3F1804F0BD0FB68184A934207D0FB6872
:10303C00174A934203D0FB68164A93420BD1FB8A82
:10304C0023F40073FB827A8AFB8A13439BB243F40A
:10305C008073FB820AE0FB8A23F42063FB827A896B
:10306C00FB8A13439BB243F48073FB82FB68BA8ADE
:10307C009A83FB68FA8A1A8400BF1C37BD4680BC51
:10308C00704700BF002C0140003401400004004098
:10309C0000080040000C004080B487B000AFF8601E
:1030AC00084611461A4603467B810B463B81134664
:1030BC00FB800023BB820023FB8200237B82FB6806
:1030CC001B8C9BB223F480539AB2FB681A84FB6866
:1030DC009B8BBB82FB681B8CFB827B891B037B82DB
:1030EC00BB8A23F440731B051B0DBB823B891B025F
:1030FC009AB2BB8A1343BB82FB881B039AB2BB8A6E
:10310C001343BB82FB681D4A934213D0FB681C4AD5
:10311C0093420FD0FB68B3F1804F0BD0FB68194A78
:10312C00934207D0FB68184A934203D0FB68174AB6
:10313C0093420BD1FB8A23F40053FB827A8AFB8ADD
:10314C0013439BB243F48053FB820CE0FB8A23F4C1
:10315C0000735B045B0CFB827A89FB8A13439BB282
:10316C0043F48053FB82FB68BA8A9A83FB68FA8A21
:10317C001A8400BF1C37BD4680BC7047002C014030
:10318C00003401400004004000080040000C0040E6
:10319C0080B582B000AF78607B682F4A934208D12B
:1031AC000121042000F05CFE0021042000F058FEF8
:1031BC004EE07B68294A934208D10121082000F097
:1031CC004FFE0021082000F04BFE41E07B68244AB2
:1031DC00934208D10121102000F042FE0021102062
:1031EC0000F03EFE34E07B681E4A934208D1012178
:1031FC00202000F035FE0021202000F031FE27E0D9
:10320C007B68194A934208D10121402000F028FE26
:10321C000021402000F024FE1AE07B68134A934200
:10322C0008D10121802000F01BFE0021802000F03D
:10323C0017FE0DE07B680E4A934209D101214FF431
:10324C00807000F00DFE00214FF4807000F008FE3D
:10325C0000BF0837BD4680BD00080140000C01408E
:10326C00001001400014014000180140001C0140F6
:10327C000020014080B500AF0121012000F0F0FDDD
:10328C000021012000F0ECFD00BF80BD80B489B0AE
:10329C0000AF786039600023FB6100233B610023A1
:1032AC00BB610023FB6000237B610023BB603B6898
:1032BC00DB7803F00F03FB613B68DB7803F0100352
:1032CC00002B05D03B689B781A46FB691343FB61C6
:1032DC003B681B88DBB2002B44D07B681B687B618E
:1032EC000023BB6138E00122BB6902FA03F3FB60E7
:1032FC003B681B881A46FB6813403B613A69FB68C4
:10330C009A4226D1BB699B00FB600F22FB6802FA34
:10331C0003F3BB60BB68DB437A6913407B61FA69DA
:10332C00FB6802FA03F37A6913437B613B68DB7831
:10333C00282B05D10122BB699A407B685A6108E0B1
:10334C003B68DB78482B04D10122BB699A407B682F
:10335C001A61BB690133BB61BB69072BC3D97B689D
:10336C007A691A603B681B88FF2B46D97B685B68BF
:10337C007B610023BB613AE0BB690833012202FA8E
:10338C0003F3FB603B681B881A46FB6813403B61E8
:10339C003A69FB689A4227D1BB699B00FB600F22FC
:1033AC00FB6802FA03F3BB60BB68DB437A6913402A
:1033BC007B61FA69FB6802FA03F37A6913437B6158
:1033CC003B68DB78282B05D1BB69083301229A4076
:1033DC007B685A613B68DB78482B05D1BB690833A5
:1033EC0001229A407B681A61BB690133BB61BB69DE
:1033FC00072BC1D97B687A695A6000BF2437BD4658
:10340C0080BC704780B483B000AF78607B684FF6A7
:10341C00FF721A807B6802229A707B680422DA7031
:10342C0000BF0C37BD4680BC704700BF80B485B070
:10343C0000AF78600B467B800023FB737B689A6837
:10344C007B881340002B02D00123FB7301E0002387
:10345C00FB73FB7B18461437BD4680BC704700BF1E
:10346C0080B483B000AF78607B689B689BB21846D1
:10347C000C37BD4680BC704780B485B000AF786017
:10348C000B467B800023FB737B68DA687B881340D8
:10349C00002B02D00123FB7301E00023FB73FB7BA9
:1034AC0018461437BD4680BC704700BF80B483B04B
:1034BC0000AF78607B68DB689BB218460C37BD4662
:1034CC0080BC704780B483B000AF78600B467B80C3
:1034DC007A887B681A6100BF0C37BD4680BC704788
:1034EC0080B483B000AF78600B467B807A887B68B1
:1034FC005A6100BF0C37BD4680BC704780B483B0A6
:10350C0000AF78600B467B8013467B707B78002B7A
:10351C0003D07A887B681A6102E07A887B685A61EA
:10352C0000BF0C37BD4680BC704700BF80B483B071
:10353C0000AF78600B467B807A887B68DA6000BFCE
:10354C000C37BD4680BC704780B485B000AF786046
:10355C000B467B804FF48033FB607B88FA68134307
:10356C00FB607B68FA689A617A887B689A617B68F1
:10357C00FA689A617B689B69FB607B689B69FB605E
:10358C0000BF1437BD4680BC704700BF80B485B007
:10359C0000AF03460A46FB711346BB710023FB6068
:1035AC000C4B1B68FB60FA684FF680731340FB6092
:1035BC00FB791B01FA681343FB60BB79FA68134370
:1035CC00FB60044AFB68136000BF1437BD4680BC27
:1035DC00704700BF0000014080B483B000AF0346C9
:1035EC00FB71044AFB79136000BF0C37BD4680BCED
:1035FC00704700BF1C00204280B487B000AF7860D9
:10360C000B46FB7000233B610023FB6000237B61B6
:10361C000023BB607B68002B03DA2E4BDB697B61DC
:10362C0002E02C4B5B687B617B681B0C03F00F0387
:10363C00BB607B689BB23B617B6803F44013B3F5C2
:10364C00401F0AD17B6923F070637B61214A214BB7
:10365C005B6823F07063536021E07B6803F4801394
:10366C00002B0ED00322BB6802FA03F3FB60FB684D
:10367C00DB437A6913407B617B6943F070637B6148
:10368C000DE07B685B0D1B013A6902FA03F3DB4327
:10369C007A6913407B617B6943F070637B61FB78D3
:1036AC00002B08D07B685B0D1B013A6902FA03F30F
:1036BC007A6913437B617B68002B03DA054A7B69CB
:1036CC00D36102E0034A7B69536000BF1C37BD46DF
:1036DC0080BC70470000014090B484B000AF03463A
:1036EC000A46FB711346BB710023FB60BB7903F0E8
:1036FC0003039B000F2202FA03F3FB601649BB790C
:10370C009B08DBB21846144ABB799B08DBB2023328
:10371C0052F82320FB68DB431A40831C41F823201A
:10372C000D48BB799B08DBB21C460B4ABB799B0846
:10373C00DBB2023352F82320F979BB7903F003038F
:10374C009B0001FA03F31A43A31C40F8232000BF8B
:10375C001037BD4690BC70470000014080B483B068
:10376C0000AF7860034A7B68136000BF0C37BD461E
:10377C0080BC7047DC00204280B483B000AF78601E
:10378C000B46FB70FB78002B08D07B681B889BB228
:10379C0043F040039AB27B681A8007E07B681B8871
:1037AC009BB223F040039AB27B681A8000BF0C379F
:1037BC00BD4680BC704700BF80B58AB000AFF860D2
:1037CC00084611461A4603467B810B463B8113463D
:1037DC00FB807B89FB823B893B83FB883B843B8E54
:1037EC007B84BB8E032B1FD801A252F823F000BFA1
:1037FC000D38000817380008213800082B3800084D
:10380C0000237B830023BB830FE000237B830123F6
:10381C00BB830AE002237B830023BB8305E00223E6
:10382C007B830123BB8300E000BF0023BB8200230A
:10383C00FB830723BB8407F114031946F86800F0D7
:10384C00B7FC00BF2837BD4680BD00BF80B400AFB9
:10385C00134A134B1B6843F0010313601049104BC0
:10386C005A68104B13404B600D4A0D4B1B6823F0EC
:10387C00847323F480331360094A094B1B6823F4C7
:10388C0080231360064A064B5B6823F4FE035360E7
:10389C00034B4FF41F029A6000BFBD4680BC7047BB
:1038AC00001002400000FFF880B483B000AF7860D5
:1038BC00134A134B1B6823F480331360104A104BCC
:1038CC001B6823F4802313607B68B3F5803F03D01F
:1038DC00B3F5802F07D00DE0094A094B1B6843F460
:1038EC008033136006E0064A054B1B6843F4A023A3
:1038FC00136000BF00BF0C37BD4680BC704700BFD3
:10390C000010024080B582B000AF00233B60002362
:10391C00FB710023BB71312000F00EFB0346BB7121
:10392C003B6801333B603B68B3F5A06F02D0BB79B9
:10393C00002BF0D0312000F0FFFA0346002B02D010
:10394C000123FB7101E00023FB71FB79184608375A
:10395C00BD4680BD80B485B000AF0346FB7100232B
:10396C00FB600A4B1B68FB60FB6823F0F803FB60F1
:10397C00FB79DB00FA681343FB60044AFB681360B5
:10398C0000BF1437BD4680BC704700BF001002401A
:10399C0080B483B000AF0346FB71044AFB7913601B
:1039AC0000BF0C37BD4680BC704700BF00004242D0
:1039BC0080B485B000AF786039600023FB600A4B9F
:1039CC005B68FB60FB6823F47C13FB607A683B68E4
:1039DC001343FA681343FB60034AFB68536000BF50
:1039EC001437BD4680BC70470010024080B483B0D1
:1039FC0000AF0346FB71044AFB79136000BF0C3720
:103A0C00BD4680BC704700BF6000424280B485B0A8
:103A1C0000AF78600023FB60094B5B68FB60FB68C0
:103A2C0023F00303FB60FA687B681343FB60044AD2
:103A3C00FB68536000BF1437BD4680BC704700BFA5
:103A4C000010024080B400AF044B5B68DBB203F0A3
:103A5C000C03DBB21846BD4680BC70470010024018
:103A6C0080B485B000AF78600023FB60094B5B68C5
:103A7C00FB60FB6823F0F003FB60FA687B68134380
:103A8C00FB60044AFB68536000BF1437BD4680BC22
:103A9C00704700BF0010024080B485B000AF786062
:103AAC000023FB60094B5B68FB60FB6823F4E0635D
:103ABC00FB60FA687B681343FB60044AFB68536045
:103ACC0000BF1437BD4680BC704700BF00100240D9
:103ADC0080B485B000AF78600023FB60094B5B6855
:103AEC00FB60FB6823F46053FB607B68DB00FA68C7
:103AFC001343FB60034AFB68536000BF1437BD4699
:103B0C0080BC70470010024080B483B000AF034605
:103B1C000A46FB711346BB71BB79002B08D00C49CC
:103B2C000B4B1B78DAB2FB791343DBB20B7009E059
:103B3C000749074B1B78DAB2FB79DB43DBB2134046
:103B4C00DBB20B7000BF0C37BD4680BC704700BFAA
:103B5C000910024080B483B000AF7860034A7B68E0
:103B6C00136000BF0C37BD4680BC7047D800424282
:103B7C0080B485B000AF78600023FB60094B5B68B4
:103B8C00FB60FB6823F44043FB60FA687B681343DB
:103B9C00FB60044AFB68536000BF1437BD4680BC11
:103BAC00704700BF0010024080B483B000AF0346E2
:103BBC00FB710C4B00221A700A4B00221A70FB7915
:103BCC00012B02D0042B04D007E0064B01221A7003
:103BDC0003E0044B05221A7000BF00BF0C37BD4632
:103BEC0080BC70472010024080B483B000AF034605
:103BFC00FB71044AFB79136000BF0C37BD4680BCD7
:103C0C00704700BF8004424280B483B000AF78603C
:103C1C000549054B1A6A7B6813430B6200BF0C37CE
:103C2C00BD4680BC704700BF0010024080B483B01A
:103C3C0000AF0346FB71044AFB79136000BF0C37DD
:103C4C00BD4680BC704700BF3C04424280B487B084
:103C5C0000AF786000237B6100233B610023FB6095
:103C6C000023BB604C4B5B6803F00C037B617B69EE
:103C7C00042B07D0082B09D0002B33D17B68474A83
:103C8C001A6033E07B68454A1A602FE0424B5B6850
:103C9C0003F470133B61404B5B6803F48033FB60AF
:103CAC003B699B0C02333B61FB68002B06D13B69E3
:103CBC003B4A02FB03F27B681A6017E0364B5B68E9
:103CCC0003F40033002B06D03B69354A02FB03F2A8
:103CDC007B681A600AE03B69304A02FB03F27B689E
:103CEC001A6003E07B682D4A1A6000BF2A4B5B68A0
:103CFC0003F0F0037B617B691B097B61294A7B69BB
:103D0C0013441B78DBB2BB607B681A68BB68DA4073
:103D1C007B685A60204B5B6803F4E0637B617B69D2
:103D2C001B0A7B611F4A7B6913441B78DBB2BB60A7
:103D3C007B685A68BB68DA407B689A60164B5B6894
:103D4C0003F460537B617B69DB0A7B61154A7B69F9
:103D5C0013441B78DBB2BB607B685A68BB68DA40E3
:103D6C007B68DA600C4B5B6803F440437B617B69D6
:103D7C009B0B7B610C4A7B6913441B78DBB2BB60E9
:103D8C007B68DA68BB68B2FBF3F27B681A6100BF30
:103D9C001C37BD4680BC70470010024000127A00F0
:103DAC0000093D00140000202400002080B483B0E2
:103DBC0000AF78600B46FB70FB78002B06D00949EE
:103DCC00084B5A697B6813434B6106E00549054B68
:103DDC005A697B68DB4313404B6100BF0C37BD460F
:103DEC0080BC70470010024080B483B000AF786094
:103DFC000B46FB70FB78002B06D00949084B9A69DF
:103E0C007B6813438B6106E00549054B9A697B6817
:103E1C00DB4313408B6100BF0C37BD4680BC704741
:103E2C000010024080B483B000AF78600B46FB708A
:103E3C00FB78002B06D00949084BDA697B681343E1
:103E4C00CB6106E00549054BDA697B68DB4313401F
:103E5C00CB6100BF0C37BD4680BC704700100240E0
:103E6C0080B483B000AF78600B46FB70FB78002BFE
:103E7C0006D00949084BDA687B681343CB6006E02F
:103E8C000549054BDA687B68DB431340CB6000BF08
:103E9C000C37BD4680BC70470010024080B483B024
:103EAC0000AF78600B46FB70FB78002B06D00949FD
:103EBC00084B1A697B6813430B6106E00549054BF7
:103ECC001A697B68DB4313400B6100BF0C37BD469E
:103EDC0080BC70470010024080B483B000AF034632
:103EEC00FB71044AFB79136000BF0C37BD4680BCE4
:103EFC00704700BF4004424280B483B000AF034619
:103F0C00FB71044AFB79136000BF0C37BD4680BCC3
:103F1C00704700BF4C00424280B483B000AF0346F0
:103F2C00FB71044AFB79137000BF0C37BD4680BC93
:103F3C00704700BF0710024080B487B000AF034643
:103F4C00FB710023FB6000237B610023FB74FB7976
:103F5C005B09DBB2FB60FB68012B03D1124B1B68C6
:103F6C007B6109E0FB68022B03D10F4B1B6A7B6161
:103F7C0002E00D4B5B6A7B61FB7903F01F03FB6076
:103F8C007A69FB6822FA03F303F00103002B02D0D9
:103F9C000123FB7401E00023FB74FB7C18461C37E7
:103FAC00BD4680BC704700BF0010024080B400AF1B
:103FBC00044A044B5B6A43F08073536200BFBD46F6
:103FCC0080BC70470010024080B485B000AF03463F
:103FDC00FB710023FB73084B9A68FB791340002B91
:103FEC0002D00123FB7301E00023FB73FB7B18461B
:103FFC001437BD4680BC70470010024080B483B0BB
:10400C0000AF0346FB71044AFB79137000BF0C37F9
:10401C00BD4680BC704700BF0A10024080B582B01C
:10402C0000AF142000F0F4FD03467B607B68002297
:10403C005A607B6800221A607B6800229A607B6859
:10404C000022DA607B6818460837BD4680BD00BF89
:10405C0080B584B000AF7860142000F0D9FD034621
:10406C00FB607A68FB689A60FB6800221A60FB6848
:10407C0000225A60FB6818461037BD4680BD00BF51
:10408C0080B483B000AF786039607B681B68002B0C
:10409C0007D17B683A681A607B681A683B685A607B
:1040AC0016E07B681A687B685A6004E07B685B6882
:1040BC001A687B685A607B685B681B68002BF5D1BB
:1040CC007B685B683A681A607B685A683B685A6020
:1040DC0000BF0C37BD4680BC704700BF80B483B0B6
:1040EC0000AF786039607B681B68002B0FD17B6850
:1040FC003A681A607B681B683A685A607B681A6871
:10410C003B681A607B681A683B685A6011E07B68F0
:10411C001B685B683A681A607B681B685A683B6866
:10412C005A607B681B683A685A607B681A683B68FF
:10413C001A6000BF0C37BD4680BC704780B582B09A
:10414C0000AF78607B68174A93420AD101214FF483
:10415C008050FFF785FE00214FF48050FFF780FE62
:10416C001CE07B68104A93420AD101214FF4804035
:10417C00FFF794FE00214FF48040FFF78FFE0DE017
:10418C007B680A4A934209D101214FF40040FFF7A2
:10419C0085FE00214FF40040FFF780FE00BF08377A
:1041AC00BD4680BD0030014000380040003C00405E
:1041BC0080B485B000AF786039600023FB817B68E8
:1041CC001B88FB81FB8903F44153FB813B681A88F4
:1041DC003B685B8813439AB23B689B8813439AB243
:1041EC003B68DB8813439AB23B681B8913439AB232
:1041FC003B685B8913439AB23B689B8913439AB221
:10420C003B68DB8913439AB2FB891343FB817B68C0
:10421C00FA891A807B689B8B9BB223F400639AB259
:10422C007B689A833B681A8A7B681A8200BF1437B2
:10423C00BD4680BC704700BF80B58CB000AF7860C5
:10424C00396000237B840223FB850023BB8501237B
:10425C007B8500237B620023FB617B689B8B9BB27D
:10426C0023F47B6323F00F039AB27B689A837B68F9
:10427C0002221A847B689B8B7B843B689B68022B95
:10428C0004D10023BB850223FB8555E03B689B884A
:10429C00002B02D101237B8501E002237B857B6807
:1042AC003D4A934203D14FF400337B6202E04FF45A
:1042BC0080237B6207F108031846FFF7C7FCBB6835
:1042CC00FB613B68DB88B3F5007F0FD1FB691A0AF1
:1042DC0013469B0013445B001A463B689B68B2FB79
:1042EC00F3F39BB205339BB27B6212E07B8D5B01D7
:1042FC001A46FB69B3FBF2F213469B0013445B00B6
:10430C001A463B689B68B2FBF3F39BB205339BB236
:10431C007B627B6A214AA2FB0323DB087B627B6AFC
:10432C009BB203F00103BB85BB8D7A6AD31A5B0881
:10433C00FB85BB8D1B02BB85FB8D012B02D9FB8D35
:10434C00FF2B03D90223FB850023BB853B68DA884E
:10435C00BB8D13439AB2FB8D13439AB27B681A84BC
:10436C003B681A883B6859883B6898883B689B89EE
:10437C0003439BB20B439BB213439AB27B8C134304
:10438C009BB243F400637B847B687A8C9A8300BF76
:10439C003037BD4680BD00BF00380040CDCCCCCC02
:1043AC0080B483B000AF78607B6800221A807B6891
:1043BC0000225A807B6800229A807B680022DA8077
:1043CC007B6800221A817B6800225A817B6800225C
:1043DC009A817B680022DA817B6807221A8200BFEF
:1043EC000C37BD4680BC704780B483B000AF78609A
:1043FC007B6800221A807B6800225A807B6800222E
:10440C009A807B680022DA807B6802229A607B6843
:10441C0000229A8100BF0C37BD4680BC704700BF9C
:10442C0080B483B000AF78600B46FB70FB78002B38
:10443C0008D07B681B889BB243F040039AB27B6820
:10444C001A8007E07B681B889BB223F040039AB26A
:10445C007B681A8000BF0C37BD4680BC704700BF1C
:10446C0080B483B000AF78600B46FB70FB78002BF8
:10447C0008D07B689B8B9BB243F480639AB27B68B9
:10448C009A8307E07B689B8B9BB223F480639AB280
:10449C007B689A8300BF0C37BD4680BC704700BF59
:1044AC0080B485B000AF78600B46FB701346BB70D0
:1044BC000023FB810023BB81FB781B09DBB2FB8152
:1044CC00FB89012202FA03F3BB81BB78002B08D0D5
:1044DC007B689B889AB2BB8913439AB27B689A809B
:1044EC0009E07B689B889AB2BB89DB439BB2134083
:1044FC009AB27B689A8000BF1437BD4680BC704767
:10450C0080B483B000AF78600B467B8013467B7021
:10451C007B78002B08D07B689B889AB27B881343EE
:10452C009AB27B689A8009E07B689B889AB27B88F8
:10453C00DB439BB213409AB27B689A8000BF0C3766
:10454C00BD4680BC704700BF80B483B000AF7860BC
:10455C000B467B807B687A889A8100BF0C37BD46FE
:10456C0080BC704780B483B000AF78607B689B8957
:10457C009BB218460C37BD4680BC704780B483B0E4
:10458C0000AF78600B467B807B884FF6FF629342CE
:10459C0008D07B681B889BB243F480739AB27B680B
:1045AC001A8007E07B681B889BB223F480739AB255
:1045BC007B681A8000BF0C37BD4680BC704700BFBB
:1045CC0080B483B000AF78600B46FB70FB78002B97
:1045DC0008D07B689B889BB243F004039AB27B683B
:1045EC009A8007E07B689B889BB223F004039AB205
:1045FC007B689A8000BF0C37BD4680BC704700BFFB
:10460C0080B483B000AF78600B467B807B681B88DE
:10461C009BB223F400639AB27B681A807B681B8878
:10462C009AB27B8813439AB27B681A8000BF0C370E
:10463C00BD4680BC704700BF80B483B000AF7860CB
:10464C007B681B889BB243F480539AB27B681A80B8
:10465C0000BF0C37BD4680BC704700BF80B483B030
:10466C0000AF78600B46FB70FB78002B08D07B68A2
:10467C001B889BB243F400539AB27B681A8007E004
:10468C007B681B889BB223F400539AB27B681A8018
:10469C0000BF0C37BD4680BC704700BF80B485B0EE
:1046AC0000AF78600B46FB700023FB81FB78012B7D
:1046BC0003D07B681B8BFB8102E07B689B8AFB81B0
:1046CC00FB8918461437BD4680BC704780B483B054
:1046DC0000AF78607B681B8A9BB218460C37BD46CE
:1046EC0080BC704780B483B000AF78600B467B8091
:1046FC007B88B3F5804F08D17B681B889BB243F451
:10470C0080439AB27B681A8007E07B681B889BB257
:10471C0023F480439AB27B681A8000BF0C37BD46E5
:10472C0080BC704780B485B000AF78600B467B804E
:10473C000023FB737B681B899AB27B8813409BB266
:10474C00002B02D00123FB7301E00023FB73FB7BE6
:10475C0018461437BD4680BC704700BF80B483B088
:10476C0000AF78600B467B807B88DB439AB27B681A
:10477C001A8100BF0C37BD4680BC704780B485B031
:10478C0000AF78600B46FB700023FB730023BB81EA
:10479C0000237B8100233B81FB7803F00F03012274
:1047AC0002FA03F3BB81FB781B09DBB27B817B89AB
:1047BC00012202FA03F37B817B689B889AB27B8986
:1047CC0013403B817B681B899AB2BB8913409BB217
:1047DC00002B05D03B89002B02D00123FB7301E099
:1047EC000023FB73FB7B18461437BD4680BC704717
:1047FC0080B485B000AF78600B46FB700023FB8162
:10480C00FB7803F00F03012202FA03F3FB81FB890F
:10481C00DB439AB27B681A8100BF1437BD4680BC5B
:10482C00704700BF80B483B000AF0346FB710849EA
:10483C0097F907305B09FA7902F01F02012000FAA0
:10484C0002F241F8232000BF0C37BD4680BC7047F4
:10485C0000E100E080B584B000AF0023FB60FFF7FF
:10486C00DDFB0246174B1A60022264211648FCF746
:10487C00D5F9B86001224FF47A711348FCF7CEF9E0
:10488C007860002242F210710F48FCF7C7F93860CB
:10489C0000F0C6F800F07CF800F018F800F046F8CC
:1048AC00FCF76CFABB681B69B86898477B681B6996
:1048BC00786898474FF08040FBF72CFF0346FB606D
:1048CC00F8E700BFC4080020F50B000880B584B0E1
:1048DC0004AF012202211148FFF712FE0D20FFF751
:1048EC00A1FF01210120FFF761FA0D48FBF736FC0F
:1048FC000C4A002303930023029300230193032308
:10490C000093102308490648FCF776FC012202218B
:10491C000348FBF763FD00BFBD4680BD003001407E
:10492C0030000240BC0800200C30014080B500AFC4
:10493C001C20FFF777FF01210120FFF773FA0021FC
:10494C000120FFF7ABFA01214FF08040FEF734FA5B
:10495C0000214FF08040FEF7A9F801214FF0804074
:10496C00FDF7F4FF00214FF08040FDF777FC4FF688
:10497C00FF73002242F228314FF08040FBF77CFE9F
:10498C00012201214FF08040FDF720FA00BF80BDCD
:10499C0080B582B002AF01210420FFF725FA002177
:1049AC000420FFF75DFA1023032210211A48FBF7AD
:1049BC0049FE1823032220211748FBF743FE482306
:1049CC00002240211448FBF73DFE182303228021CE
:1049DC001148FBF737FE01214FF48050FFF704FA22
:1049EC0000214FF48050FFF73BFA00230193802302
:1049FC000093002300224FF482710848FEF7DCFE7E
:104A0C0001210648FFF7DCFD01210448FEF7B4FE46
:104A1C0000BFBD4680BD00BF000801400030014012
:104A2C0080B483B000AF00237B6007E0074A7B684B
:104A3C001344F0221A707B6801337B607B68022B75
:104A4C00F4DD00BF0C37BD4680BC7047BC080020AD
:104A5C0080B485B000AF78600023FB6002E0FB6897
:104A6C000133FB607B68642202FB03F2FB689A4211
:104A7C00F5DC00BF1437BD4680BC704770B50F4ED7
:104A8C000F4D761BB61018BF002405D0013455F815
:104A9C00043B9847A642F9D10A4E0B4D00F0B8FCE6
:104AAC00761BB61018BF002406D0013455F8043B11
:104ABC009847A642F9D170BD70BD00BF3C540008A8
:104ACC003C540008445400083C540008024B13B1F9
:104ADC00024800F005B8704700000000F94A0008D1
:104AEC00002301461A46184600F014B838B5074D95
:104AFC00074C2C1BA41005D0013C55F8043D9847DD
:104B0C00002CF9D1BDE8384000F088BC48540008AE
:104B1C00445400082DE9F047254C06462568884684
:104B2C00D5F8484192469946C4B360681F2817DCF3
:104B3C00411C76B104EB8003C3F888A0D4F88851EB
:104B4C00012282401543022EC4F88851C3F8089103
:104B5C001ED0831C6160002044F82380BDE8F087E0
:104B6C00144B03B34FF4C87000F052F80446D0B1A4
:104B7C00D5F84831002784E888003846C5F8484104
:104B8C000121C4F88871C4F88C71002EE1D0D1E7F2
:104B9C00D4F88C311A43C4F88C21DAE705F5A674E5
:104BAC00C5F84841C1E74FF0FF30BDE8F08700BFC2
:104BBC00385400081D4C0008002103E00B4B5B58D7
:104BCC00435004310A480B4B42189A42F6D30A4A16
:104BDC0002E0002342F8043B084B9A42F9D3FBF75E
:104BEC00DDFEFFF74BFFFFF735FE7047485400081A
:104BFC00000000206408002064080020CC0800207D
:104C0C00FEE70000014B1868704700BF50040020FD
:104C1C00024B0146186800F003B800BF5004002096
:104C2C002DE9F04F01F10B05162D83B0064640F22D
:104C3C00A08035F0070500F1C080A94200F2BD80CC
:104C4C0000F09AFAB5F5FC7FC0F090826B0A00F088
:104C5C00BB80042B00F27781A80900F1390E4FEAD2
:104C6C004E013830BE4F07EB81014C680839A14228
:104C7C0007D1AEE0002A80F2AE80E468A14200F0D9
:104C8C00A880636823F003035A1B0F2AF2DDB44992
:104C9C003C6901F1080E744500F0A881636823F0AB
:104CAC0003035A1B0F2A00F38E81002AC1F814E06B
:104CBC00C1F810E080F29380B3F5007F80F05C8146
:104CCC00DB084A684FEAA3094FF0010C013351F895
:104CDC0033800CFA09F901EBC30C49EA0202ACF17E
:104CEC00080CC4F80CC0C4F808804A6041F8334082
:104CFC00C8F80C40831001249C4094427CD8144288
:104D0C0006D120F003006400144200F10400FAD034
:104D1C0007EBC009CC468046DCF80C108C4507D15B
:104D2C0066E1002A80F27481C9688C4500F06081CC
:104D3C004B6823F003035A1B0F2AF2DD0C46CB6899
:104D4C0054F808CF45F00108C1F804800D4442F036
:104D5C000101CCF80C303046C3F808C07D613D61D0
:104D6C00C5F80CE0C5F808E06960AA5000F006FA36
:104D7C001FE0102921D800F0FFF91025062302208E
:104D8C00774F07EB83035C68A3F10802944200F0B1
:104D9C0038816368E16823F0030323445A68A568EB
:104DAC0042F00102E96030468D605A6000F0E6F98D
:104DBC000834204603B0BDE8F08F002420460C23B5
:104DCC00336003B0BDE8F08F80214FF0400E3F20E0
:104DDC0048E770465BE723445A68E168DFE7234401
:104DEC005A68304642F001025A60083400F0C6F9A5
:104DFC00204603B0BDE8F08FBC68636823F003085D
:104E0C00A84504D3C5EB08030F2B00F38C80554B3E
:104E1C00DFF860911A68D9F800302A44013304EBAA
:104E2C00080A00F0608102F580520F3222F47F6292
:104E3C0022F00F0211463046019200F0A1F9B0F1B8
:104E4C00FF3F8346019A00F05881824500F2FC80B6
:104E5C00454BDA4519681144196000F05381D9F8B3
:104E6C000000DFF810E101301BBFCAEB0B0A514404
:104E7C00CEF800B019601BF0070100F01781C1F1EA
:104E8C000800C1F58051834408315A44C2F30B0227
:104E9C00C2EB010949463046019300F071F9431CFD
:104EAC00019B00F03F81CBEB00024A4442F001022F
:104EBC001968BC424944C7F808B01960CBF8042003
:104ECC00DFF8A49016D0B8F10F0F40F2FD806268A5
:104EDC00A8F10C0323F0070302F00102E0184FF0D5
:104EEC00050E1A430F2B6260C0F804E0C0F808E00E
:104EFC0000F21C811D4BBC681A68914288BF196076
:104F0C001B4B1A689142626888BF196022F0030239
:104F1C009542A2EB050301D80F2B04DC304600F0C0
:104F2C002DF9002445E745F0010243F00103254427
:104F3C0062603046BD6008346B6000F01FF920469B
:104F4C0003B0BDE8F08F142B71D9542B00F2A48060
:104F5C00280B00F16F0E4FEA4E016E3082E600BF57
:104F6C005404002090080020940800208C08002095
:104F7C0088080020600800205A0A042A5ED9142AE6
:104F8C0000F2B38002F15C0149005B3207EB810C4B
:104F9C0057F82110ACF1080C8C45DFF8D88100F0E3
:104FAC0088804A6822F00302934202D289688C45B9
:104FBC00F7D1D1F80CC07A68C4F80CC0A160CCF859
:104FCC000840CC6096E645F0010742F00103254409
:104FDC00676030464D610D61C5F80CE0C5F808E01E
:104FEC006B60AA50083400F0C9F8E2E64A6881E622
:104FFC0008F1010818F0030F0CF1080C7FF48CAECB
:10500C0030E0DC68A34208BF02303FF440AEC0E69B
:10501C000C460B445A68C96854F8085F42F0010208
:10502C005A603046E9608D6000F0A8F8C1E603F1E3
:10503C005C0E03F15B004FEA4E0113E69A0902F194
:10504C00390149003832A1E7BC424A4B3FF400AF6A
:10505C009C68626822F003025AE759F808399945AE
:10506C0040F0828010F0030F00F1FF30F5D17B6827
:10507C0023EA04037B6064009C423FF6BDAE002C27
:10508C003FF4BAAE1C4240467FF442AE64001C4270
:10509C0000F10400FAD03BE6B3F5AA7F18D8E80B70
:1050AC0000F1780E4FEA4E017730DBE54FF480517A
:1050BC00EBE60121D8F80430921001FA02F21A43FF
:1050CC00C8F80420614677E70123CBF8043025E7C4
:1050DC0040F25452934220D8A80C00F17D0E4FEAB6
:1050EC004E017C30BEE51032A4E6542A26D81A0BA9
:1050FC0002F16F0149006E3248E7BC68626822F029
:10510C00030205E7CAF30B0000287FF4A8AE424463
:10511C00BB6842F001025A60ECE6FE214FF07F0EB4
:10512C007E209FE501224FF00009C1E604F1080141
:10513C00304600F085F8D9F80010DBE6B2F5AA7F0E
:10514C0005D8DA0B02F17801490077321EE740F2FC
:10515C0054518A4205D89A0C02F17D0149007C32E7
:10516C0014E7FE217E2211E77B6884E7E808431CE4
:10517C005B0005E654040020704700BF704700BF79
:10518C0038B5074C0023054608462360FBF730FB77
:10519C00431C00D038BD2368002BFBD02B6038BDDE
:1051AC00C8080020F8B50C46224F0646FFF7E4FF6E
:1051BC00BB685D6825F00305291B01F6EF7121F42E
:1051CC007F6121F00F01A1F58054B4F5805F07DBFE
:1051DC0000213046FFF7D4FFBB682B44984204D023
:1051EC003046FFF7CBFF0020F8BD61423046FFF799
:1051FC00C7FF01300DD0104BBA6819682D1B45F054
:10520C0001053046091B55601960FFF7B7FF0120F7
:10521C00F8BD00213046FFF7B3FFBA68831A0F2B95
:10522C00DEDD064C0449246843F00103001B536087
:10523C000860D5E754040020940800206008002082
:10524C00002945D02DE9F0410D468046FFF794FF2B
:10525C0055F8047C6A49A5F1080427F00103E2180B
:10526C008E685068B24220F0030062D0FE07506096
:10527C000BD455F8087C01F1080EE41BA5683B44DF
:10528C0075456FD0E768EF60BD6015186D68ED0768
:10529C0042D543F001026260E350B3F5007F18D2AF
:1052AC00DB0848689D100122013351F8337002FA73
:1052BC0005F501EBC3022843083AE260A760486099
:1052CC0041F83340FC604046BDE8F041FFF756BF63
:1052DC0070475A0A042A53D89A0902F139077F00F9
:1052EC0002F1380501EB870051F82720083890426D
:1052FC0043494DD0516821F003018B4202D2926890
:10530C009042F7D1D068E060A2608460D4604046DF
:10531C00BDE8F041FFF732BF95683A4F0344BD42F8
:10532C003FD0D06843F00102E86085606260E350D2
:10533C00B3E7FF07034407D455F8085C641BE26825
:10534C00A0682B44C26090602F4A43F001001268A1
:10535C00606093428C60B6D32C4B40461968FFF7C3
:10536C0021FFB0E711184968C90744D49168034478
:10537C00D26843F00100CA6091606060E350A2E71C
:10538C00142A17D802F15C077F0002F15B05A9E72C
:10539C00AA104B68012505FA02F213434B60024632
:1053AC00B1E743F001024C610C61E560A5606260FD
:1053BC00E35088E7542A06D81A0B02F16F077F00D6
:1053CC0002F16E058EE7B2F5AA7F06D8DA0B02F170
:1053DC0078077F0002F1770584E740F2545082424F
:1053EC0006D89A0C02F17D077F0002F17C0579E763
:1053FC00FE277E2576E743F001026260E35062E708
:10540C00540400205C0400205C080020900800205C
:10541C00F8B500BFF8BC08BC9E467047F8B500BF95
:08542C00F8BC08BC9E46704765
:085434004300000028000020E5
:08543C00D94A00083101000803
:045444000D0100084E
:1054480000A24A040000000000000000010203045A
:105458000607080900000000010203040102030412
:1054680006070809020406080000000014030020CB
:105478007C030020E403002000000000000000007E
:105488000000000000000000000000000000000014
:105498000000000000000000000000003454000874
:1054A80000000000000000000000000000000000F4
:1054B80000000000000000000000000000000000E4
:1054C80000000000000000000000000000000000D4
:1054D80000000000000000000000000000000000C4
:1054E80000000000000000000000000000000000B4
:1054F80000000000000000000000000000000000A4
:105508000000000000000000000000000000000093
:1055180001000000000000000E33CDAB34126DE630
:10552800ECDE05000B000000000000000000000099
:105538000000000000000000000000000000000063
:105548000000000000000000000000000000000053
:105558000000000000000000000000000000000043
:105568000000000000000000000000000000000033
:105898002800002000000000000000005404002040
:1058A800540400205C0400205C04002064040020F0
:1058B800640400206C0400206C04002074040020A0
:1058C800740400207C0400207C0400208404002050
:1058D800840400208C0400208C0400209404002000
:1058E800940400209C0400209C040020A4040020B0
:1058F800A4040020AC040020AC040020B404002060
:10590800B4040020BC040020BC040020C40400200F
:10591800C4040020CC040020CC040020D4040020BF
:10592800D4040020DC040020DC040020E40400206F
:10593800E4040020EC040020EC040020F40400201F
:10594800F4040020FC040020FC04002004050020CE
:10595800040500200C0500200C050020140500207B
:10596800140500201C0500201C050020240500202B
:10597800240500202C0500202C05002034050020DB
:10598800340500203C0500203C050020440500208B
:10599800440500204C0500204C050020540500203B
:1059A800540500205C0500205C05002064050020EB
:1059B800640500206C0500206C050020740500209B
:1059C800740500207C0500207C050020840500204B
:1059D800840500208C0500208C05002094050020FB
:1059E800940500209C0500209C050020A4050020AB
:1059F800A4050020AC050020AC050020B40500205B
:105A0800B4050020BC050020BC050020C40500200A
:105A1800C4050020CC050020CC050020D4050020BA
:105A2800D4050020DC050020DC050020E40500206A
:105A3800E4050020EC050020EC050020F40500201A
:105A4800F4050020FC050020FC05002004060020C9
:105A5800040600200C0600200C0600201406002076
:105A6800140600201C0600201C0600202406002026
:105A7800240600202C0600202C06002034060020D6
:105A8800340600203C0600203C0600204406002086
:105A9800440600204C0600204C0600205406002036
:105AA800540600205C0600205C06002064060020E6
:105AB800640600206C0600206C0600207406002096
:105AC800740600207C0600207C0600208406002046
:105AD800840600208C0600208C06002094060020F6
:105AE800940600209C0600209C060020A4060020A6
:105AF800A4060020AC060020AC060020B406002056
:105B0800B4060020BC060020BC060020C406002005
:105B1800C4060020CC060020CC060020D4060020B5
:105B2800D4060020DC060020DC060020E406002065
:105B3800E4060020EC060020EC060020F406002015
:105B4800F4060020FC060020FC06002004070020C4
:105B5800040700200C0700200C0700201407002071
:105B6800140700201C0700201C0700202407002021
:105B7800240700202C0700202C07002034070020D1
:105B8800340700203C0700203C0700204407002081
:105B9800440700204C0700204C0700205407002031
:105BA800540700205C0700205C07002064070020E1
:105BB800640700206C0700206C0700207407002091
:105BC800740700207C0700207C0700208407002041
:105BD800840700208C0700208C07002094070020F1
:105BE800940700209C0700209C070020A4070020A1
:105BF800A4070020AC070020AC070020B407002051
:105C0800B4070020BC070020BC070020C407002000
:105C1800C4070020CC070020CC070020D4070020B0
:105C2800D4070020DC070020DC070020E407002060
:105C3800E4070020EC070020EC070020F407002010
:105C4800F4070020FC070020FC07002004080020BF
:105C5800040800200C0800200C080020140800206C
:105C6800140800201C0800201C080020240800201C
:105C7800240800202C0800202C08002034080020CC
:105C8800340800203C0800203C080020440800207C
:105C9800440800204C0800204C08002000000200A6
:045CA800FFFFFFFFFC
:0400000508004BC5DF
:00000001FF
