:020000040800F2
:10000000FF4F0020C950000811510008115100088D
:1000100011510008115100081151000800000000A2
:100020000000000000000000000000001151000866
:100030001151000800000000115100081151000882
:100040001151000811510008115100081151000808
:1000500011510008115100081151000811510008F8
:1000600011510008115100081151000811510008E8
:1000700011510008E9410008115100081151000810
:1000800011510008115100081151000811510008C8
:1000900011510008115100081151000811510008B8
:1000A00011510008115100081151000811510008A8
:1000B0000D110008115100081151000811510008DC
:1000C0001151000811510008115100081151000888
:1000D0001151000811510008115100081151000878
:1000E00011510008115100081151000800000000D2
:1000F0000000000000000000000000000000000000
:0C01000000000000000000005FF808F1A3
:10010C0010B5054C237833B9044B13B10448AFF345
:10011C0000800123237010BD68080020000000003F
:10012C00B4580008084B10B51BB108480849AFF388
:10013C0000800848036803B910BD074B002BFBD0A7
:10014C00BDE81040184700BF00000000B45800087C
:10015C006C080020640800200000000080B483B00C
:10016C0000AF78607B681A684FF6FE7313407A68AC
:10017C0013607B6800221A607B6800225A607B68DF
:10018C0000229A607B680022DA607B68434A9342C3
:10019C0006D1434A424B5B6843F00F03536077E050
:1001AC007B68404A934206D13D4A3D4B5B6843F025
:1001BC00F00353606CE07B683B4A934206D1384AAB
:1001CC00374B5B6843F47063536061E07B68374A7C
:1001DC00934206D1324A324B5B6843F4704353600E
:1001EC0056E07B68324A934206D12D4A2C4B5B6811
:1001FC0043F4702353604BE07B682E4A934206D144
:10020C00274A274B5B6843F47003536040E07B68DC
:10021C00294A934206D1224A214B5B6843F0706312
:10022C00536035E07B68254A934206D1244A244B1F
:10023C005B6843F00F0353602AE07B68214A9342CA
:10024C0006D11F4A1E4B5B6843F0F00353601FE05E
:10025C007B681D4A934206D1194A194B5B6843F4DB
:10026C007063536014E07B68184A934206D1144AB9
:10027C00134B5B6843F47043536009E07B68144A8A
:10028C00934205D10E4A0E4B5B6843F470235360C6
:10029C000C37BD465DF8047B704700BF0800024078
:1002AC00000002401C0002403000024044000240AA
:1002BC00580002406C0002408000024008040240DA
:1002CC00000402401C04024030040240440402407A
:1002DC005804024080B485B000AF786039600023C8
:1002EC00FB607B681B68FB60FB6823F4FF4323F017
:1002FC007003FB603B689A683B681B6A1A433B6857
:10030C001B691A433B685B691A433B689B691A4338
:10031C003B68DB691A433B685B6A1A433B689B6A20
:10032C001343FA681343FB607B68FA681A603B68F6
:10033C00DA687B685A603B681A687B689A603B682D
:10034C005A687B68DA601437BD465DF8047B7047E9
:10035C0080B483B000AF78607B6800221A607B6841
:10036C0000225A607B6800229A607B680022DA6067
:10037C007B6800221A617B6800225A617B6800222C
:10038C009A617B680022DA617B6800221A627B68C2
:10039C0000225A627B6800229A620C37BD465DF8D7
:1003AC00047B704780B483B000AF78600B46FB7061
:1003BC00FB78002B06D07B681B6843F001027B683E
:1003CC001A6006E07B681A684FF6FE7313407A6871
:1003DC0013600C37BD465DF8047B704780B485B064
:1003EC0000AFF860B9601346FB71FB79002B06D0A7
:1003FC00FB681A68BB681A43FB681A6006E0FB6866
:10040C001A68BB68DB431A40FB681A601437BD4698
:10041C005DF8047B704700BF80B483B000AF786098
:10042C000B467B807A887B685A600C37BD465DF83A
:10043C00047B704780B483B000AF78607B685B68E6
:10044C009BB218460C37BD465DF8047B704700BF65
:10045C0080B485B000AF78600023FB730023BB60D1
:10046C007B6803F08053002B03D00C4B1B68BB60E4
:10047C0002E00B4B1B68BB60BA687B681340002B17
:10048C0002D00123FB7301E00023FB73FB7B1846B6
:10049C001437BD465DF8047B704700BF0004024072
:1004AC000000024080B483B000AF78607B6803F03A
:1004BC008053002B03D0064A7B68536002E0054A48
:1004CC007B6853600C37BD465DF8047B704700BFFA
:1004DC00000402400000024080B485B000AF786098
:1004EC000023FB730023BB607B6803F08053002B5D
:1004FC0003D00C4B1B68BB6002E00B4B1B68BB6052
:10050C00BA687B681340002B02D00123FB7301E017
:10051C000023FB73FB7B18461437BD465DF8047B48
:10052C00704700BF000402400000024080B483B05A
:10053C0000AF78607B6803F08053002B03D0064A31
:10054C007B68536002E0054A7B6853600C37BD46FC
:10055C005DF8047B704700BF0004024000000240BD
:10056C0080B582B000AF7860044B1B681846796880
:10057C0003F0DCFC0837BD4680BD00BFC808002076
:10058C0080B586B000AFF8607A603B600B467B812B
:10059C007B89BB827B68DBB2BB753B68DBB2FB75CE
:1005AC0007F11403F868194602F0B8FD1837BD4678
:1005BC0080BD00BF80B588B000AFF860084611461A
:1005CC001A4603467B810B463B811346FB807B8995
:1005DC00BB823B89FB82FB883B8300237B8307F137
:1005EC001403F868194600F029FF2037BD4680BD7A
:1005FC0080B483B000AF78600B46FB70FB78002BA7
:10060C0008D07B681B889BB243F001039AB27B68CD
:10061C001A8007E07B681B889BB223F001039AB217
:10062C007B681A800C37BD465DF8047B704700BFB1
:10063C0080B483B000AF78600B467B807B687A888F
:10064C009A850C37BD465DF8047B704780B483B047
:10065C0000AF78607B689B8C9BB218460C37BD460C
:10066C005DF8047B704700BF80B400AFBD465DF8F9
:10067C00047B704780B400AF01231846BD465DF87B
:10068C00047B704780B582B000AF7860396004F0AD
:10069C003BFD0246162313604FF0FF331846083714
:1006AC00BD4680BD80B582B000AF786078684FF0F1
:1006BC00FF31FFF7E7FFFEE790B587B000AFF860BA
:1006CC00B9607A6000237B610AE0BC68631CBB6084
:1006DC00AFF300800346DBB223707B6901337B618F
:1006EC007A697B689A42F0DB7B6818461C37BD46FA
:1006FC0090BD00BF80B586B000AFF860B9607A607D
:10070C0000237B6109E0BB685A1CBA601B78184651
:10071C00AFF300807B6901337B617A697B689A4215
:10072C00F1DB7B6818461837BD4680BD80B584B0B8
:10073C0000AF7860114B1B68002B02D10F4B104A95
:10074C001A600E4B1B68FB600C4B1A687B681344D9
:10075C006A46934207D904F0D7FC02460C23136077
:10076C004FF0FF3306E0054B1A687B681344034ACD
:10077C001360FB6818461037BD4680BD8808002002
:10078C00F008002080B483B000AF78604FF0FF33E6
:10079C0018460C37BD465DF8047B704780B483B0B7
:1007AC0000AF786039603B684FF400525A60002308
:1007BC0018460C37BD465DF8047B704780B483B097
:1007CC0000AF7860012318460C37BD465DF8047BFA
:1007DC00704700BF80B485B000AFF860B9607A6034
:1007EC00002318461437BD465DF8047B704700BFE4
:1007FC000EB480B482B000AF78604FF0FF3318466F
:10080C000837BD465DF8047B03B0704780B582B0F5
:10081C0000AF786004F078FC02460A2313604FF0B6
:10082C00FF3318460837BD4680BD00BF80B582B087
:10083C0000AF786004F068FC0246022313604FF0AE
:10084C00FF3318460837BD4680BD00BF80B483B067
:10085C0000AF78604FF0FF3318460C37BD465DF89B
:10086C00047B704780B483B000AF786039603B681C
:10087C004FF400525A60002318460C37BD465DF801
:10088C00047B704780B582B000AF7860396004F0AB
:10089C003BFC02461F2313604FF0FF33184608370A
:1008AC00BD4680BD80B500AF04F02EFC02460B2384
:1008BC0013604FF0FF33184680BD00BF80B584B085
:1008CC0000AFF860B9607A6004F01EFC02460C239D
:1008DC0013604FF0FF3318461037BD4680BD00BF84
:1008EC0080B500AF154A154B1B6843F0010313602C
:1008FC001249124B5A68124B13404B600F4A0F4B64
:10090C001B6823F0847323F4803313600B4A0B4B66
:10091C001B6823F480231360084A084B5B6823F49C
:10092C00FE035360054B4FF41F029A6000F07AF8F7
:10093C00044B4FF000629A6080BD00BF0010024073
:10094C000000FFF800ED00E080B485B000AF00239C
:10095C00FB600023BB6000237B602D4B5B6803F0C6
:10096C000C03FB60FB68042B07D0082B09D0002B71
:10097C0034D1284B284A1A6034E0264B264A1A6098
:10098C0030E0234B5B6803F47013BB60204B5B6857
:10099C0003F480337B60BB689B0C0233BB607B68C9
:1009AC00002B06D1BB681D4A02FB03F3194A1360E6
:1009BC0013E0174B5B6803F40033002B06D0BB68C5
:1009CC00164A02FB03F3134A136006E0BB68124A93
:1009DC0002FB03F30F4A136004E003E00D4B0E4AD5
:1009EC001A6000BF0A4B5B6803F0F0031B090C4A4A
:1009FC00D35CDBB2FB60074B1A68FB6822FA03F38B
:100A0C00044A13601437BD465DF8047B704700BF81
:100A1C00001002400000002000127A0000093D0086
:100A2C000400002080B500AF00F002F880BD00BFCC
:100A3C0080B483B000AF00237B6000233B603A4A54
:100A4C00394B1B6843F480331360374B1B6803F43A
:100A5C0000333B607B6801337B603B68002B03D128
:100A6C007B68B3F5A06FF0D12F4B1B6803F40033F8
:100A7C00002B02D001233B6001E000233B603B686C
:100A8C00012B4BD1294A294B1B6843F010031360EF
:100A9C00264A264B1B6823F007031360234A234B7B
:100AAC001B6843F0020313601F4A1F4B5B685360C3
:100ABC001D4A1D4B5B6853601B4A1B4B5B6843F420
:100ACC00E0635360184A184B5B6823F47C13536043
:100ADC00154A154B5B6843F4E8135360124A124BEA
:100AEC001B6843F08073136000BF0F4B1B6803F04F
:100AFC000073002BF9D00C4A0B4B5B6823F00303FB
:100B0C005360094A084B5B6843F00203536000BF13
:100B1C00054B5B6803F00C03082BF9D10C37BD4671
:100B2C005DF8047B704700BF0010024000200240BB
:100B3C0080B588B000AF786039600023FB6100237A
:100B4C00BB6100237B6100233B610023FB604B4BAB
:100B5C001B681B68002B0AD17868396800F0FAF81A
:100B6C00464B1B681846796803F0E0F982E0434B6A
:100B7C001B68184600F0D0F8F861404B1B689A6867
:100B8C003E4B1B68DB68D31ABB61FA69BB69D31A8D
:100B9C007B613A687B699A420ED93A687B69D31AB1
:100BAC003B617868396900F0D5F8344B1B681846FE
:100BBC00796803F0BBF95DE03A687B699A423FD2F1
:100BCC002E4B1B681B68BB603A68BB69134407F16A
:100BDC00080107F10C02084611461A4600F06CF8A1
:100BEC00FA683968BB690B44D31A3B613B69002B2B
:100BFC001CD0BB681B8A1A463B69D31A7868194605
:100C0C0000F0A8F8BB683A6992B21A821B4B1B68B9
:100C1C001A68BB689A4203D1184B1B687A681A6031
:100C2C00BB681846796800F0A3F823E07868396946
:100C3C0000F090F8BB681846796800F0B1F819E03C
:100C4C000E4B1B681B68BB603A68BB69134407F109
:100C5C00080107F10C02084611461A4600F02CF860
:100C6C007868002100F076F8044B1B681846796808
:100C7C0003F05CF92037BD4680BD00BFCC080020D6
:100C8C0080B483B000AF786039607B683A689A6052
:100C9C000C37BD465DF8047B704700BF80B483B051
:100CAC0000AF786039607B683A68DA600C37BD4613
:100CBC005DF8047B704700BF80B485B000AFF8606E
:100CCC00B9607A6011E0BB681B68FA681268128A16
:100CDC001A44BB681A60BB681A687B689A4204D2D3
:100CEC00FB681B681A68FB681A60BB681A687B682B
:100CFC009A42E8D304E0FB681B681A68FB681A6028
:100D0C00FB681B681B681B8A002BF4D01437BD468C
:100D1C005DF8047B704700BF80B485B000AF78608D
:100D2C000023FB607B681B68BB60BB681B8A1A4690
:100D3C00FB681344FB60BB681B68BB607B681A686C
:100D4C00BB689A42F1D1FB6818461437BD465DF872
:100D5C00047B704780B483B000AF786039603B6827
:100D6C009AB27B681A820C37BD465DF8047B7047DB
:100D7C0080B483B000AF786039603B687A681A60E1
:100D8C007B685A683B685A607B685B683A681A6093
:100D9C007B683A685A600C37BD465DF8047B704737
:100DAC0080B483B000AF786039607B681A683B68A8
:100DBC001A607B681B683A685A607B683A681A60EC
:100DCC003B687A685A600C37BD465DF8047B704707
:100DDC0080B584B000AF78607B681B68FB60786876
:100DEC0000F006F8FB6818461037BD4680BD00BF02
:100DFC0080B485B000AF78607B681B68FB607B6853
:100E0C001B681A687B681B689A4203D17B680022B6
:100E1C001A600EE07B681B681A687B681A607B6836
:100E2C001B68FA6852685A60FB685B687A681268DB
:100E3C001A60FB6800221A60FB6800225A601437A3
:100E4C00BD465DF8047B704780B58AB000AF786012
:100E5C00396000237B6200233B620023FB6100238B
:100E6C00BB610023FB607B681B68002B09D13B68CE
:100E7C00184603F043F803467868194603F056F811
:100E8C0086E07868FFF748FF78627B689A687B6831
:100E9C00DB68D31A3B627A6A3B6AD31AFB613A6805
:100EAC00FB699A420DD93A68FB69D31ABB61BB69DD
:100EBC00184603F023F803467868194603F036F811
:100ECC0066E03A68FB699A4239D27B681B68BB6062
:100EDC003A683B6A134407F1080107F10C02084613
:100EEC0011461A46FFF7E8FEFA6839683B6A0B446C
:100EFC00D31ABB61BB68BA68118ABA6992B28A1AF2
:100F0C0092B21A82BB681A687B681B689A4209D134
:100F1C00BB69184602F0F2FF03467868194603F0E5
:100F2C0005F835E0BB69184602F0E8FF7861BB684C
:100F3C001A687B691A60BB687A691A6028E07B685A
:100F4C001B68BB603A683B6A134407F1080107F160
:100F5C000C02084611461A46FFF7AEFEBB681A682B
:100F6C007B681B689A4208D1002002F0C7FF034639
:100F7C007868194602F0DAFF0AE0002002F0BEFFA2
:100F8C003861BB681A683B691A60BB683A691A60B9
:100F9C002837BD4680BD00BF80B590B000AFF8606B
:100FAC00B9607A603B60BB687B617B68BB613B6806
:100FBC00FB61BB6C3B62FB6CFB623B6D3B63802358
:100FCC00BB6200237B627B6D7B634FF40053BB637E
:100FDC000023FB6307F11403F8681946FFF77AF94D
:100FEC004037BD4680BD00BF80B483B000AF786091
:100FFC0039607B683A685A600C37BD465DF8047BF3
:10100C00704700BF80B483B000AF78607B685B68CA
:10101C0018460C37BD465DF8047B704780B483B02E
:10102C0000AF786039607B683A68DA600C37BD468F
:10103C005DF8047B704700BFB0B584B000AF78603A
:10104C003960274B1C68264B1B68DD684FF08040CD
:10105C00FFF7FCFA03462B44A360214B1B681B686B
:10106C00002B18D14FF08040002100F0AFFD4FF065
:10107C008040002101F058FC3B689BB2184600F000
:10108C0031F84FF08040012100F0A0FD78683968FC
:10109C00FFF74EFD21E0124B1B681B681B8AFB817E
:1010AC0078683968FFF744FD0D4B1B681B681B8A79
:1010BC00FA899A4211D00A4B1B681B681C8A4FF0A4
:1010CC008040FFF7C3FA03469C4206D9044B1B68C9
:1010DC001B681B8A184600F005F81037BD46B0BDDA
:1010EC00CC08002080B582B000AF0346FB80FB88A3
:1010FC004FF08040194601F025FC0837BD4680BDF5
:10110C0080B582B000AF2F4B1B681B687B604FF023
:10111C008040002100F05AFD4FF08040012101F089
:10112C0093FD284B1B681B681A68264B1B681B68B1
:10113C009A4221D0234B1B681B681B687B6002E022
:10114C007B681B687B607B681A681E4B1B681B687E
:10115C009A4203D07B681B8A002BF1D07B681B8AD8
:10116C00002B09D07B681B8A1846FFF7BBFF4FF09A
:10117C008040012100F02AFD124B1B68114A1268B5
:10118C00D268104909680968098A0A44DA600D4B6B
:10119C001B681846FFF71CFE38603B689B683A6872
:1011AC00D26810469847074B1B681B68002B05D06C
:1011BC00044B1B681B681B8A002BDDD00837BD460F
:1011CC0080BD00BFCC08002080B483B000AF786035
:1011DC00064B1B68DB687A68928C92B213441846F3
:1011EC000C37BD465DF8047B704700BFCC0800206F
:1011FC0080B400AF044B1A68044B1B68D31A184612
:10120C00BD465DF8047B7047D4080020D008002050
:10121C0080B582B000AF78607B68784A93420AD17F
:10122C004FF40060012102F06DFD4FF400600021CD
:10123C0002F068FDDEE07B68B3F1804F08D101203D
:10124C00012102F07DFD0120002102F079FDD1E0A9
:10125C007B686B4A934208D10220012102F070FD99
:10126C000220002102F06CFDC4E07B68654A9342C9
:10127C0008D10420012102F063FD0420002102F0BA
:10128C005FFDB7E07B68604A934208D108200121DA
:10129C0002F056FD0820002102F052FDAAE07B6806
:1012AC005A4A934208D11020012102F049FD102026
:1012BC00002102F045FD9DE07B68554A934208D120
:1012CC002020012102F03CFD2020002102F038FDFD
:1012DC0090E07B684F4A93420AD14FF400500121B1
:1012EC0002F010FD4FF40050002102F00BFD81E0E4
:1012FC007B68494A93420AD14FF40020012102F045
:10130C0001FD4FF40020002102F0FCFC72E07B6830
:10131C00424A93420AD14FF48010012102F0F2FCB0
:10132C004FF48010002102F0EDFC63E07B683C4A36
:10133C0093420AD14FF40010012102F0E3FC4FF468
:10134C000010002102F0DEFC54E07B68354A934229
:10135C0008D14020012102F0F3FC4020002102F0D2
:10136C00EFFC47E07B68304A934208D18020012192
:10137C0002F0E6FC8020002102F0E2FC3AE07B68FF
:10138C002A4A93420AD14FF48070012102F0D8FC12
:10139C004FF48070002102F0D3FC2BE07B68244AD0
:1013AC0093420AD14FF48030012102F0ABFC4FF490
:1013BC008030002102F0A6FC1CE07B681D4A9342A1
:1013CC000AD14FF40030012102F09CFC4FF40030A4
:1013DC00002102F097FC0DE07B68174A934209D17B
:1013EC004FF48020012102F08DFC4FF4802000216D
:1013FC0002F088FC0837BD4680BD00BF002C0140C0
:10140C000004004000080040000C004000100040A8
:10141C000014004000340140004C014000500140D9
:10142C000054014000180040001C00400020004007
:10143C0000400140004401400048014080B485B0A8
:10144C0000AF786039600023FB817B681B88FB81CF
:10145C007B682E4A934213D07B682D4A93420FD05F
:10146C007B68B3F1804F0BD07B682A4A934207D03C
:10147C007B68294A934203D07B68284A934208D15F
:10148C00FB8923F07003FB813B685A88FB8913436B
:10149C00FB817B68224A93420CD07B68214A9342A1
:1014AC0008D0FB8923F44073FB813B68DA88FB8905
:1014BC001343FB817B68FA891A803B689A887B68A6
:1014CC009A853B681A887B681A857B680F4A934219
:1014DC000FD07B680E4A93420BD07B68124A934222
:1014EC0007D07B68114A934203D07B68104A934221
:1014FC0004D13B681B7A9AB27B681A867B680122FE
:10150C009A821437BD465DF8047B7047002C01406D
:10151C00003401400004004000080040000C004072
:10152C000010004000140040004001400044014005
:10153C000048014080B485B000AF7860396000236A
:10154C007B810023FB810023BB817B681B8C9BB2BE
:10155C0023F001039AB27B681A847B681B8CFB8195
:10156C007B689B88BB817B681B8B7B817B8923F091
:10157C0070037B817B8923F003037B813B681A8892
:10158C007B8913437B81FB8923F00203FB813B683E
:10159C001A89FB891343FB813B685A88FB891343E7
:1015AC00FB817B68244A93420FD07B68234A934289
:1015BC000BD07B68224A934207D07B68214A934226
:1015CC0003D07B68204A934223D1FB8923F0080384
:1015DC00FB813B685A89FB891343FB81FB8923F010
:1015EC000403FB813B689A88FB891343FB81BB890D
:1015FC0023F48073BB81BB8923F40073BB813B68EC
:10160C009A89BB891343BB813B68DA89BB89134335
:10161C00BB817B68BA899A807B687A891A833B681C
:10162C00DA887B689A867B68FA891A841437BD46F7
:10163C005DF8047B704700BF002C01400034014072
:10164C0000400140004401400048014080B485B096
:10165C0000AF7860396000237B810023FB8100237D
:10166C00BB817B681B8C9BB223F010039AB27B6806
:10167C001A847B681B8CFB817B689B88BB817B6895
:10168C001B8B7B817B8923F4E0437B817B8923F457
:10169C0040737B813B681B881B029AB27B89134386
:1016AC007B81FB8923F02003FB813B681B891B0199
:1016BC009AB2FB891343FB813B685B881B019AB28E
:1016CC00FB891343FB817B68224A934203D07B68DE
:1016DC00214A93422BD1FB8923F08003FB813B6889
:1016EC005B891B019AB2FB891343FB81FB8923F0B5
:1016FC004003FB813B689B881B019AB2FB89134317
:10170C00FB81BB8923F48063BB81BB8923F4006319
:10171C00BB813B689B899B009AB2BB891343BB81FD
:10172C003B68DB899B009AB2BB891343BB817B6806
:10173C00BA899A807B687A891A833B68DA887B68D5
:10174C001A877B68FA891A841437BD465DF8047BC6
:10175C00704700BF002C01400034014080B485B0BC
:10176C0000AF7860396000237B810023FB8100236C
:10177C00BB817B681B8C9BB223F480739AB27B6811
:10178C001A847B681B8CFB817B689B88BB817B6884
:10179C009B8B7B817B8923F070037B817B8923F07E
:1017AC0003037B813B681A887B8913437B81FB890C
:1017BC0023F40073FB813B681B891B029AB2FB89E3
:1017CC001343FB813B685B881B029AB2FB89134372
:1017DC00FB817B68224A934203D07B68214A934267
:1017EC002BD1FB8923F40063FB813B685B891B02D3
:1017FC009AB2FB891343FB81FB8923F48063FB8141
:10180C003B689B881B029AB2FB891343FB81BB8903
:10181C0023F48053BB81BB8923F40053BB813B6809
:10182C009B891B019AB2BB891343BB813B68DB8943
:10183C001B019AB2BB891343BB817B68BA899A801E
:10184C007B687A899A833B68DA887B689A877B689D
:10185C00FA891A841437BD465DF8047B704700BFC3
:10186C00002C01400034014080B485B000AF78609A
:10187C0039600023BB8100237B810023FB817B68C3
:10188C001B8C9BB223F480539AB27B681A847B68BE
:10189C001B8C7B817B689B88FB817B689B8BBB81D2
:1018AC00BB8923F4E043BB81BB8923F44073BB8128
:1018BC003B681B881B029AB2BB891343BB817B8993
:1018CC0023F400537B813B681B891B039AB27B89F1
:1018DC0013437B813B685B881B039AB27B89134360
:1018EC007B817B68124A934203D07B68114A9342F6
:1018FC000AD1FB8923F48043FB813B689B899B01C4
:10190C009AB2FB891343FB817B68FA899A807B68C6
:10191C00BA899A833B68DA887B68A3F840207B6895
:10192C007A891A841437BD465DF8047B704700BF72
:10193C00002C01400034014080B582B000AF7860CB
:10194C0039603B681B88002B0FD13B6859883B687A
:10195C009A883B681B89786801F086F93B68DB88BC
:10196C007868194601F036F836E03B681B88042B82
:10197C000FD13B6859883B689A883B681B8978680B
:10198C0001F0E2F93B68DB887868194601F03EF813
:10199C0022E03B681B88082B0FD13B6859883B68B9
:1019AC009A883B681B89786801F048FA3B68DB88A9
:1019BC007868194601F048F80EE03B6859883B6896
:1019CC009A883B681B89786801F0AEFA3B68DB8823
:1019DC007868194601F054F80837BD4680BD00BF41
:1019EC0080B584B000AF786039600023FB8101239F
:1019FC00BB813B685B88002B02D10223FB8101E099
:101A0C000023FB813B689B88012B02D10223BB8105
:101A1C0001E00123BB813B681B88002B1CD13B6878
:101A2C0059883B689A883B681B89786801F01CF9D7
:101A3C003B68DB887868194600F0CCFF3B681B8953
:101A4C00F989BA89786801F07FF93B68DB88786896
:101A5C00194600F0DBFF1BE03B6859883B689A880D
:101A6C003B681B89786801F06FF93B68DB88786804
:101A7C00194600F0CBFF3B681B89F989BA89786855
:101A8C0001F0F2F83B68DB887868194600F0A2FF99
:101A9C001037BD4680BD00BF80B483B000AF786006
:101AAC0039603B681A883B685B8813439AB23B6881
:101ABC009B8813439AB23B68DB8813439AB23B680A
:101ACC001B8913439AB23B685B8913439AB23B68F8
:101ADC009B8913439AB27B68A3F844200C37BD460C
:101AEC005DF8047B704700BF80B483B000AF7860B2
:101AFC007B684FF6FF729A807B6800221A807B68A5
:101B0C000022DA807B6800225A807B6800221A72DD
:101B1C000C37BD465DF8047B704700BF80B483B0C2
:101B2C0000AF78607B6800221A807B6800225A80A4
:101B3C007B6800229A807B680022DA807B68002216
:101B4C001A817B6800225A817B6800229A817B680B
:101B5C000022DA810C37BD465DF8047B704700BF6C
:101B6C0080B483B000AF78607B6800221A807B68F9
:101B7C0000225A807B6801229A807B680022DA80DE
:101B8C007B6800221A810C37BD465DF8047B7047D8
:101B9C0080B483B000AF78607B6800221A807B68C9
:101BAC0000225A807B6800229A807B680022DA80AF
:101BBC007B6800221A817B6800225A817B68002294
:101BCC009A810C37BD465DF8047B704780B483B0B6
:101BDC0000AF78600B46FB70FB78002B08D07B685D
:101BEC001B889BB243F001039AB27B681A8007E012
:101BFC007B681B889BB223F001039AB27B681A8026
:101C0C000C37BD465DF8047B704700BF80B483B0D1
:101C1C0000AF78600B46FB70FB78002B0CD07B6818
:101C2C00B3F844309BB26FEA43436FEA53439AB222
:101C3C007B68A3F8442009E07B68B3F844309BB27E
:101C4C00C3F30E039AB27B68A3F844200C37BD464D
:101C5C005DF8047B704700BF80B483B000AF786040
:101C6C000B467B8013467B707B78002B08D07B68FF
:101C7C009B899AB27B8813439AB27B689A8109E05C
:101C8C007B689B899AB27B88DB439BB213409AB2E8
:101C9C007B689A810C37BD465DF8047B704700BFAA
:101CAC0080B483B000AF78600B467B807B687A8809
:101CBC009A820C37BD465DF8047B704780B483B0C4
:101CCC0000AF78600B467B8013463B807A883B885C
:101CDC0013439AB27B68A3F848200C37BD465DF8D5
:101CEC00047B704780B483B000AF78600B467B8078
:101CFC0013467B707B78002B08D07B689B899AB24B
:101D0C007B8813439AB27B689A8109E07B689B8934
:101D1C009AB27B88DB439BB213409AB27B689A8160
:101D2C000C37BD465DF8047B704700BF80B483B0B0
:101D3C0000AF78607B681B899BB223F007039AB2D3
:101D4C007B681A810C37BD465DF8047B704700BF79
:101D5C0080B582B000AF78600B467B807B8878685A
:101D6C00194600F0E1F87B681B899BB243F007032E
:101D7C009AB27B681A810837BD4680BD80B584B0A5
:101D8C0000AFF860084611461A4603467B810B46A5
:101D9C003B811346FB807B89602B07D13A89FB88FA
:101DAC00F8681146012200F0CFFF06E03A89FB8863
:101DBC00F8681146012200F057FF7B89F868194634
:101DCC0000F0B2F8FB681B899BB243F007039AB290
:101DDC00FB681A811037BD4680BD00BF80B586B048
:101DEC0000AFF860084611461A4603467B810B4645
:101DFC003B811346FB800023FB8279893A89FB885F
:101E0C00F86800F037F8FB681B89FB82FB8A23F02B
:101E1C000703FB82FB8A43F00703FB82FB8A23F058
:101E2C007003FB82FB8A43F07003FB82FB68FA8A27
:101E3C001A811837BD4680BD80B584B000AFF860FC
:101E4C00084611461A4603467B810B463B811346D6
:101E5C00FB8079893A89FB88F86800F00BF8FB68FD
:101E6C001B899BB243F480439AB2FB681A811037EA
:101E7C00BD4680BD80B487B000AFF86008461146FF
:101E8C001A4603467B810B463B811346FB8000239D
:101E9C00FB82FB681B89FB82FB8ADBB2FB82FB8823
:101EAC001B029AB23B8913439AB27B8913439AB2B1
:101EBC00FB8A1343FB82FB68FA8A1A811C37BD46E6
:101ECC005DF8047B704700BF80B483B000AF7860CE
:101EDC000B467B8013463B807B687A881A857B682F
:101EEC003A889A820C37BD465DF8047B704700BF78
:101EFC0080B485B000AF78600B467B800023FB81FB
:101F0C007B681B88FB81FB8923F07003FB81FA89BA
:101F1C007B881343FB817B68FA891A801437BD4692
:101F2C005DF8047B704700BF80B485B000AF78606B
:101F3C000B467B800023FB817B681B89FB81FB8923
:101F4C0023F07003FB81FA897B881343FB817B6848
:101F5C00FA891A811437BD465DF8047B704700BFBF
:101F6C0080B487B000AFF860084611461A460346A5
:101F7C007B810B463B811346FB800023FB820023B5
:101F8C00BB8200237B82FB681B89FB82FB681B8B5B
:101F9C00BB82FB681B8C7B82FB8A23F00703FB82D2
:101FAC00FA8A7B891343FB82BB8A23F4407323F0A8
:101FBC000303BB82BB8A43F4807343F00103BB82EF
:101FCC007B8A23F022037B82FB881B019AB23B891C
:101FDC0013439AB27B8A13437B82FB68FA8A1A8179
:101FEC00FB68BA8A1A83FB687A8A1A841C37BD4646
:101FFC005DF8047B704700BF80B485B000AF78609B
:10200C000B467B800023FB817B681B8BFB81FB8950
:10201C0023F07003FB81FA897B881343FB817B6877
:10202C00FA891A831437BD465DF8047B704700BFEC
:10203C0080B485B000AF78600B467B800023FB81B9
:10204C007B681B8BFB81FB8923F4E043FB817B8842
:10205C001B029AB2FB891343FB817B68FA891A83B2
:10206C001437BD465DF8047B704700BF80B485B063
:10207C0000AF78600B467B800023FB817B689B8BD9
:10208C00FB81FB8923F07003FB81FA897B88134366
:10209C00FB817B68FA899A831437BD465DF8047B13
:1020AC00704700BF80B485B000AF78600B467B8072
:1020BC000023FB817B689B8BFB81FB8923F4E04332
:1020CC00FB817B881B029AB2FB891343FB817B68E3
:1020DC00FA899A831437BD465DF8047B704700BFBC
:1020EC0080B483B000AF78600B46FB70FB78002B9C
:1020FC0008D07B681B889BB243F080039AB27B6844
:10210C001A8007E07B681B889BB223F080039AB28D
:10211C007B681A800C37BD465DF8047B704700BFA6
:10212C0080B483B000AF78600B46FB70FB78002B5B
:10213C0008D07B689B889BB243F004039AB27B68FF
:10214C009A8007E07B689B889BB223F004039AB2C9
:10215C007B689A800C37BD465DF8047B704700BFE6
:10216C0080B483B000AF78600B46FB70FB78002B1B
:10217C0008D07B689B889BB243F008039AB27B68BB
:10218C009A8007E07B689B889BB223F008039AB285
:10219C007B689A800C37BD465DF8047B704700BFA6
:1021AC0080B483B000AF78600B46FB70FB78002BDB
:1021BC0008D07B689B889BB243F001039AB27B6882
:1021CC009A8007E07B689B889BB223F001039AB24C
:1021DC007B689A800C37BD465DF8047B704700BF66
:1021EC0080B485B000AF78600B467B800023FB8108
:1021FC007B681B8BFB81FB8923F00803FB81FA892D
:10220C007B881343FB817B68FA891A831437BD469C
:10221C005DF8047B704700BF80B485B000AF786078
:10222C000B467B800023FB817B681B8BFB81FB892E
:10223C0023F40063FB817B881B029AB2FB89134356
:10224C00FB817B68FA891A831437BD465DF8047BE1
:10225C00704700BF80B485B000AF78600B467B80C0
:10226C000023FB817B689B8BFB81FB8923F008039C
:10227C00FB81FA897B881343FB817B68FA899A83FB
:10228C001437BD465DF8047B704700BF80B485B041
:10229C0000AF78600B467B800023FB817B689B8BB7
:1022AC00FB81FB8923F40063FB817B881B029AB2C0
:1022BC00FB891343FB817B68FA899A831437BD46EB
:1022CC005DF8047B704700BF80B485B000AF7860C8
:1022DC000B467B800023FB817B681B8BFB81FB897E
:1022EC0023F00403FB81FA897B881343FB817B6811
:1022FC00FA891A831437BD465DF8047B704700BF1A
:10230C0080B485B000AF78600B467B800023FB81E6
:10231C007B681B8BFB81FB8923F48063FB817B88AF
:10232C001B029AB2FB891343FB817B68FA891A83DF
:10233C001437BD465DF8047B704700BF80B485B090
:10234C0000AF78600B467B800023FB817B689B8B06
:10235C00FB81FB8923F00403FB81FA897B881343FF
:10236C00FB817B68FA899A831437BD465DF8047B40
:10237C00704700BF80B485B000AF78600B467B809F
:10238C000023FB817B689B8BFB81FB8923F480639F
:10239C00FB817B881B029AB2FB891343FB817B6810
:1023AC00FA899A831437BD465DF8047B704700BFE9
:1023BC0080B485B000AF78600B467B800023FB8136
:1023CC007B681B8BFB81FB8923F08003FB81FA89E3
:1023DC007B881343FB817B68FA891A831437BD46CB
:1023EC005DF8047B704700BF80B485B000AF7860A7
:1023FC000B467B800023FB817B681B8BFB81FB895D
:10240C00C3F30E03FB817B881B029AB2FB89134337
:10241C00FB817B68FA891A831437BD465DF8047B0F
:10242C00704700BF80B485B000AF78600B467B80EE
:10243C000023FB817B689B8BFB81FB8923F0800352
:10244C00FB81FA897B881343FB817B68FA899A8329
:10245C001437BD465DF8047B704700BF80B485B06F
:10246C0000AF78600B467B800023FB817B689B8BE5
:10247C00FB81FB89C3F30E03FB817B881B029AB2A1
:10248C00FB891343FB817B68FA899A831437BD4619
:10249C005DF8047B704700BF80B485B000AF7860F6
:1024AC000B467B800023FB817B681B8CFB81FB89AB
:1024BC0023F00203FB81FA897B881343FB817B6841
:1024CC00FA891A841437BD465DF8047B704700BF47
:1024DC0080B485B000AF78600B467B800023FB8115
:1024EC007B681B8CFB81FB8923F00803FB81FA8939
:1024FC007B881343FB817B68FA891A841437BD46A9
:10250C005DF8047B704700BF80B485B000AF786085
:10251C000B467B800023FB817B681B8CFB81FB893A
:10252C0023F02003FB817B881B019AB2FB891343A8
:10253C00FB817B68FA891A841437BD465DF8047BED
:10254C00704700BF80B485B000AF78600B467B80CD
:10255C000023FB817B681B8CFB81FB8923F08003B0
:10256C00FB817B881B019AB2FB891343FB817B683F
:10257C00FA891A841437BD465DF8047B704700BF96
:10258C0080B485B000AF78600B467B800023FB8164
:10259C007B681B8CFB81FB8923F40073FB817B889C
:1025AC001B029AB2FB891343FB817B68FA891A845C
:1025BC001437BD465DF8047B704700BF80B485B00E
:1025CC0000AF78600B467B800023FB817B681B8C03
:1025DC00FB81FB8923F40063FB817B881B029AB28D
:1025EC00FB891343FB817B68FA891A841437BD4637
:1025FC005DF8047B704700BF80B485B000AF786095
:10260C000B467B800023FB817B681B8CFB81FB8949
:10261C0023F40053FB817B881B039AB2FB89134381
:10262C00FB817B68FA891A841437BD465DF8047BFC
:10263C00704700BF80B485B000AF78600B467B80DC
:10264C0013463B800023FB817B88012202FA03F3B3
:10265C00FB817B681B8C9AB2FB89DB439BB21340DA
:10266C009AB27B681A847B681B8C9AB239887B88F7
:10267C0001FA03F39BB213439AB27B681A841437A2
:10268C00BD465DF8047B704780B485B000AF7860C0
:10269C000B467B8013463B800023FB817B88042206
:1026AC0002FA03F3FB817B681B8C9AB2FB89DB4338
:1026BC009BB213409AB27B681A847B681B8C9AB2CB
:1026CC0039887B8801FA03F39BB213439AB27B6877
:1026DC001A841437BD465DF8047B704780B485B00E
:1026EC0000AF78600B467B8013463B800023FB6079
:1026FC0000237B817B68FB60FB681833FB607B8865
:10270C00012202FA03F37B817B681B8C9AB27B89D2
:10271C00DB439BB213409AB27B681A847B88002BF4
:10272C0002D07B88082B13D17B885B089BB21A469E
:10273C00FB681344FB60FB68FA68126822F07002B5
:10274C001A60FB68FA6811683A880A431A6016E046
:10275C007B88043B9BB25B089BB21A46FB68134414
:10276C00FB60FB68FA68126822F4E0421A60FB68AE
:10277C00FA6812683988090289B20A431A60143758
:10278C00BD465DF8047B704780B483B000AF7860C1
:10279C000B46FB70FB78002B08D07B681B889BB228
:1027AC0043F002039AB27B681A8007E07B681B88AF
:1027BC009BB223F002039AB27B681A800C37BD4699
:1027CC005DF8047B704700BF80B483B000AF7860C5
:1027DC000B467B807B88002B08D07B681B889BB2C8
:1027EC0043F004039AB27B681A8007E07B681B886D
:1027FC009BB223F004039AB27B681A800C37BD4657
:10280C005DF8047B704700BF80B483B000AF786084
:10281C000B46FB70FB78002B08D07B689B889BB227
:10282C0043F080039AB27B689A8007E07B689B88B0
:10283C009BB223F080039AB27B689A800C37BD461A
:10284C005DF8047B704700BF80B483B000AF786044
:10285C000B467B807B681B889BB223F008039AB2E3
:10286C007B681A807B681B889AB27B8813439AB268
:10287C007B681A800C37BD465DF8047B704700BF3F
:10288C0080B483B000AF78600B467B807B689B88FC
:10289C009BB223F070039AB27B689A807B689B880A
:1028AC009AB27B8813439AB27B689A800C37BD46E8
:1028BC005DF8047B704700BF80B483B000AF7860D4
:1028CC000B467B807B681B899BB223F007039AB273
:1028DC007B681A817B681B899AB27B8813439AB2F6
:1028EC007B681A810C37BD465DF8047B704700BFCE
:1028FC0080B483B000AF78600B467B807B681B890B
:10290C009BB223F080039AB27B681A817B681B8987
:10291C009AB27B8813439AB27B681A810C37BD46F6
:10292C005DF8047B704700BF80B483B000AF786063
:10293C000B467B807B687A889A840C37BD465DF8A1
:10294C00047B704780B483B000AF78600B467B800B
:10295C007B687A889A850C37BD465DF8047B704796
:10296C0080B483B000AF78600B467B807B687A883C
:10297C009A860C37BD465DF8047B704780B483B0F3
:10298C0000AF78600B467B807B687A881A870C379F
:10299C00BD465DF8047B704780B483B000AF7860AF
:1029AC000B467B807B687A889A870C37BD465DF82E
:1029BC00047B704780B483B000AF78600B467B809B
:1029CC007B687A88A3F840200C37BD465DF8047B01
:1029DC00704700BF80B483B000AF78600B467B803B
:1029EC007B681B8B9BB223F00C039AB27B681A8317
:1029FC007B681B8B9AB27B8813439AB27B681A83D1
:102A0C000C37BD465DF8047B704700BF80B483B0C3
:102A1C0000AF78600B467B807B681B8B9BB223F4EA
:102A2C0040639AB27B681A837B681B8B9AB27B8853
:102A3C001B029BB213439AB27B681A830C37BD46B8
:102A4C005DF8047B704700BF80B483B000AF786042
:102A5C000B467B807B689B8B9BB223F00C039AB25A
:102A6C007B689A837B689B8B9AB27B8813439AB260
:102A7C007B689A830C37BD465DF8047B704700BFBA
:102A8C0080B483B000AF78600B467B807B689B8BF7
:102A9C009BB223F440639AB27B689A837B689B8BCE
:102AAC009AB27B881B029BB213439AB27B689A83BF
:102ABC000C37BD465DF8047B704700BF80B483B013
:102ACC0000AF78600B467B807B681B889BB223F43D
:102ADC0040739AB27B681A807B681B889AB27B8899
:102AEC0013439AB27B681A800C37BD465DF8047BA1
:102AFC00704700BF80B483B000AF78607B689B8E5A
:102B0C009BB218460C37BD465DF8047B704700BF7E
:102B1C0080B483B000AF78607B681B8F9BB2184683
:102B2C000C37BD465DF8047B704700BF80B483B0A2
:102B3C0000AF78607B689B8F9BB218460C37BD4604
:102B4C005DF8047B704700BF80B483B000AF786041
:102B5C007B68B3F840309BB218460C37BD465DF825
:102B6C00047B704780B483B000AF78607B689B8C2B
:102B7C009BB218460C37BD465DF8047B704700BF0E
:102B8C0080B483B000AF78607B681B8D9BB2184615
:102B9C000C37BD465DF8047B704700BF80B485B030
:102BAC0000AF78600B467B800023FB737B681B8A2D
:102BBC009AB27B8813409BB2002B02D00123FB738B
:102BCC0001E00023FB73FB7B18461437BD465DF810
:102BDC00047B704780B483B000AF78600B467B8079
:102BEC007B88DB439AB27B681A820C37BD465DF852
:102BFC00047B704780B485B000AF78600B467B8057
:102C0C000023FB730023BB8100237B817B681B8A21
:102C1C009AB27B881340BB817B689B899AB27B8874
:102C2C0013407B81BB89002B05D07B89002B02D004
:102C3C000123FB7301E00023FB73FB7B1846143765
:102C4C00BD465DF8047B704780B483B000AF7860FC
:102C5C000B467B807B88DB439AB27B681A820C37ED
:102C6C00BD465DF8047B704780B487B000AFF86058
:102C7C00084611461A4603467B810B463B81134698
:102C8C00FB800023BB820023FB82FB681B8C9BB266
:102C9C0023F001039AB2FB681A84FB681B8BBB827E
:102CAC00FB681B8CFB82BB8A23F0F303BB82FB8883
:102CBC001B019AB23B8913439AB2BB8A1343BB8262
:102CCC00FB681C4A934213D0FB681B4A93420FD0FB
:102CDC00FB68B3F1804F0BD0FB68184A934207D0C6
:102CEC00FB68174A934203D0FB68164A93420BD1F8
:102CFC00FB8A23F00203FB827A89FB8A13439BB283
:102D0C0043F00103FB820AE0FB8A23F00A03FB82F7
:102D1C007A89FB8A13439BB243F00103FB82FB6865
:102D2C00BA8A1A83FB68FA8A1A841C37BD465DF886
:102D3C00047B7047002C014000340140000400402B
:102D4C0000080040000C004080B487B000AFF86071
:102D5C00084611461A4603467B810B463B811346B7
:102D6C00FB800023BB820023FB8200237B82FB6859
:102D7C001B8C9BB223F010039AB2FB681A84FB687D
:102D8C001B8BBB82FB681B8CFB827B891B017B82B0
:102D9C00BB8A23F440731B051B0DBB82FB881B03F2
:102DAC009AB2BB8A1343BB823B891B029AB2BB8A81
:102DBC001343BB82FB681C4A934213D0FB681B4A2B
:102DCC0093420FD0FB68B3F1804F0BD0FB68184ACD
:102DDC00934207D0FB68174A934203D0FB68164A0C
:102DEC0093420BD1FB8A23F02003FB827A8AFB8A65
:102DFC0013439BB243F01003FB820AE0FB8A23F0DF
:102E0C00A003FB827A89FB8A13439BB243F0100325
:102E1C00FB82FB68BA8A1A83FB68FA8A1A841C370D
:102E2C00BD465DF8047B7047002C01400034014026
:102E3C000004004000080040000C004080B487B043
:102E4C0000AFF860084611461A4603467B810B46D4
:102E5C003B811346FB800023BB820023FB820023B3
:102E6C007B82FB681B8C9BB223F480739AB2FB6849
:102E7C001A84FB689B8BBB82FB681B8CFB827B8957
:102E8C001B027B82BB8A23F0F303BB82FB881B01F2
:102E9C009AB23B8913439AB2BB8A1343BB82FB6839
:102EAC001C4A934213D0FB681B4A93420FD0FB6819
:102EBC00B3F1804F0BD0FB68184A934207D0FB68E4
:102ECC00174A934203D0FB68164A93420BD1FB8AF4
:102EDC0023F40073FB827A8AFB8A13439BB243F47C
:102EEC008073FB820AE0FB8A23F42063FB827A89DD
:102EFC00FB8A13439BB243F48073FB82FB68BA8A50
:102F0C009A83FB68FA8A1A841C37BD465DF8047BE9
:102F1C00704700BF002C0140003401400004004009
:102F2C0000080040000C004080B487B000AFF8608F
:102F3C00084611461A4603467B810B463B811346D5
:102F4C00FB800023BB820023FB8200237B82FB6877
:102F5C001B8C9BB223F480539AB2FB681A84FB68D7
:102F6C009B8BBB82FB681B8CFB827B891B037B824C
:102F7C00BB8A23F440731B051B0DBB823B891B02D0
:102F8C009AB2BB8A1343BB82FB881B039AB2BB8ADF
:102F9C001343BB82FB681D4A934213D0FB681C4A47
:102FAC0093420FD0FB68B3F1804F0BD0FB68194AEA
:102FBC00934207D0FB68184A934203D0FB68174A28
:102FCC0093420BD1FB8A23F40053FB827A8AFB8A4F
:102FDC0013439BB243F48053FB820CE0FB8A23F433
:102FEC0000735B045B0CFB827A89FB8A13439BB2F4
:102FFC0043F48053FB82FB68BA8A9A83FB68FA8A93
:10300C001A841C37BD465DF8047B7047002C0140C8
:10301C00003401400004004000080040000C004057
:10302C0080B582B000AF78607B682F4A934208D19C
:10303C000420012100F066FE0420002100F062FE55
:10304C004EE07B68294A934208D10820012100F008
:10305C0059FE0820002100F055FE41E07B68244A0F
:10306C00934208D11020012100F04CFE10200021C9
:10307C0000F048FE34E07B681E4A934208D12020C1
:10308C00012100F03FFE2020002100F03BFE27E054
:10309C007B68194A934208D14020012100F032FE8E
:1030AC004020002100F02EFE1AE07B68134A934268
:1030BC0008D18020012100F025FE8020002100F0A5
:1030CC0021FE0DE07B680E4A934209D14FF48070CB
:1030DC00012100F017FE4FF48070002100F012FE69
:1030EC000837BD4680BD00BF00080140000C014000
:1030FC00001001400014014000180140001C014068
:10310C000020014080B500AF0120012100F0FAFD44
:10311C000120002100F0F6FD80BD00BF80B489B015
:10312C0000AF786039600023FB6100233B61002312
:10313C00BB610023FB6000237B610023BB603B6809
:10314C00DB7803F00F03FB613B68DB7803F01003C3
:10315C00002B05D03B689B781A46FB691343FB6137
:10316C003B681B88DBB2002B44D07B681B687B61FF
:10317C000023BB6138E0BB69012202FA03F3FB6058
:10318C003B681B881A46FB6813403B613A69FB6835
:10319C009A4226D1BB699B00FB60FB680F2202FAA6
:1031AC0003F3BB60BB68DB437A6913407B61FB684C
:1031BC00FA6902FA03F37A6913437B613B68DB78A3
:1031CC00282B05D1BB6901229A407B685A6108E023
:1031DC003B68DB78482B04D1BB6901229A407B68A1
:1031EC001A61BB690133BB61BB69072BC3D97B680F
:1031FC007A691A603B681B88FF2B4AD97B685B682D
:10320C007B610023BB613EE0BB6908331A46012396
:10321C009340FB603B681B881A46FB6813403B617C
:10322C003A69FB689A422BD1BB699B00FB60FB6837
:10323C000F2202FA03F3BB60BB68DB437A691340CD
:10324C007B61FB68FA6902FA03F37A6913437B61C9
:10325C003B68DB78282B07D1BB6908331A4601235E
:10326C0003FA02F27B685A613B68DB78482B07D182
:10327C00BB6908331A46012303FA02F27B681A6110
:10328C00BB690133BB61BB69072BBDD97B687A690C
:10329C005A602437BD465DF8047B704780B483B018
:1032AC0000AF78607B684FF6FF721A807B68022251
:1032BC009A707B680422DA700C37BD465DF8047B8B
:1032CC00704700BF80B485B000AF78600B467B8040
:1032DC000023FB737B689A687B881340002B02D019
:1032EC000123FB7301E00023FB73FB7B18461437AF
:1032FC00BD465DF8047B704780B483B000AF786046
:10330C007B689B689BB218460C37BD465DF8047B06
:10331C00704700BF80B485B000AF78600B467B80EF
:10332C000023FB737B68DA687B881340002B02D088
:10333C000123FB7301E00023FB73FB7B184614375E
:10334C00BD465DF8047B704780B483B000AF7860F5
:10335C007B68DB689BB218460C37BD465DF8047B76
:10336C00704700BF80B483B000AF78600B467B80A1
:10337C007A887B681A610C37BD465DF8047B704710
:10338C0080B483B000AF78600B467B807A887B6812
:10339C005A610C37BD465DF8047B704780B483B02E
:1033AC0000AF78600B467B8013467B707B78002BDC
:1033BC0003D07A887B681A6102E07A887B685A614C
:1033CC000C37BD465DF8047B704700BF80B483B0FA
:1033DC0000AF78600B467B807A887B68DA600C37AC
:1033EC00BD465DF8047B704780B485B000AF786053
:1033FC000B467B804FF48033FB607B88FA68134369
:10340C00FB607B68FA689A617A887B689A617B6852
:10341C00FA689A617B689B69FB607B689B69FB60BF
:10342C001437BD465DF8047B704700BF80B485B08F
:10343C0000AF03460A46FB711346BB710023FB60C9
:10344C000C4B1B68FB60FA684FF680731340FB60F3
:10345C00FB791B01FA681343FB60BB79FA681343D1
:10346C00FB60044AFB6813601437BD465DF8047BAF
:10347C00704700BF0000014080B483B000AF03462A
:10348C00FB71044AFB7913600C37BD465DF8047B75
:10349C00704700BF1C00204280B487B000AF78603A
:1034AC000B46FB7000233B610023FB6000237B6118
:1034BC000023BB607B68002B03DA2E4BDB697B613E
:1034CC0002E02C4B5B687B617B6803F470231B0C64
:1034DC00BB607B689BB23B617B6803F44013B3F524
:1034EC00401F0AD17B6923F070637B61214A214B19
:1034FC005B6823F07063536021E07B6803F48013F6
:10350C00002B0ED0BB68032202FA03F3FB60FB68AE
:10351C00DB437A6913407B617B6943F070637B61A9
:10352C000DE07B685B0D1B011A463B699340DB4346
:10353C007A6913407B617B6943F070637B61FB7834
:10354C00002B08D07B685B0D1B011A463B6993402E
:10355C007A6913437B617B68002B03DA054A7B692C
:10356C00D36102E0034A7B6953601C37BD465DF8AA
:10357C00047B70470000014090B484B000AF034658
:10358C000A46FB711346BB710023FB60BB7903F049
:10359C0003039B000F2202FA03F3FB601649BB796D
:1035AC009B08DBB21846144ABB799B08DBB202338A
:1035BC0052F82320FB68DB431A40831C41F823207C
:1035CC000D48BB799B08DBB21C460B4ABB799B08A8
:1035DC00DBB2023352F82320F979BB7903F00303F1
:1035EC009B0001FA03F31A43A31C40F82320103765
:1035FC00BD4690BC704700BF0000014080B483B052
:10360C0000AF7860034A7B6813600C37BD465DF8E9
:10361C00047B7047DC00204280B483B000AF78603C
:10362C000B46FB70FB78002B08D07B681B889BB289
:10363C0043F040039AB27B681A8007E07B681B88D2
:10364C009BB223F040039AB27B681A800C37BD46BC
:10365C005DF8047B704700BF80B58AB000AFF8609E
:10366C00084611461A4603467B810B463B8113469E
:10367C00FB807B89FB823B893B83FB883B843B8EB5
:10368C007B84BB8E032B1FD801A252F823F000BF02
:10369C00AD360008B7360008C1360008CB36000836
:1036AC0000237B830023BB830FE000237B83012358
:1036BC00BB830AE002237B830023BB8305E0022348
:1036CC007B830123BB8300E000BF0023BB8200236C
:1036DC00FB830723BB8407F11403F868194600F039
:1036EC0065FF2837BD4680BD80B400AF134A134B2D
:1036FC001B6843F0010313601049104B5A68104BC0
:10370C0013404B600D4A0D4B1B6823F0847323F45C
:10371C0080331360094A094B1B6823F48023136020
:10372C00064A064B5B6823F4FE035360034B4FF4CD
:10373C001F029A60BD465DF8047B70470010024082
:10374C000000FFF880B483B000AF7860134A134BCD
:10375C001B6823F480331360104A104B1B6823F44E
:10376C00802313607B68B3F5803F03D0B3F5802FC3
:10377C0007D00DE0094A094B1B6843F480331360F2
:10378C0006E0064A054B1B6843F4A023136000BFF8
:10379C000C37BD465DF8047B704700BF001002403B
:1037AC0080B582B000AF00233B600023FB71002387
:1037BC00BB71312000F012FB0346BB713B68013337
:1037CC003B603B68B3F5A06F02D0BB79002BF0D007
:1037DC00312000F003FB0346002B02D00123FB71C8
:1037EC0001E00023FB71FB7918460837BD4680BD0C
:1037FC0080B485B000AF0346FB710023FB600A4B1D
:10380C001B68FB60FB6823F0F803FB60FB79DB00B3
:10381C00FA681343FB60044AFB6813601437BD4617
:10382C005DF8047B704700BF0010024080B483B089
:10383C0000AF0346FB71044AFB7913600C37BD469D
:10384C005DF8047B704700BF0000424280B485B035
:10385C0000AF786039600023FB600A4B5B68FB604B
:10386C00FB6823F47C13FB607A683B681343FA68AB
:10387C001343FB60034AFB6853601437BD465DF885
:10388C00047B70470010024080B483B000AF034645
:10389C00FB71044AFB7913600C37BD465DF8047B61
:1038AC00704700BF6000424280B485B000AF7860C2
:1038BC000023FB60094B5B68FB60FB6823F0030390
:1038CC00FB60FA687B681343FB60044AFB68536037
:1038DC001437BD465DF8047B704700BF00100240F2
:1038EC0080B400AF054B5B68DBB203F00C03DBB2BA
:1038FC001846BD465DF8047B704700BF00100240BF
:10390C0080B485B000AF78600023FB60094B5B6826
:10391C00FB60FB6823F0F003FB60FA687B681343E1
:10392C00FB60044AFB6853601437BD465DF8047BAA
:10393C00704700BF0010024080B485B000AF7860C3
:10394C000023FB60094B5B68FB60FB6823F4E063BE
:10395C00FB60FA687B681343FB60044AFB685360A6
:10396C001437BD465DF8047B704700BF0010024061
:10397C0080B485B000AF78600023FB60094B5B68B6
:10398C00FB60FB6823F46053FB607B68DB00FA6828
:10399C001343FB60034AFB6853601437BD465DF864
:1039AC00047B70470010024080B483B000AF034624
:1039BC000A46FB711346BB71BB79002B08D00C492E
:1039CC000B4B1B78DAB2FB791343DBB20B7009E0BB
:1039DC000749074B1B78DAB2FB79DB43DBB21340A8
:1039EC00DBB20B700C37BD465DF8047B704700BF33
:1039FC000910024080B483B000AF7860034A7B6842
:103A0C0013600C37BD465DF8047B7047D80042420A
:103A1C0080B485B000AF78600023FB60094B5B6815
:103A2C00FB60FB6823F44043FB60FA687B6813433C
:103A3C00FB60044AFB6853601437BD465DF8047B99
:103A4C00704700BF0010024080B483B000AF034643
:103A5C00FB710C4B00221A700A4B00221A70FB7976
:103A6C00012B02D0042B04D007E0064B01221A7064
:103A7C0003E0044B05221A7000BF0C37BD465DF8FD
:103A8C00047B70472010024080B483B000AF034623
:103A9C00FB71044AFB7913600C37BD465DF8047B5F
:103AAC00704700BF8004424280B483B000AF78609E
:103ABC000549054B1A6A7B6813430B620C37BD46EC
:103ACC005DF8047B704700BF0010024080B483B0E7
:103ADC0000AF0346FB71044AFB7913600C37BD46FB
:103AEC005DF8047B704700BF3C04424280B487B051
:103AFC0000AF786000237B6100233B610023FB60F7
:103B0C000023BB604D4B5B6803F00C037B617B694E
:103B1C00042B07D0082B09D0002B34D17B68484AE2
:103B2C001A6034E07B68464A1A6030E0434B5B68AD
:103B3C0003F470133B61414B5B6803F48033FB600F
:103B4C003B699B0C02333B61FB68002B06D13B6944
:103B5C003C4A02FB03F27B681A6013E0374B5B684C
:103B6C0003F40033002B06D03B69364A02FB03F208
:103B7C007B681A6006E03B69314A02FB03F27B6802
:103B8C001A6004E003E07B682D4A1A6000BF2B4BDF
:103B9C005B6803F0F0037B617B691B097B612A4A3C
:103BAC007B6913441B78DBB2BB607B681A68BB680B
:103BBC00DA407B685A60214B5B6803F4E0637B61FD
:103BCC007B691B0A7B61204A7B6913441B78DBB23F
:103BDC00BB607B685A68BB68DA407B689A60174B9D
:103BEC005B6803F460537B617B69DB0A7B61164A7B
:103BFC007B6913441B78DBB2BB607B685A68BB687B
:103C0C00DA407B68DA600D4B5B6803F440437B6100
:103C1C007B699B0B7B610D4A7B6913441B78DBB280
:103C2C00BB607B68DA68BB68B2FBF3F27B681A6135
:103C3C001C37BD465DF8047B704700BF0010024086
:103C4C0000127A0000093D0014000020240000201E
:103C5C0080B483B000AF78600B46FB70FB78002B10
:103C6C0006D00949084B5A697B6813434B6106E03F
:103C7C000549054B5A697B68DB4313404B610C3794
:103C8C00BD465DF8047B70470010024080B483B0E1
:103C9C0000AF78600B46FB70FB78002B06D009490F
:103CAC00084B9A697B6813438B6106E00549054B09
:103CBC009A697B68DB4313408B610C37BD465DF81A
:103CCC00047B70470010024080B483B000AF786072
:103CDC000B46FB70FB78002B06D00949084BDA69C0
:103CEC007B681343CB6106E00549054BDA697B68B9
:103CFC00DB431340CB610C37BD465DF8047B70474A
:103D0C000010024080B483B000AF78600B46FB70AB
:103D1C00FB78002B06D00949084BDA687B68134303
:103D2C00CB6006E00549054BDA687B68DB43134042
:103D3C00CB600C37BD465DF8047B70470010024029
:103D4C0080B483B000AF78600B46FB70FB78002B1F
:103D5C0006D00949084B1A697B6813430B6106E0CE
:103D6C000549054B1A697B68DB4313400B610C3723
:103D7C00BD465DF8047B70470010024080B483B0F0
:103D8C0000AF0346FB71044AFB7913600C37BD4648
:103D9C005DF8047B704700BF4004424280B483B09E
:103DAC0000AF0346FB71044AFB7913600C37BD4628
:103DBC005DF8047B704700BF4C00424280B483B076
:103DCC0000AF0346FB71044AFB7913700C37BD46F8
:103DDC005DF8047B704700BF0710024080B487B0C9
:103DEC0000AF0346FB710023FB6000237B610023C3
:103DFC00FB74FB795B09DBB2FB60FB68012B03D125
:103E0C00124B1B687B6109E0FB68022B03D10F4B43
:103E1C001B6A7B6102E00D4B5B6A7B61FB7903F0F3
:103E2C001F03FB60FB687A6922FA03F303F00103BA
:103E3C00002B02D00123FB7401E00023FB74FB7CFC
:103E4C0018461C37BD465DF8047B704700100240D5
:103E5C0080B400AF044A044B5B6A43F08073536236
:103E6C00BD465DF8047B70470010024080B485B0FD
:103E7C0000AF0346FB710023FB73094B9A68FB7977
:103E8C001340002B02D00123FB7301E00023FB73D2
:103E9C00FB7B18461437BD465DF8047B704700BFAA
:103EAC000010024080B483B000AF0346FB71044A9B
:103EBC00FB7913700C37BD465DF8047B704700BF6F
:103ECC000A10024080B582B000AF182001F022F930
:103EDC0003467B607B6800225A607B6800221A6074
:103EEC007B6800229A607B680022DA607B68002283
:103EFC005A617B6818460837BD4680BD80B584B0D2
:103F0C0000AF7860142001F005F90346FB607B6874
:103F1C009AB2FB681A82FB6800221A60FB680022C6
:103F2C005A60FB6818461037BD4680BD80B483B01C
:103F3C0000AF786039607B681B68002B0FD17B6801
:103F4C003A681A607B681B683A685A607B681A6822
:103F5C003B681A607B681A683B685A6011E07B68A2
:103F6C001B685B683A681A607B681B685A683B6818
:103F7C005A607B681B683A685A607B681A683B68B1
:103F8C001A607B685B695A1C7B685A610C37BD46AA
:103F9C005DF8047B704700BF80B483B000AF7860DD
:103FAC007B685B687A6812681A607B681B687A6841
:103FBC0052685A607B6800221A607B6800225A6043
:103FCC000C37BD465DF8047B704700BF80B582B0EE
:103FDC0000AF786039603B681A683B689A4211D030
:103FEC007B681B68002B09D07B681A683B689A4277
:103FFC0004D17B681B681A687B681A603868FFF705
:10400C00CBFF0AE07B681B6800221A607B681B6888
:10401C0000225A607B6800221A607B685B695A1E1A
:10402C007B685A610837BD4680BD00BF80B483B041
:10403C0000AF03460A46FB801346BB80FA88BB8858
:10404C009A4204D9FA88BB8813449BB209E0FA88D7
:10405C00BB889A4204D2BA88FB88D31A9BB200E080
:10406C00002318460C37BD465DF8047B704700BF33
:10407C00B0B582B000AF78607B681B68332B0ED074
:10408C00392B02D0002B20D100E000BF7B689B6A4B
:10409C00184600F021F87B6833221A6015E07B6823
:1040AC001D1D7B689C690A4B1A880A4B1B8810469D
:1040BC001946FFF7BBFF0346E31A28461946FCF7DF
:1040CC00BBFF7B6839221A6000BF0837BD46B0BD04
:1040DC008E0800208C08002090B583B000AF78606B
:1040EC0010480021FCF75EF97B6808331846FCF792
:1040FC0037FA0C4B5B687A681268C2F10302934280
:10410C0008D37B681C68786800F0F8F803461A46F8
:10411C00054B1A5503480121FCF744F90C37BD46F1
:10412C0090BD00BF30000240E408002080B483B092
:10413C0000AF78607B681A7F7B6893F8213013435B
:10414C00DAB27B689B7F1343DAB27B68DB7F134365
:10415C00DAB27B6893F820301343DBB218460C3785
:10416C00BD465DF8047B704780B584B000AF7860C5
:10417C007868FFF7DBFF0346FB737B689B6AFA7B6F
:10418C0042F04002D2B21A777B689B6AFA7B22F02B
:10419C004002D2B25A771037BD4680BD80B582B08E
:1041AC0000AF78600B46FB701346BB707B68FA78E7
:1041BC001A777B68BA7883F821207B6820229A775B
:1041CC007B681022DA777B68002283F820207868DD
:1041DC00FFF7CAFF0837BD4680BD00BF80B584B06D
:1041EC0000AF2A4B1B681B68DB68184600F078F898
:1041FC00786027480021FCF7D5F800F05DF94FF402
:10420C000070FCF793F922480321FCF7EDFE1F4BDD
:10421C001B685B69FB601D4B1B681B68BB6024E063
:10422C00BB681B683B60BB68DB68184600F058F83D
:10423C0003465B68012B13DD144B1B681846B968E9
:10424C00FFF7C4FEBB689B68BA68D26810469847F3
:10425C00BB68DB68184600F043F802460023536045
:10426C00FB68013BFB603B68BB60FB68002BD7DC49
:10427C00064B1B681B68002B05D000F00BF804489C
:10428C000121FCF78FF81037BD4680BDC80800200F
:10429C003000024090B583B000AF0F4B1B681B6819
:1042AC007B607B68DB68184600F01AF838603B6866
:1042BC001C68386800F022F803461A46074B1A555A
:1042CC007B681B687B60044B1B681A687B689A428E
:1042DC00E7D10C37BD4690BDC8080020E40800208B
:1042EC0080B485B000AF78607B68FB60FB689B6A2C
:1042FC0018461437BD465DF8047B704780B485B012
:10430C0000AF78607B685B68002B03D17B685B7FB8
:10431C00FB7302E07B681B7FFB737B685B685A1C3A
:10432C007B685A60FB7B18461437BD465DF8047BEE
:10433C00704700BF80B586B000AFF860B9607A6096
:10434C002C2000F0E7FE03467B617B6980221A7704
:10435C007B6900225A777B6920229A777B6900223D
:10436C0083F821207B691022DA777B69002283F89D
:10437C002020BA687B699A617B6900221A607B698C
:10438C0000225A607B6900229A607B6900229A8223
:10439C00FA687B69DA607B697A691A617869F9680D
:1043AC007A6800F009F802467B699A627B691846C4
:1043BC001837BD4680BD00BF80B586B000AFF86031
:1043CC00B9607A60202000F0A5FE03467B617B6912
:1043DC0000225A607B697A681A607B6900221A771E
:1043EC007B6900225A777B6900229A607B690022E4
:1043FC00DA60BA687B691A617B69FA685A617B6911
:10440C0018461837BD4680BD80B483B000AF7860C5
:10441C007B687A681A610C37BD465DF8047B70477F
:10442C0080B483B000AF786039603A687B689A607A
:10443C000C37BD465DF8047B704700BF80B483B079
:10444C0000AF786039603A687B689A610C37BD467A
:10445C005DF8047B704700BF80B483B000AF0346A7
:10446C00FB710B46BB7113467B71FA79BB79134315
:10447C00DAB27B791343DBB243F01003DBB218469C
:10448C000C37BD465DF8047B704700BF80B582B029
:10449C0000AF78600B467B800648022100F044FB9D
:1044AC000346002B02D07B687A889A810837BD4678
:1044BC0080BD00BF0030014080B500AF0448102122
:1044CC00FEF75EFF02481021FEF74CFF80BD00BFD7
:1044DC000008014080B483B000AF78607B681A7F1D
:1044EC007B689B7F1343DAB27B6893F821301343CC
:1044FC00DBB243F01003DBB218460C37BD465DF857
:10450C00047B704780B582B000AFA023FB71FB79B0
:10451C009BB20848194600F013FA00BF0548022167
:10452C0000F002FB0346002BF8D0FFF7C5FF08375D
:10453C00BD4680BD0030014080B582B000AF7860D0
:10454C007B68174A93420AD14FF480500121FFF740
:10455C00D9FB4FF480500021FFF7D4FB1CE07B68A3
:10456C00104A93420AD14FF480400121FFF7E8FB37
:10457C004FF480400021FFF7E3FB0DE07B680A4A13
:10458C00934209D14FF400400121FFF7D9FB4FF4BE
:10459C0000400021FFF7D4FB0837BD4680BD00BFAB
:1045AC000030014000380040003C004080B485B031
:1045BC0000AF786039600023FB817B681B88FB812E
:1045CC00FB8903F44153FB813B681A883B685B8889
:1045DC0013439AB23B689B8813439AB23B68DB88BF
:1045EC0013439AB23B681B8913439AB23B685B89AD
:1045FC0013439AB23B689B8913439AB23B68DB899D
:10460C0013439AB2FB891343FB817B68FA891A80A6
:10461C007B689B8B9BB223F400639AB27B689A8372
:10462C003B681A8A7B681A821437BD465DF8047B96
:10463C00704700BF80B58CB000AF78603960002344
:10464C007B840223FB850023BB8501237B85002310
:10465C007B620023FB617B689B8B9BB223F47B63A7
:10466C0023F00F039AB27B689A837B6802221A8428
:10467C007B689B8B7B843B689B68022B04D100235B
:10468C00BB850223FB8555E03B689B88002B02D140
:10469C0001237B8501E002237B857B683C4A9342A6
:1046AC0003D14FF400337B6202E04FF480237B6232
:1046BC0007F108031846FFF719FABB68FB613B6862
:1046CC00DB88B3F5007F0FD1FB691A0A13469B00F8
:1046DC0013445B001A463B689B68B2FBF3F39BB236
:1046EC0005339BB27B6212E07B8D5B011A46FB6942
:1046FC00B3FBF2F213469B0013445B001A463B6873
:10470C009B68B2FBF3F39BB205339BB27B627B6A73
:10471C00204AA2FB0323DB087B627B6A9BB203F07B
:10472C000103BB85BB8D7A6AD31A5B08FB85BB8DF5
:10473C001B02BB85FB8D012B02D9FB8DFF2B03D9F3
:10474C000223FB850023BB853B68DA88BB8D1343B2
:10475C009AB2FB8D13439AB27B681A843B681A8811
:10476C003B6859883B6898883B689B8903439BB29C
:10477C000B439BB213439AB27B8C13439BB243F40F
:10478C0000637B847B687A8C9A833037BD4680BD0E
:10479C0000380040CDCCCCCC80B483B000AF786076
:1047AC007B6800221A807B6800225A807B6800227A
:1047BC009A807B680022DA807B6800221A817B68F1
:1047CC0000225A817B6800229A817B680022DA8160
:1047DC007B6807221A820C37BD465DF8047B704754
:1047EC0080B483B000AF78607B6800221A807B684D
:1047FC0000225A807B6800229A807B680022DA8033
:10480C007B6802229A607B6800229A810C37BD4635
:10481C005DF8047B704700BF80B483B000AF786054
:10482C000B46FB70FB78002B08D07B681B889BB277
:10483C0043F040039AB27B681A8007E07B681B88C0
:10484C009BB223F040039AB27B681A800C37BD46AA
:10485C005DF8047B704700BF80B483B000AF786014
:10486C000B46FB70FB78002B08D07B689B8B9BB2B4
:10487C0043F480639AB27B689A8307E07B689B8BD6
:10488C009BB223F480639AB27B689A830C37BD4643
:10489C005DF8047B704700BF80B485B000AF7860D2
:1048AC000B46FB701346BB700023FB810023BB81BE
:1048BC00FB781B09DBB2FB81FB89012202FA03F3B3
:1048CC00BB81BB78002B08D07B689B889AB2BB89D4
:1048DC0013439AB27B689A8009E07B689B889AB2F2
:1048EC00BB89DB439BB213409AB27B689A80143726
:1048FC00BD465DF8047B704780B483B000AF786030
:10490C000B467B8013467B707B78002B08D07B6832
:10491C009B889AB27B8813439AB27B689A8009E091
:10492C007B689B889AB27B88DB439BB213409AB21C
:10493C007B689A800C37BD465DF8047B704700BFDE
:10494C0080B483B000AF78600B467B807B687A883C
:10495C009A810C37BD465DF8047B704780B483B0F8
:10496C0000AF78607B689B899BB218460C37BD46BC
:10497C005DF8047B704700BF80B483B000AF7860F3
:10498C000B467B807B884FF6FF62934208D07B6896
:10499C001B889BB243F480739AB27B681A8007E041
:1049AC007B681B889BB223F480739AB27B681A8055
:1049BC000C37BD465DF8047B704700BF80B483B0F4
:1049CC0000AF78600B46FB70FB78002B08D07B683F
:1049DC009B889BB243F004039AB27B689A8007E0F1
:1049EC007B689B889BB223F004039AB27B689A8005
:1049FC000C37BD465DF8047B704700BF80B483B0B4
:104A0C0000AF78600B467B807B681B889BB223F4DD
:104A1C0000639AB27B681A807B681B889AB27B8889
:104A2C0013439AB27B681A800C37BD465DF8047B41
:104A3C00704700BF80B483B000AF78607B681B8880
:104A4C009BB243F480539AB27B681A800C37BD46F4
:104A5C005DF8047B704700BF80B483B000AF786012
:104A6C000B46FB70FB78002B08D07B681B889BB235
:104A7C0043F400539AB27B681A8007E07B681B886A
:104A8C009BB223F400539AB27B681A800C37BD4654
:104A9C005DF8047B704700BF80B485B000AF7860D0
:104AAC000B46FB700023FB81FB78012B03D07B684A
:104ABC001B8BFB8102E07B689B8AFB81FB89184680
:104ACC001437BD465DF8047B704700BF80B483B0DB
:104ADC0000AF78607B681B8A9BB218460C37BD46CA
:104AEC005DF8047B704700BF80B483B000AF786082
:104AFC000B467B807B88B3F5804F08D17B681B8885
:104B0C009BB243F480439AB27B681A8007E07B68BF
:104B1C001B889BB223F480439AB27B681A800C37B3
:104B2C00BD465DF8047B704780B485B000AF7860FB
:104B3C000B467B800023FB737B681B899AB27B88B6
:104B4C0013409BB2002B02D00123FB7301E0002326
:104B5C00FB73FB7B18461437BD465DF8047B70472E
:104B6C0080B483B000AF78600B467B807B88DB43DE
:104B7C009AB27B681A810C37BD465DF8047B70478E
:104B8C0080B485B000AF78600B46FB700023FB73DC
:104B9C000023BB8100237B8100233B81FB7803F046
:104BAC000F03012202FA03F3BB81FB781B09DBB272
:104BBC007B817B89012202FA03F37B817B689B88D2
:104BCC009AB27B8913403B817B681B899AB2BB8963
:104BDC0013409BB2002B05D03B89002B02D0012344
:104BEC00FB7301E00023FB73FB7B18461437BD46B7
:104BFC005DF8047B704700BF80B485B000AF78606F
:104C0C000B46FB700023FB81FB7803F00F030122A2
:104C1C0002FA03F3FB81FB89DB439AB27B681A81AE
:104C2C001437BD465DF8047B704700BF80B483B079
:104C3C0000AF0346FB71084997F907305B09FA7915
:104C4C0002F01F02012000FA02F241F823200C3777
:104C5C00BD465DF8047B704700E100E080B483B092
:104C6C0000AF03463960FB7197F90730002B0BDA64
:104C7C000D49FB7903F00F03043B3A68D2B21201E1
:104C8C00D2B20B441A7609E0084997F907303A6812
:104C9C00D2B21201D2B20B4483F800230C37BD46BA
:104CAC005DF8047B704700BF00ED00E000E100E020
:104CBC0080B483B000AF0346FB7197F90730002B2B
:104CCC000ADA0D4AFB7903F00F03043B13441B7EF5
:104CDC00DBB21B09DBB208E0084A97F90730134432
:104CEC0093F80033DBB21B09DBB218460C37BD4618
:104CFC005DF8047B704700BF00ED00E000E100E0D0
:104D0C0080B588B000AF0023FB830023BB83002356
:104D1C00BB610023FB820023BB8200237B82002328
:104D2C003B820023FB81FFF7CDF802461C4B1A6037
:104D3C00FFF7C8F802461B4B1A601B4841F2707112
:104D4C000222FFF7F7FAB86017484FF4FA61012214
:104D5C00FFF7F0FA786000F0E3F800F09BF800F051
:104D6C0025F800F05BF8FFF7CDFBB8688021002236
:104D7C00FFF714FA786880210022FFF70FFA42F24D
:104D8C001070FCF7AFF94FF080400121FCF71EFFCB
:104D9C004FF08040FBF75AFC0346BB61F8E700BFBD
:104DAC00C8080020CC0800207D40000880B586B0E3
:104DBC0004AF164802210122FFF79EFD0D200021B1
:104DCC00FFF74CFF0D20FFF773FF78600D20FFF706
:104DDC002DFF01200121FEF73BFF0D48FBF7BEF92B
:104DEC000C4A032300930023019300230293002316
:104DFC000393074808491023FCF7CEF80448022116
:104E0C000122FBF7EBFA0837BD4680BD00300140AC
:104E1C0030000240E40800200C30014080B582B024
:104E2C0000AF1C200021FFF719FF1C20FFF740FFEB
:104E3C0078601C20FFF7FAFE01200121FEF744FFE9
:104E4C0001200021FEF77CFF4FF080400121FDF78F
:104E5C00FBFE4FF080400021FDF766FD4FF08040D7
:104E6C000121FDF7B1FC4FF080400021FDF738F92E
:104E7C004FF0804042F2283100224FF6FF73FBF7CF
:104E8C0099FB4FF0804001210122FCF7E5FE083729
:104E9C00BD4680BD80B582B002AF04200121FEF773
:104EAC00F5FE04200021FEF72DFF1B4810210322E4
:104EBC001023FBF765FB1848202103221823FBF76E
:104ECC005FFB1548402100224823FBF759FB124891
:104EDC00802103221823FBF753FB4FF48050012150
:104EEC00FEF7D4FE4FF480500021FEF70BFF802319
:104EFC0000930023019309484FF482710022002390
:104F0C00FEF7AAFB05480121FFF758FD03480121D4
:104F1C00FEF782FBBD4680BD000801400030014019
:104F2C0080B483B000AF00237B6007E0074A7B6846
:104F3C001344F0221A707B6801337B607B68022B70
:104F4C00F4DD0C37BD465DF8047B7047E0080020AB
:104F5C0080B485B000AF78600023FB6002E0FB6892
:104F6C000133FB607B68642202FB03F2FB689A420C
:104F7C00F5DC1437BD465DF8047B704770B50F4EF9
:104F8C000F4D761BB61018BF002405D0013455F810
:104F9C00043B9847A642F9D10A4E0B4D00F084FC15
:104FAC00761BB61018BF002406D0013455F8043B0C
:104FBC009847A642F9D170BD70BD00BFD458000807
:104FCC00D4580008DC580008D4580008024B13B120
:104FDC00024800F005B8704700000000F94F0008C7
:104FEC00014600200246034600F016B838B5084BBF
:104FFC00084DED1AAC1018BFED1805D0013C55F852
:10500C00043D9847002CF9D1BDE8384000F052BC63
:10501C00DC580008E05800082DE9F047254C0646FE
:10502C0025688846D5F8484192469946C4B36068CD
:10503C001F2817DC411C76B104EB8003C3F888A051
:10504C00D4F88851012282401543022EC4F88851AD
:10505C00C3F808911ED0831C6160002044F82380A3
:10506C00BDE8F087144B03B34FF4C87000F052F84E
:10507C000446D0B1D5F84831002784E8880038467A
:10508C00C5F848410121C4F88871C4F88C71002E10
:10509C00E1D0D1E7D4F88C311A43C4F88C21DAE78B
:1050AC0005F5A674C5F84841C1E74FF0FF30BDE8DF
:1050BC00F08700BFD058000821510008002103E000
:1050CC000B4B5B58435004310A480B4B42189A4225
:1050DC00F6D30A4A02E0002342F8043B084B9A42FA
:1050EC00F9D3FBF7FDFBFFF749FFFFF709FE70470C
:1050FC00E058000800000020640800206808002028
:10510C00F0080020FEE70000014B1868704700BF54
:10511C0050040020024B0146186800F003B800BF91
:10512C00500400202DE9F04F01F10B05162D83B032
:10513C00064627D935F0070500F1B680A94200F2E2
:10514C00B38000F075FAB5F5FC7F22D2BC4FE808AD
:10515C0007EBC003DC689C4200F0BC816368E1682B
:10516C0023F0030323445A68A56842F00102E96066
:10517C0030468D605A6000F05DFA0834204603B06A
:10518C00BDE8F08F102900F28F8000F051FA102545
:10519C00DCE7680A00F08F80042800F24781A80938
:1051AC0038304100A64F07EB8101CC68A14206D1F3
:1051BC000CE0002A80F28280E468A14206D0636889
:1051CC0023F003035A1B0F2AF3DD013801309C49ED
:1051DC003C6901F1080E744500F07181636823F09D
:1051EC0003035A1B0F2A00F35781002AC1F814E05D
:1051FC00C1F810E066DAB3F5007F80F02D81DB0892
:10520C0001EBC3084FEAA30C4A68012303FA0CF321
:10521C00D8F808C01343C4F808C0C4F80C804B601D
:10522C00C8F80840CCF80C408210012494409C42F1
:10523C0055D8234206D120F003006400234200F12C
:10524C000400FAD007EBC008C4468146DCF80C30E9
:10525C009C4507D135E1002980F24581DB689C45EE
:10526C0000F02F815A6822F00302511B0F29F2DD46
:10527C001C46DA6854F808CF45F0010941F00108E2
:10528C001D44C3F804903046CCF80C20C2F808C07A
:10529C007D613D61C5F80CE0C5F808E0C5F80480F7
:1052AC00695000F0C7F969E7002420460C233360ED
:1052BC0003B0BDE8F08F7E213F2073E723445A688A
:1052CC00E16851E723445A68304642F001025A60C3
:1052DC00083400F0AFF9204603B0BDE8F08FBC688D
:1052EC00636823F00308454504D8C5EB08030F2B6E
:1052FC0000F38C80534BDFF85CA11A68DAF80030AD
:10530C002A44013304EB080B00F0518102F5805262
:10531C000F3222F47F6222F00F02114630460192C6
:10532C0000F08AF9B0F1FF3F8146019A00F0488104
:10533C00834500F2EF80444BCB451968114419604A
:10534C0000F04381DAF80000DFF808E101301BBF00
:10535C00CBEB090B5944CEF80090196019F00701FA
:10536C0000F00881C1F10800C1F580518144083179
:10537C004A44C2F30B02C2EB010A51463046019378
:10538C0000F05AF9431C019B00F02D81C9EB00027F
:10539C00524442F001021968BC425144C7F80890CB
:1053AC001960C9F80420DFF8A0A016D0B8F10F0FCF
:1053BC0040F2EF806268A8F10C0323F0070302F0BF
:1053CC000102E0184FF0050E1A430F2B6260C0F873
:1053DC0004E0C0F808E000F20A811C4BBC681A68B3
:1053EC00914288BF19601A4B1A689142626888BF53
:1053FC00196022F003029542A2EB050301D80F2B92
:10540C0004DC304600F016F90024B7E645F0010242
:10541C0043F00103254462603046BD6008346B6084
:10542C0000F008F9204603B0BDE8F08F142869D9C4
:10543C00542800F29880280B6E304100B2E600BF71
:10544C00540400209C080020A0080020980800208C
:10545C0094080020600800205A0A042A55D9142AFE
:10546C0000F2A7805B324FEA420C07EB8C0CDCF8A5
:10547C000810DFF8B88161457FD04A6822F003023A
:10548C00934202D289688C45F7D1CA687B68E26086
:10549C00A1609460CC60C7E645F0010742F00103BF
:1054AC002544676030464D610D61C5F80CE0C5F8C8
:1054BC0008E06B60AA50083400F0BCF85EE64B685C
:1054CC00B2E609F1010919F0030F0CF1080C7FF495
:1054DC00BDAE2CE004F108036469A34208BF02309E
:1054EC003FF475AE3AE61C461A445168DB6854F832
:1054FC00085F41F0010151603046EB609D6000F0A7
:10550C0099F83BE65B3041004CE69A0938324FEA99
:10551C00420CAAE7BC42454B3FF40DAF9C68626855
:10552C0022F0030267E7D8F8008098457CD110F090
:10553C00030FA8F1080300F1FF30F4D17B6823EAD4
:10554C0004037B6064009C423FF6C9AE002C3FF420
:10555C00C6AE234248467FF475AE6400234200F188
:10556C000400FAD06EE6B0F5AA7F18D8E80B7730B5
:10557C00410017E64FF48051FAE6D8F80430921047
:10558C004FF0010C0CFA02F21343C8F804300A462F
:10559C007DE70123C9F804304C4600222BE740F28A
:1055AC00545398421CD8A80C7C304100FAE51032B8
:1055BC00B3E6542A23D81A0B6E324FEA420C54E746
:1055CC00BC68626822F0030215E7CBF30B000028DD
:1055DC007FF4B8AE4244BB6842F001025A60FCE66C
:1055EC00FC217E20DEE501224FF0000AD3E604F117
:1055FC000801304600F080F8DAF80010EDE6B2F55C
:10560C00AA7F04D8DA0B77324FEA420C2DE740F22E
:10561C0054518A4204D89A0C7C324FEA420C24E74B
:10562C004FF0FC0C7E2220E77B688BE754040020B3
:10563C00704700BF704700BF38B5074C00230546C4
:10564C0008462360FBF772F8431C00D038BD236872
:10565C00002BFBD02B6038BDEC080020F8B50C46B5
:10566C00224F0646FFF7E4FFBB685D6825F0030593
:10567C00291B01F6EF7121F47F6121F00F01A1F5D7
:10568C008054B4F5805F07DB30460021FFF7D4FF70
:10569C00BB682B44984204D03046FFF7CBFF002068
:1056AC00F8BD30466142FFF7C7FF01300DD0104BFB
:1056BC00BA6819682D1B45F001053046091B556069
:1056CC001960FFF7B7FF0120F8BD30460021FFF746
:1056DC00B3FFBA68831A0F2BDEDD064C044924682D
:1056EC0043F00103001B53600860D5E7540400200D
:1056FC00A00800206008002000294ED02DE9F041C0
:10570C000C468046FFF794FF54F8047C6249A4F1E0
:10571C00080527F00102AB188E6858689E4220F0ED
:10572C0003005AD0FE0758600BD454F8087C01F1E2
:10573C00080EED1BAC683A44744567D0EF68E7601F
:10574C00BC601C186468E4070CD4544F9C68024479
:10575C00BC427CD0D86842F00103E06084606B608E
:10576C00AA5003E042F001036B60AA50B2F5007F2F
:10577C0014D2D20801EBC20301244868921004FA37
:10578C0002F29C681043AC60EB6048609D60E56081
:10579C004046BDE8F041FFF74DBF7047530A042B5C
:1057AC0047D8930903F13804600001EB800083684B
:1057BC003949834243D0596821F00301914202D9FF
:1057CC009B689842F7D1DA68EA60AB604046956016
:1057DC00DD60BDE8F041FFF72DBFFF07024407D4A1
:1057EC0054F8084C2D1BEB68A8682244C3609860E1
:1057FC002B4B42F001001B6868609A428D60C7D346
:10580C00284B40461968FFF729FFC1E7191849686A
:10581C00C90709D4D96802449B6842F00100D960D9
:10582C008B606860AA50B3E742F001036B60AA502A
:10583C00AEE7142B14D803F15B046000B5E74A689B
:10584C00A4100120A04002434A601A46BCE742F073
:10585C0001034D610D61EC60AC606B60AA5097E781
:10586C00542B04D8130B03F16E0460009DE7B3F5C1
:10587C00AA7F04D8D30B03F17704600095E740F2BC
:10588C005450834204D8930C03F17C0460008CE7E1
:10589C00FC207E2489E700BF540400205C04002017
:1058AC005C0800209C080020F8B500BFF8BC08BCC0
:1058BC009E467047F8B500BFF8BC08BC9E467047C2
:0858CC00430000002800002049
:0858D400D94F00083101000862
:0458DC000D010008B2
:1058E00000A24A04000000000000000001020304BE
:1058F0000607080900000000010203040102030476
:10590000060708090204060800000000140300202E
:105910007C030020E40300200000000000000000E1
:105920000000000000000000000000000000000077
:10593000000000000000000000000000CC5800083B
:105940000000000000000000000000000000000057
:105950000000000000000000000000000000000047
:105960000000000000000000000000000000000037
:105970000000000000000000000000000000000027
:105980000000000000000000000000000000000017
:105990000000000000000000000000000000000007
:1059A00000000000000000000000000000000000F7
:1059B00001000000000000000E33CDAB34126DE694
:1059C000ECDE05000B0000000000000000000000FD
:1059D00000000000000000000000000000000000C7
:1059E00000000000000000000000000000000000B7
:1059F00000000000000000000000000000000000A7
:105A00000000000000000000000000000000000096
:105D300028000020000000000000000054040020A3
:105D4000540400205C0400205C0400206404002053
:105D5000640400206C0400206C0400207404002003
:105D6000740400207C0400207C04002084040020B3
:105D7000840400208C0400208C0400209404002063
:105D8000940400209C0400209C040020A404002013
:105D9000A4040020AC040020AC040020B4040020C3
:105DA000B4040020BC040020BC040020C404002073
:105DB000C4040020CC040020CC040020D404002023
:105DC000D4040020DC040020DC040020E4040020D3
:105DD000E4040020EC040020EC040020F404002083
:105DE000F4040020FC040020FC0400200405002032
